{
	"contracts/Votacion.sol": {
		"Votacion": {
			"abi": [
				{
					"inputs": [
						{
							"internalType": "string[]",
							"name": "nombreOpciones",
							"type": "string[]"
						}
					],
					"stateMutability": "nonpayable",
					"type": "constructor"
				},
				{
					"inputs": [
						{
							"internalType": "address[]",
							"name": "_votantes",
							"type": "address[]"
						}
					],
					"name": "agregarVotantes",
					"outputs": [],
					"stateMutability": "nonpayable",
					"type": "function"
				},
				{
					"inputs": [],
					"name": "creador",
					"outputs": [
						{
							"internalType": "address",
							"name": "",
							"type": "address"
						}
					],
					"stateMutability": "view",
					"type": "function"
				},
				{
					"inputs": [
						{
							"internalType": "uint256",
							"name": "",
							"type": "uint256"
						}
					],
					"name": "opciones",
					"outputs": [
						{
							"internalType": "string",
							"name": "nombre",
							"type": "string"
						},
						{
							"internalType": "uint256",
							"name": "numeroVotos",
							"type": "uint256"
						}
					],
					"stateMutability": "view",
					"type": "function"
				},
				{
					"inputs": [],
					"name": "terminaVotacion",
					"outputs": [],
					"stateMutability": "nonpayable",
					"type": "function"
				},
				{
					"inputs": [],
					"name": "verResultado",
					"outputs": [
						{
							"internalType": "string",
							"name": "opcionGanadora",
							"type": "string"
						},
						{
							"internalType": "uint256",
							"name": "numeroVotosGanador",
							"type": "uint256"
						}
					],
					"stateMutability": "view",
					"type": "function"
				},
				{
					"inputs": [
						{
							"internalType": "address",
							"name": "",
							"type": "address"
						}
					],
					"name": "votantes",
					"outputs": [
						{
							"internalType": "bool",
							"name": "haVotado",
							"type": "bool"
						},
						{
							"internalType": "uint256",
							"name": "voto",
							"type": "uint256"
						},
						{
							"internalType": "uint256",
							"name": "peso",
							"type": "uint256"
						}
					],
					"stateMutability": "view",
					"type": "function"
				},
				{
					"inputs": [
						{
							"internalType": "uint256",
							"name": "opcion",
							"type": "uint256"
						}
					],
					"name": "votar",
					"outputs": [],
					"stateMutability": "nonpayable",
					"type": "function"
				}
			],
			"devdoc": {
				"kind": "dev",
				"methods": {},
				"version": 1
			},
			"evm": {
				"assembly": "    /* \"contracts/Votacion.sol\":70:3885  contract Votacion {... */\n  mstore(0x40, 0x80)\n    /* \"contracts/Votacion.sol\":1208:1559  constructor(string[] memory nombreOpciones) {... */\n  callvalue\n  dup1\n  iszero\n  tag_1\n  jumpi\n  0x00\n  dup1\n  revert\ntag_1:\n  pop\n  mload(0x40)\n  sub(codesize, bytecodeSize)\n  dup1\n  bytecodeSize\n  dup4\n  codecopy\n  dup2\n  dup2\n  add\n  0x40\n  mstore\n  dup2\n  add\n  swap1\n  tag_2\n  swap2\n  swap1\n  tag_3\n  jump\t// in\ntag_2:\n    /* \"contracts/Votacion.sol\":1277:1282  false */\n  0x00\n    /* \"contracts/Votacion.sol\":1263:1274  haTerminado */\n  0x03\n  0x00\n    /* \"contracts/Votacion.sol\":1263:1282  haTerminado = false */\n  0x0100\n  exp\n  dup2\n  sload\n  dup2\n  0xff\n  mul\n  not\n  and\n  swap1\n  dup4\n  iszero\n  iszero\n  mul\n  or\n  swap1\n  sstore\n  pop\n    /* \"contracts/Votacion.sol\":1303:1313  msg.sender */\n  caller\n    /* \"contracts/Votacion.sol\":1293:1300  creador */\n  0x00\n  dup1\n    /* \"contracts/Votacion.sol\":1293:1313  creador = msg.sender */\n  0x0100\n  exp\n  dup2\n  sload\n  dup2\n  0xffffffffffffffffffffffffffffffffffffffff\n  mul\n  not\n  and\n  swap1\n  dup4\n  0xffffffffffffffffffffffffffffffffffffffff\n  and\n  mul\n  or\n  swap1\n  sstore\n  pop\n    /* \"contracts/Votacion.sol\":1349:1350  1 */\n  0x01\n    /* \"contracts/Votacion.sol\":1324:1332  votantes */\n  dup1\n    /* \"contracts/Votacion.sol\":1324:1341  votantes[creador] */\n  0x00\n    /* \"contracts/Votacion.sol\":1333:1340  creador */\n  dup1\n  0x00\n  swap1\n  sload\n  swap1\n  0x0100\n  exp\n  swap1\n  div\n  0xffffffffffffffffffffffffffffffffffffffff\n  and\n    /* \"contracts/Votacion.sol\":1324:1341  votantes[creador] */\n  0xffffffffffffffffffffffffffffffffffffffff\n  and\n  0xffffffffffffffffffffffffffffffffffffffff\n  and\n  dup2\n  mstore\n  0x20\n  add\n  swap1\n  dup2\n  mstore\n  0x20\n  add\n  0x00\n  keccak256\n    /* \"contracts/Votacion.sol\":1324:1346  votantes[creador].peso */\n  0x02\n  add\n    /* \"contracts/Votacion.sol\":1324:1350  votantes[creador].peso = 1 */\n  dup2\n  swap1\n  sstore\n  pop\n    /* \"contracts/Votacion.sol\":1366:1372  uint i */\n  0x00\n    /* \"contracts/Votacion.sol\":1361:1552  for (uint i = 0; i < nombreOpciones.length; i++) {... */\ntag_6:\n    /* \"contracts/Votacion.sol\":1382:1396  nombreOpciones */\n  dup2\n    /* \"contracts/Votacion.sol\":1382:1403  nombreOpciones.length */\n  mload\n    /* \"contracts/Votacion.sol\":1378:1379  i */\n  dup2\n    /* \"contracts/Votacion.sol\":1378:1403  i < nombreOpciones.length */\n  lt\n    /* \"contracts/Votacion.sol\":1361:1552  for (uint i = 0; i < nombreOpciones.length; i++) {... */\n  iszero\n  tag_7\n  jumpi\n    /* \"contracts/Votacion.sol\":1425:1433  opciones */\n  0x02\n    /* \"contracts/Votacion.sol\":1439:1539  Opcion({... */\n  mload(0x40)\n  dup1\n  0x40\n  add\n  0x40\n  mstore\n  dup1\n    /* \"contracts/Votacion.sol\":1473:1487  nombreOpciones */\n  dup5\n    /* \"contracts/Votacion.sol\":1488:1489  i */\n  dup5\n    /* \"contracts/Votacion.sol\":1473:1490  nombreOpciones[i] */\n  dup2\n  mload\n  dup2\n  lt\n  tag_9\n  jumpi\n  tag_10\n  tag_11\n  jump\t// in\ntag_10:\ntag_9:\n  0x20\n  mul\n  0x20\n  add\n  add\n  mload\n    /* \"contracts/Votacion.sol\":1439:1539  Opcion({... */\n  dup2\n  mstore\n  0x20\n  add\n    /* \"contracts/Votacion.sol\":1522:1523  0 */\n  0x00\n    /* \"contracts/Votacion.sol\":1439:1539  Opcion({... */\n  dup2\n  mstore\n  pop\n    /* \"contracts/Votacion.sol\":1425:1540  opciones.push(Opcion({... */\n  swap1\n  dup1\n  0x01\n  dup2\n  sload\n  add\n  dup1\n  dup3\n  sstore\n  dup1\n  swap2\n  pop\n  pop\n  0x01\n  swap1\n  sub\n  swap1\n  0x00\n  mstore\n  keccak256(0x00, 0x20)\n  swap1\n  0x02\n  mul\n  add\n  0x00\n  swap1\n  swap2\n  swap1\n  swap2\n  swap1\n  swap2\n  pop\n  0x00\n  dup3\n  add\n  mload\n  dup2\n  0x00\n  add\n  swap1\n  dup2\n  tag_13\n  swap2\n  swap1\n  tag_14\n  jump\t// in\ntag_13:\n  pop\n  0x20\n  dup3\n  add\n  mload\n  dup2\n  0x01\n  add\n  sstore\n  pop\n  pop\n    /* \"contracts/Votacion.sol\":1405:1408  i++ */\n  dup1\n  dup1\n  tag_15\n  swap1\n  tag_16\n  jump\t// in\ntag_15:\n  swap2\n  pop\n  pop\n    /* \"contracts/Votacion.sol\":1361:1552  for (uint i = 0; i < nombreOpciones.length; i++) {... */\n  jump(tag_6)\ntag_7:\n  pop\n    /* \"contracts/Votacion.sol\":1208:1559  constructor(string[] memory nombreOpciones) {... */\n  pop\n    /* \"contracts/Votacion.sol\":70:3885  contract Votacion {... */\n  jump(tag_17)\n    /* \"#utility.yul\":7:82   */\ntag_18:\n    /* \"#utility.yul\":40:46   */\n  0x00\n    /* \"#utility.yul\":73:75   */\n  0x40\n    /* \"#utility.yul\":67:76   */\n  mload\n    /* \"#utility.yul\":57:76   */\n  swap1\n  pop\n    /* \"#utility.yul\":7:82   */\n  swap1\n  jump\t// out\n    /* \"#utility.yul\":88:205   */\ntag_19:\n    /* \"#utility.yul\":197:198   */\n  0x00\n    /* \"#utility.yul\":194:195   */\n  dup1\n    /* \"#utility.yul\":187:199   */\n  revert\n    /* \"#utility.yul\":211:328   */\ntag_20:\n    /* \"#utility.yul\":320:321   */\n  0x00\n    /* \"#utility.yul\":317:318   */\n  dup1\n    /* \"#utility.yul\":310:322   */\n  revert\n    /* \"#utility.yul\":334:451   */\ntag_21:\n    /* \"#utility.yul\":443:444   */\n  0x00\n    /* \"#utility.yul\":440:441   */\n  dup1\n    /* \"#utility.yul\":433:445   */\n  revert\n    /* \"#utility.yul\":457:559   */\ntag_22:\n    /* \"#utility.yul\":498:504   */\n  0x00\n    /* \"#utility.yul\":549:551   */\n  0x1f\n    /* \"#utility.yul\":545:552   */\n  not\n    /* \"#utility.yul\":540:542   */\n  0x1f\n    /* \"#utility.yul\":533:538   */\n  dup4\n    /* \"#utility.yul\":529:543   */\n  add\n    /* \"#utility.yul\":525:553   */\n  and\n    /* \"#utility.yul\":515:553   */\n  swap1\n  pop\n    /* \"#utility.yul\":457:559   */\n  swap2\n  swap1\n  pop\n  jump\t// out\n    /* \"#utility.yul\":565:745   */\ntag_23:\n    /* \"#utility.yul\":613:690   */\n  0x4e487b7100000000000000000000000000000000000000000000000000000000\n    /* \"#utility.yul\":610:611   */\n  0x00\n    /* \"#utility.yul\":603:691   */\n  mstore\n    /* \"#utility.yul\":710:714   */\n  0x41\n    /* \"#utility.yul\":707:708   */\n  0x04\n    /* \"#utility.yul\":700:715   */\n  mstore\n    /* \"#utility.yul\":734:738   */\n  0x24\n    /* \"#utility.yul\":731:732   */\n  0x00\n    /* \"#utility.yul\":724:739   */\n  revert\n    /* \"#utility.yul\":751:1032   */\ntag_24:\n    /* \"#utility.yul\":834:861   */\n  tag_63\n    /* \"#utility.yul\":856:860   */\n  dup3\n    /* \"#utility.yul\":834:861   */\n  tag_22\n  jump\t// in\ntag_63:\n    /* \"#utility.yul\":826:832   */\n  dup2\n    /* \"#utility.yul\":822:862   */\n  add\n    /* \"#utility.yul\":964:970   */\n  dup2\n    /* \"#utility.yul\":952:962   */\n  dup2\n    /* \"#utility.yul\":949:971   */\n  lt\n    /* \"#utility.yul\":928:946   */\n  0xffffffffffffffff\n    /* \"#utility.yul\":916:926   */\n  dup3\n    /* \"#utility.yul\":913:947   */\n  gt\n    /* \"#utility.yul\":910:972   */\n  or\n    /* \"#utility.yul\":907:995   */\n  iszero\n  tag_64\n  jumpi\n    /* \"#utility.yul\":975:993   */\n  tag_65\n  tag_23\n  jump\t// in\ntag_65:\n    /* \"#utility.yul\":907:995   */\ntag_64:\n    /* \"#utility.yul\":1015:1025   */\n  dup1\n    /* \"#utility.yul\":1011:1013   */\n  0x40\n    /* \"#utility.yul\":1004:1026   */\n  mstore\n    /* \"#utility.yul\":794:1032   */\n  pop\n    /* \"#utility.yul\":751:1032   */\n  pop\n  pop\n  jump\t// out\n    /* \"#utility.yul\":1038:1167   */\ntag_25:\n    /* \"#utility.yul\":1072:1078   */\n  0x00\n    /* \"#utility.yul\":1099:1119   */\n  tag_67\n  tag_18\n  jump\t// in\ntag_67:\n    /* \"#utility.yul\":1089:1119   */\n  swap1\n  pop\n    /* \"#utility.yul\":1128:1161   */\n  tag_68\n    /* \"#utility.yul\":1156:1160   */\n  dup3\n    /* \"#utility.yul\":1148:1154   */\n  dup3\n    /* \"#utility.yul\":1128:1161   */\n  tag_24\n  jump\t// in\ntag_68:\n    /* \"#utility.yul\":1038:1167   */\n  swap2\n  swap1\n  pop\n  jump\t// out\n    /* \"#utility.yul\":1173:1494   */\ntag_26:\n    /* \"#utility.yul\":1260:1264   */\n  0x00\n    /* \"#utility.yul\":1350:1368   */\n  0xffffffffffffffff\n    /* \"#utility.yul\":1342:1348   */\n  dup3\n    /* \"#utility.yul\":1339:1369   */\n  gt\n    /* \"#utility.yul\":1336:1392   */\n  iszero\n  tag_70\n  jumpi\n    /* \"#utility.yul\":1372:1390   */\n  tag_71\n  tag_23\n  jump\t// in\ntag_71:\n    /* \"#utility.yul\":1336:1392   */\ntag_70:\n    /* \"#utility.yul\":1422:1426   */\n  0x20\n    /* \"#utility.yul\":1414:1420   */\n  dup3\n    /* \"#utility.yul\":1410:1427   */\n  mul\n    /* \"#utility.yul\":1402:1427   */\n  swap1\n  pop\n    /* \"#utility.yul\":1482:1486   */\n  0x20\n    /* \"#utility.yul\":1476:1480   */\n  dup2\n    /* \"#utility.yul\":1472:1487   */\n  add\n    /* \"#utility.yul\":1464:1487   */\n  swap1\n  pop\n    /* \"#utility.yul\":1173:1494   */\n  swap2\n  swap1\n  pop\n  jump\t// out\n    /* \"#utility.yul\":1500:1617   */\ntag_27:\n    /* \"#utility.yul\":1609:1610   */\n  0x00\n    /* \"#utility.yul\":1606:1607   */\n  dup1\n    /* \"#utility.yul\":1599:1611   */\n  revert\n    /* \"#utility.yul\":1623:1740   */\ntag_28:\n    /* \"#utility.yul\":1732:1733   */\n  0x00\n    /* \"#utility.yul\":1729:1730   */\n  dup1\n    /* \"#utility.yul\":1722:1734   */\n  revert\n    /* \"#utility.yul\":1746:2054   */\ntag_29:\n    /* \"#utility.yul\":1808:1812   */\n  0x00\n    /* \"#utility.yul\":1898:1916   */\n  0xffffffffffffffff\n    /* \"#utility.yul\":1890:1896   */\n  dup3\n    /* \"#utility.yul\":1887:1917   */\n  gt\n    /* \"#utility.yul\":1884:1940   */\n  iszero\n  tag_75\n  jumpi\n    /* \"#utility.yul\":1920:1938   */\n  tag_76\n  tag_23\n  jump\t// in\ntag_76:\n    /* \"#utility.yul\":1884:1940   */\ntag_75:\n    /* \"#utility.yul\":1958:1987   */\n  tag_77\n    /* \"#utility.yul\":1980:1986   */\n  dup3\n    /* \"#utility.yul\":1958:1987   */\n  tag_22\n  jump\t// in\ntag_77:\n    /* \"#utility.yul\":1950:1987   */\n  swap1\n  pop\n    /* \"#utility.yul\":2042:2046   */\n  0x20\n    /* \"#utility.yul\":2036:2040   */\n  dup2\n    /* \"#utility.yul\":2032:2047   */\n  add\n    /* \"#utility.yul\":2024:2047   */\n  swap1\n  pop\n    /* \"#utility.yul\":1746:2054   */\n  swap2\n  swap1\n  pop\n  jump\t// out\n    /* \"#utility.yul\":2060:2306   */\ntag_30:\n    /* \"#utility.yul\":2141:2142   */\n  0x00\n    /* \"#utility.yul\":2151:2264   */\ntag_79:\n    /* \"#utility.yul\":2165:2171   */\n  dup4\n    /* \"#utility.yul\":2162:2163   */\n  dup2\n    /* \"#utility.yul\":2159:2172   */\n  lt\n    /* \"#utility.yul\":2151:2264   */\n  iszero\n  tag_81\n  jumpi\n    /* \"#utility.yul\":2250:2251   */\n  dup1\n    /* \"#utility.yul\":2245:2248   */\n  dup3\n    /* \"#utility.yul\":2241:2252   */\n  add\n    /* \"#utility.yul\":2235:2253   */\n  mload\n    /* \"#utility.yul\":2231:2232   */\n  dup2\n    /* \"#utility.yul\":2226:2229   */\n  dup5\n    /* \"#utility.yul\":2222:2233   */\n  add\n    /* \"#utility.yul\":2215:2254   */\n  mstore\n    /* \"#utility.yul\":2187:2189   */\n  0x20\n    /* \"#utility.yul\":2184:2185   */\n  dup2\n    /* \"#utility.yul\":2180:2190   */\n  add\n    /* \"#utility.yul\":2175:2190   */\n  swap1\n  pop\n    /* \"#utility.yul\":2151:2264   */\n  jump(tag_79)\ntag_81:\n    /* \"#utility.yul\":2298:2299   */\n  0x00\n    /* \"#utility.yul\":2289:2295   */\n  dup5\n    /* \"#utility.yul\":2284:2287   */\n  dup5\n    /* \"#utility.yul\":2280:2296   */\n  add\n    /* \"#utility.yul\":2273:2300   */\n  mstore\n    /* \"#utility.yul\":2122:2306   */\n  pop\n    /* \"#utility.yul\":2060:2306   */\n  pop\n  pop\n  pop\n  jump\t// out\n    /* \"#utility.yul\":2312:2746   */\ntag_31:\n    /* \"#utility.yul\":2401:2406   */\n  0x00\n    /* \"#utility.yul\":2426:2492   */\n  tag_83\n    /* \"#utility.yul\":2442:2491   */\n  tag_84\n    /* \"#utility.yul\":2484:2490   */\n  dup5\n    /* \"#utility.yul\":2442:2491   */\n  tag_29\n  jump\t// in\ntag_84:\n    /* \"#utility.yul\":2426:2492   */\n  tag_25\n  jump\t// in\ntag_83:\n    /* \"#utility.yul\":2417:2492   */\n  swap1\n  pop\n    /* \"#utility.yul\":2515:2521   */\n  dup3\n    /* \"#utility.yul\":2508:2513   */\n  dup2\n    /* \"#utility.yul\":2501:2522   */\n  mstore\n    /* \"#utility.yul\":2553:2557   */\n  0x20\n    /* \"#utility.yul\":2546:2551   */\n  dup2\n    /* \"#utility.yul\":2542:2558   */\n  add\n    /* \"#utility.yul\":2591:2594   */\n  dup5\n    /* \"#utility.yul\":2582:2588   */\n  dup5\n    /* \"#utility.yul\":2577:2580   */\n  dup5\n    /* \"#utility.yul\":2573:2589   */\n  add\n    /* \"#utility.yul\":2570:2595   */\n  gt\n    /* \"#utility.yul\":2567:2679   */\n  iszero\n  tag_85\n  jumpi\n    /* \"#utility.yul\":2598:2677   */\n  tag_86\n  tag_28\n  jump\t// in\ntag_86:\n    /* \"#utility.yul\":2567:2679   */\ntag_85:\n    /* \"#utility.yul\":2688:2740   */\n  tag_87\n    /* \"#utility.yul\":2733:2739   */\n  dup5\n    /* \"#utility.yul\":2728:2731   */\n  dup3\n    /* \"#utility.yul\":2723:2726   */\n  dup6\n    /* \"#utility.yul\":2688:2740   */\n  tag_30\n  jump\t// in\ntag_87:\n    /* \"#utility.yul\":2407:2746   */\n  pop\n    /* \"#utility.yul\":2312:2746   */\n  swap4\n  swap3\n  pop\n  pop\n  pop\n  jump\t// out\n    /* \"#utility.yul\":2766:3121   */\ntag_32:\n    /* \"#utility.yul\":2833:2838   */\n  0x00\n    /* \"#utility.yul\":2882:2885   */\n  dup3\n    /* \"#utility.yul\":2875:2879   */\n  0x1f\n    /* \"#utility.yul\":2867:2873   */\n  dup4\n    /* \"#utility.yul\":2863:2880   */\n  add\n    /* \"#utility.yul\":2859:2886   */\n  slt\n    /* \"#utility.yul\":2849:2971   */\n  tag_89\n  jumpi\n    /* \"#utility.yul\":2890:2969   */\n  tag_90\n  tag_21\n  jump\t// in\ntag_90:\n    /* \"#utility.yul\":2849:2971   */\ntag_89:\n    /* \"#utility.yul\":3000:3006   */\n  dup2\n    /* \"#utility.yul\":2994:3007   */\n  mload\n    /* \"#utility.yul\":3025:3115   */\n  tag_91\n    /* \"#utility.yul\":3111:3114   */\n  dup5\n    /* \"#utility.yul\":3103:3109   */\n  dup3\n    /* \"#utility.yul\":3096:3100   */\n  0x20\n    /* \"#utility.yul\":3088:3094   */\n  dup7\n    /* \"#utility.yul\":3084:3101   */\n  add\n    /* \"#utility.yul\":3025:3115   */\n  tag_31\n  jump\t// in\ntag_91:\n    /* \"#utility.yul\":3016:3115   */\n  swap2\n  pop\n    /* \"#utility.yul\":2839:3121   */\n  pop\n    /* \"#utility.yul\":2766:3121   */\n  swap3\n  swap2\n  pop\n  pop\n  jump\t// out\n    /* \"#utility.yul\":3143:4103   */\ntag_33:\n    /* \"#utility.yul\":3260:3265   */\n  0x00\n    /* \"#utility.yul\":3285:3376   */\n  tag_93\n    /* \"#utility.yul\":3301:3375   */\n  tag_94\n    /* \"#utility.yul\":3368:3374   */\n  dup5\n    /* \"#utility.yul\":3301:3375   */\n  tag_26\n  jump\t// in\ntag_94:\n    /* \"#utility.yul\":3285:3376   */\n  tag_25\n  jump\t// in\ntag_93:\n    /* \"#utility.yul\":3276:3376   */\n  swap1\n  pop\n    /* \"#utility.yul\":3396:3401   */\n  dup1\n    /* \"#utility.yul\":3425:3431   */\n  dup4\n    /* \"#utility.yul\":3418:3423   */\n  dup3\n    /* \"#utility.yul\":3411:3432   */\n  mstore\n    /* \"#utility.yul\":3459:3463   */\n  0x20\n    /* \"#utility.yul\":3452:3457   */\n  dup3\n    /* \"#utility.yul\":3448:3464   */\n  add\n    /* \"#utility.yul\":3441:3464   */\n  swap1\n  pop\n    /* \"#utility.yul\":3512:3516   */\n  0x20\n    /* \"#utility.yul\":3504:3510   */\n  dup5\n    /* \"#utility.yul\":3500:3517   */\n  mul\n    /* \"#utility.yul\":3492:3498   */\n  dup4\n    /* \"#utility.yul\":3488:3518   */\n  add\n    /* \"#utility.yul\":3541:3544   */\n  dup6\n    /* \"#utility.yul\":3533:3539   */\n  dup2\n    /* \"#utility.yul\":3530:3545   */\n  gt\n    /* \"#utility.yul\":3527:3649   */\n  iszero\n  tag_95\n  jumpi\n    /* \"#utility.yul\":3560:3639   */\n  tag_96\n  tag_27\n  jump\t// in\ntag_96:\n    /* \"#utility.yul\":3527:3649   */\ntag_95:\n    /* \"#utility.yul\":3675:3681   */\n  dup4\n    /* \"#utility.yul\":3658:4097   */\ntag_97:\n    /* \"#utility.yul\":3692:3698   */\n  dup2\n    /* \"#utility.yul\":3687:3690   */\n  dup2\n    /* \"#utility.yul\":3684:3699   */\n  lt\n    /* \"#utility.yul\":3658:4097   */\n  iszero\n  tag_99\n  jumpi\n    /* \"#utility.yul\":3774:3777   */\n  dup1\n    /* \"#utility.yul\":3768:3778   */\n  mload\n    /* \"#utility.yul\":3810:3828   */\n  0xffffffffffffffff\n    /* \"#utility.yul\":3797:3808   */\n  dup2\n    /* \"#utility.yul\":3794:3829   */\n  gt\n    /* \"#utility.yul\":3791:3913   */\n  iszero\n  tag_100\n  jumpi\n    /* \"#utility.yul\":3832:3911   */\n  tag_101\n  tag_21\n  jump\t// in\ntag_101:\n    /* \"#utility.yul\":3791:3913   */\ntag_100:\n    /* \"#utility.yul\":3956:3967   */\n  dup1\n    /* \"#utility.yul\":3948:3954   */\n  dup7\n    /* \"#utility.yul\":3944:3968   */\n  add\n    /* \"#utility.yul\":3994:4052   */\n  tag_102\n    /* \"#utility.yul\":4048:4051   */\n  dup10\n    /* \"#utility.yul\":4036:4046   */\n  dup3\n    /* \"#utility.yul\":3994:4052   */\n  tag_32\n  jump\t// in\ntag_102:\n    /* \"#utility.yul\":3989:3992   */\n  dup6\n    /* \"#utility.yul\":3982:4053   */\n  mstore\n    /* \"#utility.yul\":4082:4086   */\n  0x20\n    /* \"#utility.yul\":4077:4080   */\n  dup6\n    /* \"#utility.yul\":4073:4087   */\n  add\n    /* \"#utility.yul\":4066:4087   */\n  swap5\n  pop\n    /* \"#utility.yul\":3734:4097   */\n  pop\n  pop\n    /* \"#utility.yul\":3718:3722   */\n  0x20\n    /* \"#utility.yul\":3713:3716   */\n  dup2\n    /* \"#utility.yul\":3709:3723   */\n  add\n    /* \"#utility.yul\":3702:3723   */\n  swap1\n  pop\n    /* \"#utility.yul\":3658:4097   */\n  jump(tag_97)\ntag_99:\n    /* \"#utility.yul\":3662:3683   */\n  pop\n    /* \"#utility.yul\":3266:4103   */\n  pop\n  pop\n    /* \"#utility.yul\":3143:4103   */\n  swap4\n  swap3\n  pop\n  pop\n  pop\n  jump\t// out\n    /* \"#utility.yul\":4125:4530   */\ntag_34:\n    /* \"#utility.yul\":4217:4222   */\n  0x00\n    /* \"#utility.yul\":4266:4269   */\n  dup3\n    /* \"#utility.yul\":4259:4263   */\n  0x1f\n    /* \"#utility.yul\":4251:4257   */\n  dup4\n    /* \"#utility.yul\":4247:4264   */\n  add\n    /* \"#utility.yul\":4243:4270   */\n  slt\n    /* \"#utility.yul\":4233:4355   */\n  tag_104\n  jumpi\n    /* \"#utility.yul\":4274:4353   */\n  tag_105\n  tag_21\n  jump\t// in\ntag_105:\n    /* \"#utility.yul\":4233:4355   */\ntag_104:\n    /* \"#utility.yul\":4384:4390   */\n  dup2\n    /* \"#utility.yul\":4378:4391   */\n  mload\n    /* \"#utility.yul\":4409:4524   */\n  tag_106\n    /* \"#utility.yul\":4520:4523   */\n  dup5\n    /* \"#utility.yul\":4512:4518   */\n  dup3\n    /* \"#utility.yul\":4505:4509   */\n  0x20\n    /* \"#utility.yul\":4497:4503   */\n  dup7\n    /* \"#utility.yul\":4493:4510   */\n  add\n    /* \"#utility.yul\":4409:4524   */\n  tag_33\n  jump\t// in\ntag_106:\n    /* \"#utility.yul\":4400:4524   */\n  swap2\n  pop\n    /* \"#utility.yul\":4223:4530   */\n  pop\n    /* \"#utility.yul\":4125:4530   */\n  swap3\n  swap2\n  pop\n  pop\n  jump\t// out\n    /* \"#utility.yul\":4536:5110   */\ntag_3:\n    /* \"#utility.yul\":4641:4647   */\n  0x00\n    /* \"#utility.yul\":4690:4692   */\n  0x20\n    /* \"#utility.yul\":4678:4687   */\n  dup3\n    /* \"#utility.yul\":4669:4676   */\n  dup5\n    /* \"#utility.yul\":4665:4688   */\n  sub\n    /* \"#utility.yul\":4661:4693   */\n  slt\n    /* \"#utility.yul\":4658:4777   */\n  iszero\n  tag_108\n  jumpi\n    /* \"#utility.yul\":4696:4775   */\n  tag_109\n  tag_19\n  jump\t// in\ntag_109:\n    /* \"#utility.yul\":4658:4777   */\ntag_108:\n    /* \"#utility.yul\":4837:4838   */\n  0x00\n    /* \"#utility.yul\":4826:4835   */\n  dup3\n    /* \"#utility.yul\":4822:4839   */\n  add\n    /* \"#utility.yul\":4816:4840   */\n  mload\n    /* \"#utility.yul\":4867:4885   */\n  0xffffffffffffffff\n    /* \"#utility.yul\":4859:4865   */\n  dup2\n    /* \"#utility.yul\":4856:4886   */\n  gt\n    /* \"#utility.yul\":4853:4970   */\n  iszero\n  tag_110\n  jumpi\n    /* \"#utility.yul\":4889:4968   */\n  tag_111\n  tag_20\n  jump\t// in\ntag_111:\n    /* \"#utility.yul\":4853:4970   */\ntag_110:\n    /* \"#utility.yul\":4994:5093   */\n  tag_112\n    /* \"#utility.yul\":5085:5092   */\n  dup5\n    /* \"#utility.yul\":5076:5082   */\n  dup3\n    /* \"#utility.yul\":5065:5074   */\n  dup6\n    /* \"#utility.yul\":5061:5083   */\n  add\n    /* \"#utility.yul\":4994:5093   */\n  tag_34\n  jump\t// in\ntag_112:\n    /* \"#utility.yul\":4984:5093   */\n  swap2\n  pop\n    /* \"#utility.yul\":4787:5103   */\n  pop\n    /* \"#utility.yul\":4536:5110   */\n  swap3\n  swap2\n  pop\n  pop\n  jump\t// out\n    /* \"#utility.yul\":5116:5296   */\ntag_11:\n    /* \"#utility.yul\":5164:5241   */\n  0x4e487b7100000000000000000000000000000000000000000000000000000000\n    /* \"#utility.yul\":5161:5162   */\n  0x00\n    /* \"#utility.yul\":5154:5242   */\n  mstore\n    /* \"#utility.yul\":5261:5265   */\n  0x32\n    /* \"#utility.yul\":5258:5259   */\n  0x04\n    /* \"#utility.yul\":5251:5266   */\n  mstore\n    /* \"#utility.yul\":5285:5289   */\n  0x24\n    /* \"#utility.yul\":5282:5283   */\n  0x00\n    /* \"#utility.yul\":5275:5290   */\n  revert\n    /* \"#utility.yul\":5302:5401   */\ntag_35:\n    /* \"#utility.yul\":5354:5360   */\n  0x00\n    /* \"#utility.yul\":5388:5393   */\n  dup2\n    /* \"#utility.yul\":5382:5394   */\n  mload\n    /* \"#utility.yul\":5372:5394   */\n  swap1\n  pop\n    /* \"#utility.yul\":5302:5401   */\n  swap2\n  swap1\n  pop\n  jump\t// out\n    /* \"#utility.yul\":5407:5587   */\ntag_36:\n    /* \"#utility.yul\":5455:5532   */\n  0x4e487b7100000000000000000000000000000000000000000000000000000000\n    /* \"#utility.yul\":5452:5453   */\n  0x00\n    /* \"#utility.yul\":5445:5533   */\n  mstore\n    /* \"#utility.yul\":5552:5556   */\n  0x22\n    /* \"#utility.yul\":5549:5550   */\n  0x04\n    /* \"#utility.yul\":5542:5557   */\n  mstore\n    /* \"#utility.yul\":5576:5580   */\n  0x24\n    /* \"#utility.yul\":5573:5574   */\n  0x00\n    /* \"#utility.yul\":5566:5581   */\n  revert\n    /* \"#utility.yul\":5593:5913   */\ntag_37:\n    /* \"#utility.yul\":5637:5643   */\n  0x00\n    /* \"#utility.yul\":5674:5675   */\n  0x02\n    /* \"#utility.yul\":5668:5672   */\n  dup3\n    /* \"#utility.yul\":5664:5676   */\n  div\n    /* \"#utility.yul\":5654:5676   */\n  swap1\n  pop\n    /* \"#utility.yul\":5721:5722   */\n  0x01\n    /* \"#utility.yul\":5715:5719   */\n  dup3\n    /* \"#utility.yul\":5711:5723   */\n  and\n    /* \"#utility.yul\":5742:5760   */\n  dup1\n    /* \"#utility.yul\":5732:5813   */\n  tag_117\n  jumpi\n    /* \"#utility.yul\":5798:5802   */\n  0x7f\n    /* \"#utility.yul\":5790:5796   */\n  dup3\n    /* \"#utility.yul\":5786:5803   */\n  and\n    /* \"#utility.yul\":5776:5803   */\n  swap2\n  pop\n    /* \"#utility.yul\":5732:5813   */\ntag_117:\n    /* \"#utility.yul\":5860:5862   */\n  0x20\n    /* \"#utility.yul\":5852:5858   */\n  dup3\n    /* \"#utility.yul\":5849:5863   */\n  lt\n    /* \"#utility.yul\":5829:5847   */\n  dup2\n    /* \"#utility.yul\":5826:5864   */\n  sub\n    /* \"#utility.yul\":5823:5907   */\n  tag_118\n  jumpi\n    /* \"#utility.yul\":5879:5897   */\n  tag_119\n  tag_36\n  jump\t// in\ntag_119:\n    /* \"#utility.yul\":5823:5907   */\ntag_118:\n    /* \"#utility.yul\":5644:5913   */\n  pop\n    /* \"#utility.yul\":5593:5913   */\n  swap2\n  swap1\n  pop\n  jump\t// out\n    /* \"#utility.yul\":5919:6060   */\ntag_38:\n    /* \"#utility.yul\":5968:5972   */\n  0x00\n    /* \"#utility.yul\":5991:5994   */\n  dup2\n    /* \"#utility.yul\":5983:5994   */\n  swap1\n  pop\n    /* \"#utility.yul\":6014:6017   */\n  dup2\n    /* \"#utility.yul\":6011:6012   */\n  0x00\n    /* \"#utility.yul\":6004:6018   */\n  mstore\n    /* \"#utility.yul\":6048:6052   */\n  0x20\n    /* \"#utility.yul\":6045:6046   */\n  0x00\n    /* \"#utility.yul\":6035:6053   */\n  keccak256\n    /* \"#utility.yul\":6027:6053   */\n  swap1\n  pop\n    /* \"#utility.yul\":5919:6060   */\n  swap2\n  swap1\n  pop\n  jump\t// out\n    /* \"#utility.yul\":6066:6159   */\ntag_39:\n    /* \"#utility.yul\":6103:6109   */\n  0x00\n    /* \"#utility.yul\":6150:6152   */\n  0x20\n    /* \"#utility.yul\":6145:6147   */\n  0x1f\n    /* \"#utility.yul\":6138:6143   */\n  dup4\n    /* \"#utility.yul\":6134:6148   */\n  add\n    /* \"#utility.yul\":6130:6153   */\n  div\n    /* \"#utility.yul\":6120:6153   */\n  swap1\n  pop\n    /* \"#utility.yul\":6066:6159   */\n  swap2\n  swap1\n  pop\n  jump\t// out\n    /* \"#utility.yul\":6165:6272   */\ntag_40:\n    /* \"#utility.yul\":6209:6217   */\n  0x00\n    /* \"#utility.yul\":6259:6264   */\n  dup3\n    /* \"#utility.yul\":6253:6257   */\n  dup3\n    /* \"#utility.yul\":6249:6265   */\n  shl\n    /* \"#utility.yul\":6228:6265   */\n  swap1\n  pop\n    /* \"#utility.yul\":6165:6272   */\n  swap3\n  swap2\n  pop\n  pop\n  jump\t// out\n    /* \"#utility.yul\":6278:6671   */\ntag_41:\n    /* \"#utility.yul\":6347:6353   */\n  0x00\n    /* \"#utility.yul\":6397:6398   */\n  0x08\n    /* \"#utility.yul\":6385:6395   */\n  dup4\n    /* \"#utility.yul\":6381:6399   */\n  mul\n    /* \"#utility.yul\":6420:6517   */\n  tag_124\n    /* \"#utility.yul\":6450:6516   */\n  0xffffffffffffffffffffffffffffffffffffffffffffffffffffffffffffffff\n    /* \"#utility.yul\":6439:6448   */\n  dup3\n    /* \"#utility.yul\":6420:6517   */\n  tag_40\n  jump\t// in\ntag_124:\n    /* \"#utility.yul\":6538:6577   */\n  tag_125\n    /* \"#utility.yul\":6568:6576   */\n  dup7\n    /* \"#utility.yul\":6557:6566   */\n  dup4\n    /* \"#utility.yul\":6538:6577   */\n  tag_40\n  jump\t// in\ntag_125:\n    /* \"#utility.yul\":6526:6577   */\n  swap6\n  pop\n    /* \"#utility.yul\":6610:6614   */\n  dup1\n    /* \"#utility.yul\":6606:6615   */\n  not\n    /* \"#utility.yul\":6599:6604   */\n  dup5\n    /* \"#utility.yul\":6595:6616   */\n  and\n    /* \"#utility.yul\":6586:6616   */\n  swap4\n  pop\n    /* \"#utility.yul\":6659:6663   */\n  dup1\n    /* \"#utility.yul\":6649:6657   */\n  dup7\n    /* \"#utility.yul\":6645:6664   */\n  and\n    /* \"#utility.yul\":6638:6643   */\n  dup5\n    /* \"#utility.yul\":6635:6665   */\n  or\n    /* \"#utility.yul\":6625:6665   */\n  swap3\n  pop\n    /* \"#utility.yul\":6354:6671   */\n  pop\n  pop\n    /* \"#utility.yul\":6278:6671   */\n  swap4\n  swap3\n  pop\n  pop\n  pop\n  jump\t// out\n    /* \"#utility.yul\":6677:6754   */\ntag_42:\n    /* \"#utility.yul\":6714:6721   */\n  0x00\n    /* \"#utility.yul\":6743:6748   */\n  dup2\n    /* \"#utility.yul\":6732:6748   */\n  swap1\n  pop\n    /* \"#utility.yul\":6677:6754   */\n  swap2\n  swap1\n  pop\n  jump\t// out\n    /* \"#utility.yul\":6760:6820   */\ntag_43:\n    /* \"#utility.yul\":6788:6791   */\n  0x00\n    /* \"#utility.yul\":6809:6814   */\n  dup2\n    /* \"#utility.yul\":6802:6814   */\n  swap1\n  pop\n    /* \"#utility.yul\":6760:6820   */\n  swap2\n  swap1\n  pop\n  jump\t// out\n    /* \"#utility.yul\":6826:6968   */\ntag_44:\n    /* \"#utility.yul\":6876:6885   */\n  0x00\n    /* \"#utility.yul\":6909:6962   */\n  tag_129\n    /* \"#utility.yul\":6927:6961   */\n  tag_130\n    /* \"#utility.yul\":6936:6960   */\n  tag_131\n    /* \"#utility.yul\":6954:6959   */\n  dup5\n    /* \"#utility.yul\":6936:6960   */\n  tag_42\n  jump\t// in\ntag_131:\n    /* \"#utility.yul\":6927:6961   */\n  tag_43\n  jump\t// in\ntag_130:\n    /* \"#utility.yul\":6909:6962   */\n  tag_42\n  jump\t// in\ntag_129:\n    /* \"#utility.yul\":6896:6962   */\n  swap1\n  pop\n    /* \"#utility.yul\":6826:6968   */\n  swap2\n  swap1\n  pop\n  jump\t// out\n    /* \"#utility.yul\":6974:7049   */\ntag_45:\n    /* \"#utility.yul\":7017:7020   */\n  0x00\n    /* \"#utility.yul\":7038:7043   */\n  dup2\n    /* \"#utility.yul\":7031:7043   */\n  swap1\n  pop\n    /* \"#utility.yul\":6974:7049   */\n  swap2\n  swap1\n  pop\n  jump\t// out\n    /* \"#utility.yul\":7055:7324   */\ntag_46:\n    /* \"#utility.yul\":7165:7204   */\n  tag_134\n    /* \"#utility.yul\":7196:7203   */\n  dup4\n    /* \"#utility.yul\":7165:7204   */\n  tag_44\n  jump\t// in\ntag_134:\n    /* \"#utility.yul\":7226:7317   */\n  tag_135\n    /* \"#utility.yul\":7275:7316   */\n  tag_136\n    /* \"#utility.yul\":7299:7315   */\n  dup3\n    /* \"#utility.yul\":7275:7316   */\n  tag_45\n  jump\t// in\ntag_136:\n    /* \"#utility.yul\":7267:7273   */\n  dup5\n    /* \"#utility.yul\":7260:7264   */\n  dup5\n    /* \"#utility.yul\":7254:7265   */\n  sload\n    /* \"#utility.yul\":7226:7317   */\n  tag_41\n  jump\t// in\ntag_135:\n    /* \"#utility.yul\":7220:7224   */\n  dup3\n    /* \"#utility.yul\":7213:7318   */\n  sstore\n    /* \"#utility.yul\":7131:7324   */\n  pop\n    /* \"#utility.yul\":7055:7324   */\n  pop\n  pop\n  pop\n  jump\t// out\n    /* \"#utility.yul\":7330:7403   */\ntag_47:\n    /* \"#utility.yul\":7375:7378   */\n  0x00\n    /* \"#utility.yul\":7330:7403   */\n  swap1\n  jump\t// out\n    /* \"#utility.yul\":7409:7598   */\ntag_48:\n    /* \"#utility.yul\":7486:7518   */\n  tag_139\n  tag_47\n  jump\t// in\ntag_139:\n    /* \"#utility.yul\":7527:7592   */\n  tag_140\n    /* \"#utility.yul\":7585:7591   */\n  dup2\n    /* \"#utility.yul\":7577:7583   */\n  dup5\n    /* \"#utility.yul\":7571:7575   */\n  dup5\n    /* \"#utility.yul\":7527:7592   */\n  tag_46\n  jump\t// in\ntag_140:\n    /* \"#utility.yul\":7462:7598   */\n  pop\n    /* \"#utility.yul\":7409:7598   */\n  pop\n  pop\n  jump\t// out\n    /* \"#utility.yul\":7604:7790   */\ntag_49:\n    /* \"#utility.yul\":7664:7784   */\ntag_142:\n    /* \"#utility.yul\":7681:7684   */\n  dup2\n    /* \"#utility.yul\":7674:7679   */\n  dup2\n    /* \"#utility.yul\":7671:7685   */\n  lt\n    /* \"#utility.yul\":7664:7784   */\n  iszero\n  tag_144\n  jumpi\n    /* \"#utility.yul\":7735:7774   */\n  tag_145\n    /* \"#utility.yul\":7772:7773   */\n  0x00\n    /* \"#utility.yul\":7765:7770   */\n  dup3\n    /* \"#utility.yul\":7735:7774   */\n  tag_48\n  jump\t// in\ntag_145:\n    /* \"#utility.yul\":7708:7709   */\n  0x01\n    /* \"#utility.yul\":7701:7706   */\n  dup2\n    /* \"#utility.yul\":7697:7710   */\n  add\n    /* \"#utility.yul\":7688:7710   */\n  swap1\n  pop\n    /* \"#utility.yul\":7664:7784   */\n  jump(tag_142)\ntag_144:\n    /* \"#utility.yul\":7604:7790   */\n  pop\n  pop\n  jump\t// out\n    /* \"#utility.yul\":7796:8339   */\ntag_50:\n    /* \"#utility.yul\":7897:7899   */\n  0x1f\n    /* \"#utility.yul\":7892:7895   */\n  dup3\n    /* \"#utility.yul\":7889:7900   */\n  gt\n    /* \"#utility.yul\":7886:8332   */\n  iszero\n  tag_147\n  jumpi\n    /* \"#utility.yul\":7931:7969   */\n  tag_148\n    /* \"#utility.yul\":7963:7968   */\n  dup2\n    /* \"#utility.yul\":7931:7969   */\n  tag_38\n  jump\t// in\ntag_148:\n    /* \"#utility.yul\":8015:8044   */\n  tag_149\n    /* \"#utility.yul\":8033:8043   */\n  dup5\n    /* \"#utility.yul\":8015:8044   */\n  tag_39\n  jump\t// in\ntag_149:\n    /* \"#utility.yul\":8005:8013   */\n  dup2\n    /* \"#utility.yul\":8001:8045   */\n  add\n    /* \"#utility.yul\":8198:8200   */\n  0x20\n    /* \"#utility.yul\":8186:8196   */\n  dup6\n    /* \"#utility.yul\":8183:8201   */\n  lt\n    /* \"#utility.yul\":8180:8229   */\n  iszero\n  tag_150\n  jumpi\n    /* \"#utility.yul\":8219:8227   */\n  dup2\n    /* \"#utility.yul\":8204:8227   */\n  swap1\n  pop\n    /* \"#utility.yul\":8180:8229   */\ntag_150:\n    /* \"#utility.yul\":8242:8322   */\n  tag_151\n    /* \"#utility.yul\":8298:8320   */\n  tag_152\n    /* \"#utility.yul\":8316:8319   */\n  dup6\n    /* \"#utility.yul\":8298:8320   */\n  tag_39\n  jump\t// in\ntag_152:\n    /* \"#utility.yul\":8288:8296   */\n  dup4\n    /* \"#utility.yul\":8284:8321   */\n  add\n    /* \"#utility.yul\":8271:8282   */\n  dup3\n    /* \"#utility.yul\":8242:8322   */\n  tag_49\n  jump\t// in\ntag_151:\n    /* \"#utility.yul\":7901:8332   */\n  pop\n  pop\n    /* \"#utility.yul\":7886:8332   */\ntag_147:\n    /* \"#utility.yul\":7796:8339   */\n  pop\n  pop\n  pop\n  jump\t// out\n    /* \"#utility.yul\":8345:8462   */\ntag_51:\n    /* \"#utility.yul\":8399:8407   */\n  0x00\n    /* \"#utility.yul\":8449:8454   */\n  dup3\n    /* \"#utility.yul\":8443:8447   */\n  dup3\n    /* \"#utility.yul\":8439:8455   */\n  shr\n    /* \"#utility.yul\":8418:8455   */\n  swap1\n  pop\n    /* \"#utility.yul\":8345:8462   */\n  swap3\n  swap2\n  pop\n  pop\n  jump\t// out\n    /* \"#utility.yul\":8468:8637   */\ntag_52:\n    /* \"#utility.yul\":8512:8518   */\n  0x00\n    /* \"#utility.yul\":8545:8596   */\n  tag_155\n    /* \"#utility.yul\":8593:8594   */\n  0x00\n    /* \"#utility.yul\":8589:8595   */\n  not\n    /* \"#utility.yul\":8581:8586   */\n  dup5\n    /* \"#utility.yul\":8578:8579   */\n  0x08\n    /* \"#utility.yul\":8574:8587   */\n  mul\n    /* \"#utility.yul\":8545:8596   */\n  tag_51\n  jump\t// in\ntag_155:\n    /* \"#utility.yul\":8541:8597   */\n  not\n    /* \"#utility.yul\":8626:8630   */\n  dup1\n    /* \"#utility.yul\":8620:8624   */\n  dup4\n    /* \"#utility.yul\":8616:8631   */\n  and\n    /* \"#utility.yul\":8606:8631   */\n  swap2\n  pop\n    /* \"#utility.yul\":8519:8637   */\n  pop\n    /* \"#utility.yul\":8468:8637   */\n  swap3\n  swap2\n  pop\n  pop\n  jump\t// out\n    /* \"#utility.yul\":8642:8937   */\ntag_53:\n    /* \"#utility.yul\":8718:8722   */\n  0x00\n    /* \"#utility.yul\":8864:8893   */\n  tag_157\n    /* \"#utility.yul\":8889:8892   */\n  dup4\n    /* \"#utility.yul\":8883:8887   */\n  dup4\n    /* \"#utility.yul\":8864:8893   */\n  tag_52\n  jump\t// in\ntag_157:\n    /* \"#utility.yul\":8856:8893   */\n  swap2\n  pop\n    /* \"#utility.yul\":8926:8929   */\n  dup3\n    /* \"#utility.yul\":8923:8924   */\n  0x02\n    /* \"#utility.yul\":8919:8930   */\n  mul\n    /* \"#utility.yul\":8913:8917   */\n  dup3\n    /* \"#utility.yul\":8910:8931   */\n  or\n    /* \"#utility.yul\":8902:8931   */\n  swap1\n  pop\n    /* \"#utility.yul\":8642:8937   */\n  swap3\n  swap2\n  pop\n  pop\n  jump\t// out\n    /* \"#utility.yul\":8942:10337   */\ntag_14:\n    /* \"#utility.yul\":9059:9096   */\n  tag_159\n    /* \"#utility.yul\":9092:9095   */\n  dup3\n    /* \"#utility.yul\":9059:9096   */\n  tag_35\n  jump\t// in\ntag_159:\n    /* \"#utility.yul\":9161:9179   */\n  0xffffffffffffffff\n    /* \"#utility.yul\":9153:9159   */\n  dup2\n    /* \"#utility.yul\":9150:9180   */\n  gt\n    /* \"#utility.yul\":9147:9203   */\n  iszero\n  tag_160\n  jumpi\n    /* \"#utility.yul\":9183:9201   */\n  tag_161\n  tag_23\n  jump\t// in\ntag_161:\n    /* \"#utility.yul\":9147:9203   */\ntag_160:\n    /* \"#utility.yul\":9227:9265   */\n  tag_162\n    /* \"#utility.yul\":9259:9263   */\n  dup3\n    /* \"#utility.yul\":9253:9264   */\n  sload\n    /* \"#utility.yul\":9227:9265   */\n  tag_37\n  jump\t// in\ntag_162:\n    /* \"#utility.yul\":9312:9379   */\n  tag_163\n    /* \"#utility.yul\":9372:9378   */\n  dup3\n    /* \"#utility.yul\":9364:9370   */\n  dup3\n    /* \"#utility.yul\":9358:9362   */\n  dup6\n    /* \"#utility.yul\":9312:9379   */\n  tag_50\n  jump\t// in\ntag_163:\n    /* \"#utility.yul\":9406:9407   */\n  0x00\n    /* \"#utility.yul\":9430:9434   */\n  0x20\n    /* \"#utility.yul\":9417:9434   */\n  swap1\n  pop\n    /* \"#utility.yul\":9462:9464   */\n  0x1f\n    /* \"#utility.yul\":9454:9460   */\n  dup4\n    /* \"#utility.yul\":9451:9465   */\n  gt\n    /* \"#utility.yul\":9479:9480   */\n  0x01\n    /* \"#utility.yul\":9474:10092   */\n  dup2\n  eq\n  tag_165\n  jumpi\n    /* \"#utility.yul\":10136:10137   */\n  0x00\n    /* \"#utility.yul\":10153:10159   */\n  dup5\n    /* \"#utility.yul\":10150:10227   */\n  iszero\n  tag_166\n  jumpi\n    /* \"#utility.yul\":10202:10211   */\n  dup3\n    /* \"#utility.yul\":10197:10200   */\n  dup8\n    /* \"#utility.yul\":10193:10212   */\n  add\n    /* \"#utility.yul\":10187:10213   */\n  mload\n    /* \"#utility.yul\":10178:10213   */\n  swap1\n  pop\n    /* \"#utility.yul\":10150:10227   */\ntag_166:\n    /* \"#utility.yul\":10253:10320   */\n  tag_167\n    /* \"#utility.yul\":10313:10319   */\n  dup6\n    /* \"#utility.yul\":10306:10311   */\n  dup3\n    /* \"#utility.yul\":10253:10320   */\n  tag_53\n  jump\t// in\ntag_167:\n    /* \"#utility.yul\":10247:10251   */\n  dup7\n    /* \"#utility.yul\":10240:10321   */\n  sstore\n    /* \"#utility.yul\":10109:10331   */\n  pop\n    /* \"#utility.yul\":9444:10331   */\n  jump(tag_164)\n    /* \"#utility.yul\":9474:10092   */\ntag_165:\n    /* \"#utility.yul\":9526:9530   */\n  0x1f\n    /* \"#utility.yul\":9522:9531   */\n  not\n    /* \"#utility.yul\":9514:9520   */\n  dup5\n    /* \"#utility.yul\":9510:9532   */\n  and\n    /* \"#utility.yul\":9560:9597   */\n  tag_168\n    /* \"#utility.yul\":9592:9596   */\n  dup7\n    /* \"#utility.yul\":9560:9597   */\n  tag_38\n  jump\t// in\ntag_168:\n    /* \"#utility.yul\":9619:9620   */\n  0x00\n    /* \"#utility.yul\":9633:9841   */\ntag_169:\n    /* \"#utility.yul\":9647:9654   */\n  dup3\n    /* \"#utility.yul\":9644:9645   */\n  dup2\n    /* \"#utility.yul\":9641:9655   */\n  lt\n    /* \"#utility.yul\":9633:9841   */\n  iszero\n  tag_171\n  jumpi\n    /* \"#utility.yul\":9726:9735   */\n  dup5\n    /* \"#utility.yul\":9721:9724   */\n  dup10\n    /* \"#utility.yul\":9717:9736   */\n  add\n    /* \"#utility.yul\":9711:9737   */\n  mload\n    /* \"#utility.yul\":9703:9709   */\n  dup3\n    /* \"#utility.yul\":9696:9738   */\n  sstore\n    /* \"#utility.yul\":9777:9778   */\n  0x01\n    /* \"#utility.yul\":9769:9775   */\n  dup3\n    /* \"#utility.yul\":9765:9779   */\n  add\n    /* \"#utility.yul\":9755:9779   */\n  swap2\n  pop\n    /* \"#utility.yul\":9824:9826   */\n  0x20\n    /* \"#utility.yul\":9813:9822   */\n  dup6\n    /* \"#utility.yul\":9809:9827   */\n  add\n    /* \"#utility.yul\":9796:9827   */\n  swap5\n  pop\n    /* \"#utility.yul\":9670:9674   */\n  0x20\n    /* \"#utility.yul\":9667:9668   */\n  dup2\n    /* \"#utility.yul\":9663:9675   */\n  add\n    /* \"#utility.yul\":9658:9675   */\n  swap1\n  pop\n    /* \"#utility.yul\":9633:9841   */\n  jump(tag_169)\ntag_171:\n    /* \"#utility.yul\":9869:9875   */\n  dup7\n    /* \"#utility.yul\":9860:9867   */\n  dup4\n    /* \"#utility.yul\":9857:9876   */\n  lt\n    /* \"#utility.yul\":9854:10033   */\n  iszero\n  tag_172\n  jumpi\n    /* \"#utility.yul\":9927:9936   */\n  dup5\n    /* \"#utility.yul\":9922:9925   */\n  dup10\n    /* \"#utility.yul\":9918:9937   */\n  add\n    /* \"#utility.yul\":9912:9938   */\n  mload\n    /* \"#utility.yul\":9970:10018   */\n  tag_173\n    /* \"#utility.yul\":10012:10016   */\n  0x1f\n    /* \"#utility.yul\":10004:10010   */\n  dup10\n    /* \"#utility.yul\":10000:10017   */\n  and\n    /* \"#utility.yul\":9989:9998   */\n  dup3\n    /* \"#utility.yul\":9970:10018   */\n  tag_52\n  jump\t// in\ntag_173:\n    /* \"#utility.yul\":9962:9968   */\n  dup4\n    /* \"#utility.yul\":9955:10019   */\n  sstore\n    /* \"#utility.yul\":9877:10033   */\n  pop\n    /* \"#utility.yul\":9854:10033   */\ntag_172:\n    /* \"#utility.yul\":10079:10080   */\n  0x01\n    /* \"#utility.yul\":10075:10076   */\n  0x02\n    /* \"#utility.yul\":10067:10073   */\n  dup9\n    /* \"#utility.yul\":10063:10077   */\n  mul\n    /* \"#utility.yul\":10059:10081   */\n  add\n    /* \"#utility.yul\":10053:10057   */\n  dup9\n    /* \"#utility.yul\":10046:10082   */\n  sstore\n    /* \"#utility.yul\":9481:10092   */\n  pop\n  pop\n  pop\n    /* \"#utility.yul\":9444:10331   */\ntag_164:\n  pop\n    /* \"#utility.yul\":9034:10337   */\n  pop\n  pop\n  pop\n    /* \"#utility.yul\":8942:10337   */\n  pop\n  pop\n  jump\t// out\n    /* \"#utility.yul\":10343:10523   */\ntag_54:\n    /* \"#utility.yul\":10391:10468   */\n  0x4e487b7100000000000000000000000000000000000000000000000000000000\n    /* \"#utility.yul\":10388:10389   */\n  0x00\n    /* \"#utility.yul\":10381:10469   */\n  mstore\n    /* \"#utility.yul\":10488:10492   */\n  0x11\n    /* \"#utility.yul\":10485:10486   */\n  0x04\n    /* \"#utility.yul\":10478:10493   */\n  mstore\n    /* \"#utility.yul\":10512:10516   */\n  0x24\n    /* \"#utility.yul\":10509:10510   */\n  0x00\n    /* \"#utility.yul\":10502:10517   */\n  revert\n    /* \"#utility.yul\":10529:10762   */\ntag_16:\n    /* \"#utility.yul\":10568:10571   */\n  0x00\n    /* \"#utility.yul\":10591:10615   */\n  tag_176\n    /* \"#utility.yul\":10609:10614   */\n  dup3\n    /* \"#utility.yul\":10591:10615   */\n  tag_42\n  jump\t// in\ntag_176:\n    /* \"#utility.yul\":10582:10615   */\n  swap2\n  pop\n    /* \"#utility.yul\":10637:10703   */\n  0xffffffffffffffffffffffffffffffffffffffffffffffffffffffffffffffff\n    /* \"#utility.yul\":10630:10635   */\n  dup3\n    /* \"#utility.yul\":10627:10704   */\n  sub\n    /* \"#utility.yul\":10624:10727   */\n  tag_177\n  jumpi\n    /* \"#utility.yul\":10707:10725   */\n  tag_178\n  tag_54\n  jump\t// in\ntag_178:\n    /* \"#utility.yul\":10624:10727   */\ntag_177:\n    /* \"#utility.yul\":10754:10755   */\n  0x01\n    /* \"#utility.yul\":10747:10752   */\n  dup3\n    /* \"#utility.yul\":10743:10756   */\n  add\n    /* \"#utility.yul\":10736:10756   */\n  swap1\n  pop\n    /* \"#utility.yul\":10529:10762   */\n  swap2\n  swap1\n  pop\n  jump\t// out\n    /* \"contracts/Votacion.sol\":70:3885  contract Votacion {... */\ntag_17:\n  dataSize(sub_0)\n  dup1\n  dataOffset(sub_0)\n  0x00\n  codecopy\n  0x00\n  return\nstop\n\nsub_0: assembly {\n        /* \"contracts/Votacion.sol\":70:3885  contract Votacion {... */\n      mstore(0x40, 0x80)\n      callvalue\n      dup1\n      iszero\n      tag_1\n      jumpi\n      0x00\n      dup1\n      revert\n    tag_1:\n      pop\n      jumpi(tag_2, lt(calldatasize, 0x04))\n      shr(0xe0, calldataload(0x00))\n      dup1\n      0x437a88a3\n      gt\n      tag_10\n      jumpi\n      dup1\n      0x437a88a3\n      eq\n      tag_6\n      jumpi\n      dup1\n      0x92ebdcd2\n      eq\n      tag_7\n      jumpi\n      dup1\n      0xa92284d0\n      eq\n      tag_8\n      jumpi\n      dup1\n      0xc270cb52\n      eq\n      tag_9\n      jumpi\n      jump(tag_2)\n    tag_10:\n      dup1\n      0x17262d8a\n      eq\n      tag_3\n      jumpi\n      dup1\n      0x21606831\n      eq\n      tag_4\n      jumpi\n      dup1\n      0x25277cc0\n      eq\n      tag_5\n      jumpi\n    tag_2:\n      0x00\n      dup1\n      revert\n        /* \"contracts/Votacion.sol\":585:609  Opcion[] public opciones */\n    tag_3:\n      tag_11\n      0x04\n      dup1\n      calldatasize\n      sub\n      dup2\n      add\n      swap1\n      tag_12\n      swap2\n      swap1\n      tag_13\n      jump\t// in\n    tag_12:\n      tag_14\n      jump\t// in\n    tag_11:\n      mload(0x40)\n      tag_15\n      swap3\n      swap2\n      swap1\n      tag_16\n      jump\t// in\n    tag_15:\n      mload(0x40)\n      dup1\n      swap2\n      sub\n      swap1\n      return\n        /* \"contracts/Votacion.sol\":2511:2910  function votar(uint opcion) external {... */\n    tag_4:\n      tag_17\n      0x04\n      dup1\n      calldatasize\n      sub\n      dup2\n      add\n      swap1\n      tag_18\n      swap2\n      swap1\n      tag_13\n      jump\t// in\n    tag_18:\n      tag_19\n      jump\t// in\n    tag_17:\n      stop\n        /* \"contracts/Votacion.sol\":3595:3876  function verResultado() external view returns(string memory opcionGanadora, uint numeroVotosGanador){... */\n    tag_5:\n      tag_20\n      tag_21\n      jump\t// in\n    tag_20:\n      mload(0x40)\n      tag_22\n      swap3\n      swap2\n      swap1\n      tag_16\n      jump\t// in\n    tag_22:\n      mload(0x40)\n      dup1\n      swap2\n      sub\n      swap1\n      return\n        /* \"contracts/Votacion.sol\":3004:3507  function terminaVotacion() external esCreador() {... */\n    tag_6:\n      tag_23\n      tag_24\n      jump\t// in\n    tag_23:\n      stop\n        /* \"contracts/Votacion.sol\":467:489  address public creador */\n    tag_7:\n      tag_25\n      tag_26\n      jump\t// in\n    tag_25:\n      mload(0x40)\n      tag_27\n      swap2\n      swap1\n      tag_28\n      jump\t// in\n    tag_27:\n      mload(0x40)\n      dup1\n      swap2\n      sub\n      swap1\n      return\n        /* \"contracts/Votacion.sol\":522:565  mapping(address => Votante) public votantes */\n    tag_8:\n      tag_29\n      0x04\n      dup1\n      calldatasize\n      sub\n      dup2\n      add\n      swap1\n      tag_30\n      swap2\n      swap1\n      tag_31\n      jump\t// in\n    tag_30:\n      tag_32\n      jump\t// in\n    tag_29:\n      mload(0x40)\n      tag_33\n      swap4\n      swap3\n      swap2\n      swap1\n      tag_34\n      jump\t// in\n    tag_33:\n      mload(0x40)\n      dup1\n      swap2\n      sub\n      swap1\n      return\n        /* \"contracts/Votacion.sol\":1748:2324  function agregarVotantes(address[] memory _votantes) external esCreador() {... */\n    tag_9:\n      tag_35\n      0x04\n      dup1\n      calldatasize\n      sub\n      dup2\n      add\n      swap1\n      tag_36\n      swap2\n      swap1\n      tag_37\n      jump\t// in\n    tag_36:\n      tag_38\n      jump\t// in\n    tag_35:\n      stop\n        /* \"contracts/Votacion.sol\":585:609  Opcion[] public opciones */\n    tag_14:\n      0x02\n      dup2\n      dup2\n      sload\n      dup2\n      lt\n      tag_39\n      jumpi\n      0x00\n      dup1\n      revert\n    tag_39:\n      swap1\n      0x00\n      mstore\n      keccak256(0x00, 0x20)\n      swap1\n      0x02\n      mul\n      add\n      0x00\n      swap2\n      pop\n      swap1\n      pop\n      dup1\n      0x00\n      add\n      dup1\n      sload\n      tag_41\n      swap1\n      tag_42\n      jump\t// in\n    tag_41:\n      dup1\n      0x1f\n      add\n      0x20\n      dup1\n      swap2\n      div\n      mul\n      0x20\n      add\n      mload(0x40)\n      swap1\n      dup2\n      add\n      0x40\n      mstore\n      dup1\n      swap3\n      swap2\n      swap1\n      dup2\n      dup2\n      mstore\n      0x20\n      add\n      dup3\n      dup1\n      sload\n      tag_43\n      swap1\n      tag_42\n      jump\t// in\n    tag_43:\n      dup1\n      iszero\n      tag_44\n      jumpi\n      dup1\n      0x1f\n      lt\n      tag_45\n      jumpi\n      0x0100\n      dup1\n      dup4\n      sload\n      div\n      mul\n      dup4\n      mstore\n      swap2\n      0x20\n      add\n      swap2\n      jump(tag_44)\n    tag_45:\n      dup3\n      add\n      swap2\n      swap1\n      0x00\n      mstore\n      keccak256(0x00, 0x20)\n      swap1\n    tag_46:\n      dup2\n      sload\n      dup2\n      mstore\n      swap1\n      0x01\n      add\n      swap1\n      0x20\n      add\n      dup1\n      dup4\n      gt\n      tag_46\n      jumpi\n      dup3\n      swap1\n      sub\n      0x1f\n      and\n      dup3\n      add\n      swap2\n    tag_44:\n      pop\n      pop\n      pop\n      pop\n      pop\n      swap1\n      dup1\n      0x01\n      add\n      sload\n      swap1\n      pop\n      dup3\n      jump\t// out\n        /* \"contracts/Votacion.sol\":2511:2910  function votar(uint opcion) external {... */\n    tag_19:\n        /* \"contracts/Votacion.sol\":2559:2581  Votante storage sender */\n      0x00\n        /* \"contracts/Votacion.sol\":2584:2592  votantes */\n      0x01\n        /* \"contracts/Votacion.sol\":2584:2604  votantes[msg.sender] */\n      0x00\n        /* \"contracts/Votacion.sol\":2593:2603  msg.sender */\n      caller\n        /* \"contracts/Votacion.sol\":2584:2604  votantes[msg.sender] */\n      0xffffffffffffffffffffffffffffffffffffffff\n      and\n      0xffffffffffffffffffffffffffffffffffffffff\n      and\n      dup2\n      mstore\n      0x20\n      add\n      swap1\n      dup2\n      mstore\n      0x20\n      add\n      0x00\n      keccak256\n        /* \"contracts/Votacion.sol\":2559:2604  Votante storage sender = votantes[msg.sender] */\n      swap1\n      pop\n        /* \"contracts/Votacion.sol\":2638:2639  0 */\n      0x00\n        /* \"contracts/Votacion.sol\":2623:2629  sender */\n      dup2\n        /* \"contracts/Votacion.sol\":2623:2634  sender.peso */\n      0x02\n      add\n      sload\n        /* \"contracts/Votacion.sol\":2623:2639  sender.peso != 0 */\n      sub\n        /* \"contracts/Votacion.sol\":2615:2669  require(sender.peso != 0, \"No tienes derecho a votar\") */\n      tag_48\n      jumpi\n      mload(0x40)\n      0x08c379a000000000000000000000000000000000000000000000000000000000\n      dup2\n      mstore\n      0x04\n      add\n      tag_49\n      swap1\n      tag_50\n      jump\t// in\n    tag_49:\n      mload(0x40)\n      dup1\n      swap2\n      sub\n      swap1\n      revert\n    tag_48:\n        /* \"contracts/Votacion.sol\":2689:2700  haTerminado */\n      0x03\n      0x00\n      swap1\n      sload\n      swap1\n      0x0100\n      exp\n      swap1\n      div\n      0xff\n      and\n        /* \"contracts/Votacion.sol\":2688:2700  !haTerminado */\n      iszero\n        /* \"contracts/Votacion.sol\":2680:2729  require(!haTerminado, \"La votacion ha terminado\") */\n      tag_51\n      jumpi\n      mload(0x40)\n      0x08c379a000000000000000000000000000000000000000000000000000000000\n      dup2\n      mstore\n      0x04\n      add\n      tag_52\n      swap1\n      tag_53\n      jump\t// in\n    tag_52:\n      mload(0x40)\n      dup1\n      swap2\n      sub\n      swap1\n      revert\n    tag_51:\n        /* \"contracts/Votacion.sol\":2749:2755  sender */\n      dup1\n        /* \"contracts/Votacion.sol\":2749:2764  sender.haVotado */\n      0x00\n      add\n      0x00\n      swap1\n      sload\n      swap1\n      0x0100\n      exp\n      swap1\n      div\n      0xff\n      and\n        /* \"contracts/Votacion.sol\":2748:2764  !sender.haVotado */\n      iszero\n        /* \"contracts/Votacion.sol\":2740:2782  require(!sender.haVotado, \"Ya has votado\") */\n      tag_54\n      jumpi\n      mload(0x40)\n      0x08c379a000000000000000000000000000000000000000000000000000000000\n      dup2\n      mstore\n      0x04\n      add\n      tag_55\n      swap1\n      tag_56\n      jump\t// in\n    tag_55:\n      mload(0x40)\n      dup1\n      swap2\n      sub\n      swap1\n      revert\n    tag_54:\n        /* \"contracts/Votacion.sol\":2811:2815  true */\n      0x01\n        /* \"contracts/Votacion.sol\":2793:2799  sender */\n      dup2\n        /* \"contracts/Votacion.sol\":2793:2808  sender.haVotado */\n      0x00\n      add\n      0x00\n        /* \"contracts/Votacion.sol\":2793:2815  sender.haVotado = true */\n      0x0100\n      exp\n      dup2\n      sload\n      dup2\n      0xff\n      mul\n      not\n      and\n      swap1\n      dup4\n      iszero\n      iszero\n      mul\n      or\n      swap1\n      sstore\n      pop\n        /* \"contracts/Votacion.sol\":2840:2846  opcion */\n      dup2\n        /* \"contracts/Votacion.sol\":2826:2832  sender */\n      dup2\n        /* \"contracts/Votacion.sol\":2826:2837  sender.voto */\n      0x01\n      add\n        /* \"contracts/Votacion.sol\":2826:2846  sender.voto = opcion */\n      dup2\n      swap1\n      sstore\n      pop\n        /* \"contracts/Votacion.sol\":2891:2897  sender */\n      dup1\n        /* \"contracts/Votacion.sol\":2891:2902  sender.peso */\n      0x02\n      add\n      sload\n        /* \"contracts/Votacion.sol\":2859:2867  opciones */\n      0x02\n        /* \"contracts/Votacion.sol\":2868:2874  opcion */\n      dup4\n        /* \"contracts/Votacion.sol\":2859:2875  opciones[opcion] */\n      dup2\n      sload\n      dup2\n      lt\n      tag_57\n      jumpi\n      tag_58\n      tag_59\n      jump\t// in\n    tag_58:\n    tag_57:\n      swap1\n      0x00\n      mstore\n      keccak256(0x00, 0x20)\n      swap1\n      0x02\n      mul\n      add\n        /* \"contracts/Votacion.sol\":2859:2887  opciones[opcion].numeroVotos */\n      0x01\n      add\n      0x00\n        /* \"contracts/Votacion.sol\":2859:2902  opciones[opcion].numeroVotos += sender.peso */\n      dup3\n      dup3\n      sload\n      tag_61\n      swap2\n      swap1\n      tag_62\n      jump\t// in\n    tag_61:\n      swap3\n      pop\n      pop\n      dup2\n      swap1\n      sstore\n      pop\n        /* \"contracts/Votacion.sol\":2548:2910  {... */\n      pop\n        /* \"contracts/Votacion.sol\":2511:2910  function votar(uint opcion) external {... */\n      pop\n      jump\t// out\n        /* \"contracts/Votacion.sol\":3595:3876  function verResultado() external view returns(string memory opcionGanadora, uint numeroVotosGanador){... */\n    tag_21:\n        /* \"contracts/Votacion.sol\":3641:3669  string memory opcionGanadora */\n      0x60\n        /* \"contracts/Votacion.sol\":3671:3694  uint numeroVotosGanador */\n      0x00\n        /* \"contracts/Votacion.sol\":3714:3725  haTerminado */\n      0x03\n      0x00\n      swap1\n      sload\n      swap1\n      0x0100\n      exp\n      swap1\n      div\n      0xff\n      and\n        /* \"contracts/Votacion.sol\":3706:3779  require(haTerminado, \"No se puede ver los resultados antes de finalizar\") */\n      tag_64\n      jumpi\n      mload(0x40)\n      0x08c379a000000000000000000000000000000000000000000000000000000000\n      dup2\n      mstore\n      0x04\n      add\n      tag_65\n      swap1\n      tag_66\n      jump\t// in\n    tag_65:\n      mload(0x40)\n      dup1\n      swap2\n      sub\n      swap1\n      revert\n    tag_64:\n        /* \"contracts/Votacion.sol\":3807:3814  ganador */\n      0x04\n        /* \"contracts/Votacion.sol\":3790:3814  opcionGanadora = ganador */\n      dup1\n      sload\n      tag_67\n      swap1\n      tag_42\n      jump\t// in\n    tag_67:\n      dup1\n      0x1f\n      add\n      0x20\n      dup1\n      swap2\n      div\n      mul\n      0x20\n      add\n      mload(0x40)\n      swap1\n      dup2\n      add\n      0x40\n      mstore\n      dup1\n      swap3\n      swap2\n      swap1\n      dup2\n      dup2\n      mstore\n      0x20\n      add\n      dup3\n      dup1\n      sload\n      tag_68\n      swap1\n      tag_42\n      jump\t// in\n    tag_68:\n      dup1\n      iszero\n      tag_69\n      jumpi\n      dup1\n      0x1f\n      lt\n      tag_70\n      jumpi\n      0x0100\n      dup1\n      dup4\n      sload\n      div\n      mul\n      dup4\n      mstore\n      swap2\n      0x20\n      add\n      swap2\n      jump(tag_69)\n    tag_70:\n      dup3\n      add\n      swap2\n      swap1\n      0x00\n      mstore\n      keccak256(0x00, 0x20)\n      swap1\n    tag_71:\n      dup2\n      sload\n      dup2\n      mstore\n      swap1\n      0x01\n      add\n      swap1\n      0x20\n      add\n      dup1\n      dup4\n      gt\n      tag_71\n      jumpi\n      dup3\n      swap1\n      sub\n      0x1f\n      and\n      dup3\n      add\n      swap2\n    tag_69:\n      pop\n      pop\n      pop\n      pop\n      pop\n      swap2\n      pop\n        /* \"contracts/Votacion.sol\":3846:3858  votosGanador */\n      sload(0x05)\n        /* \"contracts/Votacion.sol\":3825:3858  numeroVotosGanador = votosGanador */\n      swap1\n      pop\n        /* \"contracts/Votacion.sol\":3595:3876  function verResultado() external view returns(string memory opcionGanadora, uint numeroVotosGanador){... */\n      swap1\n      swap2\n      jump\t// out\n        /* \"contracts/Votacion.sol\":3004:3507  function terminaVotacion() external esCreador() {... */\n    tag_24:\n        /* \"contracts/Votacion.sol\":916:923  creador */\n      0x00\n      dup1\n      sload\n      swap1\n      0x0100\n      exp\n      swap1\n      div\n      0xffffffffffffffffffffffffffffffffffffffff\n      and\n        /* \"contracts/Votacion.sol\":902:923  msg.sender == creador */\n      0xffffffffffffffffffffffffffffffffffffffff\n      and\n        /* \"contracts/Votacion.sol\":902:912  msg.sender */\n      caller\n        /* \"contracts/Votacion.sol\":902:923  msg.sender == creador */\n      0xffffffffffffffffffffffffffffffffffffffff\n      and\n      eq\n        /* \"contracts/Votacion.sol\":894:986  require(msg.sender == creador, \"Solo el creador puede utilizar esta funcion de la votacion\") */\n      tag_73\n      jumpi\n      mload(0x40)\n      0x08c379a000000000000000000000000000000000000000000000000000000000\n      dup2\n      mstore\n      0x04\n      add\n      tag_74\n      swap1\n      tag_75\n      jump\t// in\n    tag_74:\n      mload(0x40)\n      dup1\n      swap2\n      sub\n      swap1\n      revert\n    tag_73:\n        /* \"contracts/Votacion.sol\":3077:3081  true */\n      0x01\n        /* \"contracts/Votacion.sol\":3063:3074  haTerminado */\n      0x03\n      0x00\n        /* \"contracts/Votacion.sol\":3063:3081  haTerminado = true */\n      0x0100\n      exp\n      dup2\n      sload\n      dup2\n      0xff\n      mul\n      not\n      and\n      swap1\n      dup4\n      iszero\n      iszero\n      mul\n      or\n      swap1\n      sstore\n      pop\n        /* \"contracts/Votacion.sol\":3092:3115  uint numeroVotosGanador */\n      0x00\n        /* \"contracts/Votacion.sol\":3130:3158  string memory opcionGanadora */\n      0x60\n        /* \"contracts/Votacion.sol\":3174:3180  uint o */\n      0x00\n        /* \"contracts/Votacion.sol\":3169:3421  for (uint o = 0; o < opciones.length; o++) {... */\n    tag_77:\n        /* \"contracts/Votacion.sol\":3190:3198  opciones */\n      0x02\n        /* \"contracts/Votacion.sol\":3190:3205  opciones.length */\n      dup1\n      sload\n      swap1\n      pop\n        /* \"contracts/Votacion.sol\":3186:3187  o */\n      dup2\n        /* \"contracts/Votacion.sol\":3186:3205  o < opciones.length */\n      lt\n        /* \"contracts/Votacion.sol\":3169:3421  for (uint o = 0; o < opciones.length; o++) {... */\n      iszero\n      tag_78\n      jumpi\n        /* \"contracts/Votacion.sol\":3257:3275  numeroVotosGanador */\n      dup3\n        /* \"contracts/Votacion.sol\":3231:3239  opciones */\n      0x02\n        /* \"contracts/Votacion.sol\":3240:3241  o */\n      dup3\n        /* \"contracts/Votacion.sol\":3231:3242  opciones[o] */\n      dup2\n      sload\n      dup2\n      lt\n      tag_80\n      jumpi\n      tag_81\n      tag_59\n      jump\t// in\n    tag_81:\n    tag_80:\n      swap1\n      0x00\n      mstore\n      keccak256(0x00, 0x20)\n      swap1\n      0x02\n      mul\n      add\n        /* \"contracts/Votacion.sol\":3231:3254  opciones[o].numeroVotos */\n      0x01\n      add\n      sload\n        /* \"contracts/Votacion.sol\":3231:3275  opciones[o].numeroVotos > numeroVotosGanador */\n      gt\n        /* \"contracts/Votacion.sol\":3227:3410  if (opciones[o].numeroVotos > numeroVotosGanador) {... */\n      iszero\n      tag_83\n      jumpi\n        /* \"contracts/Votacion.sol\":3317:3325  opciones */\n      0x02\n        /* \"contracts/Votacion.sol\":3326:3327  o */\n      dup2\n        /* \"contracts/Votacion.sol\":3317:3328  opciones[o] */\n      dup2\n      sload\n      dup2\n      lt\n      tag_84\n      jumpi\n      tag_85\n      tag_59\n      jump\t// in\n    tag_85:\n    tag_84:\n      swap1\n      0x00\n      mstore\n      keccak256(0x00, 0x20)\n      swap1\n      0x02\n      mul\n      add\n        /* \"contracts/Votacion.sol\":3317:3340  opciones[o].numeroVotos */\n      0x01\n      add\n      sload\n        /* \"contracts/Votacion.sol\":3296:3340  numeroVotosGanador = opciones[o].numeroVotos */\n      swap3\n      pop\n        /* \"contracts/Votacion.sol\":3376:3384  opciones */\n      0x02\n        /* \"contracts/Votacion.sol\":3385:3386  o */\n      dup2\n        /* \"contracts/Votacion.sol\":3376:3387  opciones[o] */\n      dup2\n      sload\n      dup2\n      lt\n      tag_87\n      jumpi\n      tag_88\n      tag_59\n      jump\t// in\n    tag_88:\n    tag_87:\n      swap1\n      0x00\n      mstore\n      keccak256(0x00, 0x20)\n      swap1\n      0x02\n      mul\n      add\n        /* \"contracts/Votacion.sol\":3376:3394  opciones[o].nombre */\n      0x00\n      add\n        /* \"contracts/Votacion.sol\":3359:3394  opcionGanadora = opciones[o].nombre */\n      dup1\n      sload\n      tag_90\n      swap1\n      tag_42\n      jump\t// in\n    tag_90:\n      dup1\n      0x1f\n      add\n      0x20\n      dup1\n      swap2\n      div\n      mul\n      0x20\n      add\n      mload(0x40)\n      swap1\n      dup2\n      add\n      0x40\n      mstore\n      dup1\n      swap3\n      swap2\n      swap1\n      dup2\n      dup2\n      mstore\n      0x20\n      add\n      dup3\n      dup1\n      sload\n      tag_91\n      swap1\n      tag_42\n      jump\t// in\n    tag_91:\n      dup1\n      iszero\n      tag_92\n      jumpi\n      dup1\n      0x1f\n      lt\n      tag_93\n      jumpi\n      0x0100\n      dup1\n      dup4\n      sload\n      div\n      mul\n      dup4\n      mstore\n      swap2\n      0x20\n      add\n      swap2\n      jump(tag_92)\n    tag_93:\n      dup3\n      add\n      swap2\n      swap1\n      0x00\n      mstore\n      keccak256(0x00, 0x20)\n      swap1\n    tag_94:\n      dup2\n      sload\n      dup2\n      mstore\n      swap1\n      0x01\n      add\n      swap1\n      0x20\n      add\n      dup1\n      dup4\n      gt\n      tag_94\n      jumpi\n      dup3\n      swap1\n      sub\n      0x1f\n      and\n      dup3\n      add\n      swap2\n    tag_92:\n      pop\n      pop\n      pop\n      pop\n      pop\n      swap2\n      pop\n        /* \"contracts/Votacion.sol\":3227:3410  if (opciones[o].numeroVotos > numeroVotosGanador) {... */\n    tag_83:\n        /* \"contracts/Votacion.sol\":3207:3210  o++ */\n      dup1\n      dup1\n      tag_95\n      swap1\n      tag_96\n      jump\t// in\n    tag_95:\n      swap2\n      pop\n      pop\n        /* \"contracts/Votacion.sol\":3169:3421  for (uint o = 0; o < opciones.length; o++) {... */\n      jump(tag_77)\n    tag_78:\n      pop\n        /* \"contracts/Votacion.sol\":3441:3455  opcionGanadora */\n      dup1\n        /* \"contracts/Votacion.sol\":3431:3438  ganador */\n      0x04\n        /* \"contracts/Votacion.sol\":3431:3455  ganador = opcionGanadora */\n      swap1\n      dup2\n      tag_97\n      swap2\n      swap1\n      tag_98\n      jump\t// in\n    tag_97:\n      pop\n        /* \"contracts/Votacion.sol\":3481:3499  numeroVotosGanador */\n      dup2\n        /* \"contracts/Votacion.sol\":3466:3478  votosGanador */\n      0x05\n        /* \"contracts/Votacion.sol\":3466:3499  votosGanador = numeroVotosGanador */\n      dup2\n      swap1\n      sstore\n      pop\n        /* \"contracts/Votacion.sol\":3052:3507  {... */\n      pop\n      pop\n        /* \"contracts/Votacion.sol\":3004:3507  function terminaVotacion() external esCreador() {... */\n      jump\t// out\n        /* \"contracts/Votacion.sol\":467:489  address public creador */\n    tag_26:\n      0x00\n      dup1\n      sload\n      swap1\n      0x0100\n      exp\n      swap1\n      div\n      0xffffffffffffffffffffffffffffffffffffffff\n      and\n      dup2\n      jump\t// out\n        /* \"contracts/Votacion.sol\":522:565  mapping(address => Votante) public votantes */\n    tag_32:\n      mstore(0x20, 0x01)\n      dup1\n      0x00\n      mstore\n      keccak256(0x00, 0x40)\n      0x00\n      swap2\n      pop\n      swap1\n      pop\n      dup1\n      0x00\n      add\n      0x00\n      swap1\n      sload\n      swap1\n      0x0100\n      exp\n      swap1\n      div\n      0xff\n      and\n      swap1\n      dup1\n      0x01\n      add\n      sload\n      swap1\n      dup1\n      0x02\n      add\n      sload\n      swap1\n      pop\n      dup4\n      jump\t// out\n        /* \"contracts/Votacion.sol\":1748:2324  function agregarVotantes(address[] memory _votantes) external esCreador() {... */\n    tag_38:\n        /* \"contracts/Votacion.sol\":916:923  creador */\n      0x00\n      dup1\n      sload\n      swap1\n      0x0100\n      exp\n      swap1\n      div\n      0xffffffffffffffffffffffffffffffffffffffff\n      and\n        /* \"contracts/Votacion.sol\":902:923  msg.sender == creador */\n      0xffffffffffffffffffffffffffffffffffffffff\n      and\n        /* \"contracts/Votacion.sol\":902:912  msg.sender */\n      caller\n        /* \"contracts/Votacion.sol\":902:923  msg.sender == creador */\n      0xffffffffffffffffffffffffffffffffffffffff\n      and\n      eq\n        /* \"contracts/Votacion.sol\":894:986  require(msg.sender == creador, \"Solo el creador puede utilizar esta funcion de la votacion\") */\n      tag_100\n      jumpi\n      mload(0x40)\n      0x08c379a000000000000000000000000000000000000000000000000000000000\n      dup2\n      mstore\n      0x04\n      add\n      tag_101\n      swap1\n      tag_75\n      jump\t// in\n    tag_101:\n      mload(0x40)\n      dup1\n      swap2\n      sub\n      swap1\n      revert\n    tag_100:\n        /* \"contracts/Votacion.sol\":1837:1843  uint i */\n      0x00\n        /* \"contracts/Votacion.sol\":1833:2303  for(uint i = 0; i<_votantes.length ;i++){... */\n    tag_103:\n        /* \"contracts/Votacion.sol\":1851:1860  _votantes */\n      dup2\n        /* \"contracts/Votacion.sol\":1851:1867  _votantes.length */\n      mload\n        /* \"contracts/Votacion.sol\":1849:1850  i */\n      dup2\n        /* \"contracts/Votacion.sol\":1849:1867  i<_votantes.length */\n      lt\n        /* \"contracts/Votacion.sol\":1833:2303  for(uint i = 0; i<_votantes.length ;i++){... */\n      iszero\n      tag_104\n      jumpi\n        /* \"contracts/Votacion.sol\":1888:1903  address votante */\n      0x00\n        /* \"contracts/Votacion.sol\":1906:1915  _votantes */\n      dup3\n        /* \"contracts/Votacion.sol\":1916:1917  i */\n      dup3\n        /* \"contracts/Votacion.sol\":1906:1918  _votantes[i] */\n      dup2\n      mload\n      dup2\n      lt\n      tag_106\n      jumpi\n      tag_107\n      tag_59\n      jump\t// in\n    tag_107:\n    tag_106:\n      0x20\n      mul\n      0x20\n      add\n      add\n      mload\n        /* \"contracts/Votacion.sol\":1888:1918  address votante = _votantes[i] */\n      swap1\n      pop\n        /* \"contracts/Votacion.sol\":1973:1980  creador */\n      0x00\n      dup1\n      sload\n      swap1\n      0x0100\n      exp\n      swap1\n      div\n      0xffffffffffffffffffffffffffffffffffffffff\n      and\n        /* \"contracts/Votacion.sol\":1959:1980  msg.sender == creador */\n      0xffffffffffffffffffffffffffffffffffffffff\n      and\n        /* \"contracts/Votacion.sol\":1959:1969  msg.sender */\n      caller\n        /* \"contracts/Votacion.sol\":1959:1980  msg.sender == creador */\n      0xffffffffffffffffffffffffffffffffffffffff\n      and\n      eq\n        /* \"contracts/Votacion.sol\":1933:2054  require(... */\n      tag_108\n      jumpi\n      mload(0x40)\n      0x08c379a000000000000000000000000000000000000000000000000000000000\n      dup2\n      mstore\n      0x04\n      add\n      tag_109\n      swap1\n      tag_110\n      jump\t// in\n    tag_109:\n      mload(0x40)\n      dup1\n      swap2\n      sub\n      swap1\n      revert\n    tag_108:\n        /* \"contracts/Votacion.sol\":2096:2104  votantes */\n      0x01\n        /* \"contracts/Votacion.sol\":2096:2113  votantes[votante] */\n      0x00\n        /* \"contracts/Votacion.sol\":2105:2112  votante */\n      dup3\n        /* \"contracts/Votacion.sol\":2096:2113  votantes[votante] */\n      0xffffffffffffffffffffffffffffffffffffffff\n      and\n      0xffffffffffffffffffffffffffffffffffffffff\n      and\n      dup2\n      mstore\n      0x20\n      add\n      swap1\n      dup2\n      mstore\n      0x20\n      add\n      0x00\n      keccak256\n        /* \"contracts/Votacion.sol\":2096:2122  votantes[votante].haVotado */\n      0x00\n      add\n      0x00\n      swap1\n      sload\n      swap1\n      0x0100\n      exp\n      swap1\n      div\n      0xff\n      and\n        /* \"contracts/Votacion.sol\":2095:2122  !votantes[votante].haVotado */\n      iszero\n        /* \"contracts/Votacion.sol\":2069:2199  require(... */\n      tag_111\n      jumpi\n      mload(0x40)\n      0x08c379a000000000000000000000000000000000000000000000000000000000\n      dup2\n      mstore\n      0x04\n      add\n      tag_112\n      swap1\n      tag_113\n      jump\t// in\n    tag_112:\n      mload(0x40)\n      dup1\n      swap2\n      sub\n      swap1\n      revert\n    tag_111:\n        /* \"contracts/Votacion.sol\":2248:2249  0 */\n      0x00\n        /* \"contracts/Votacion.sol\":2222:2230  votantes */\n      0x01\n        /* \"contracts/Votacion.sol\":2222:2239  votantes[votante] */\n      0x00\n        /* \"contracts/Votacion.sol\":2231:2238  votante */\n      dup4\n        /* \"contracts/Votacion.sol\":2222:2239  votantes[votante] */\n      0xffffffffffffffffffffffffffffffffffffffff\n      and\n      0xffffffffffffffffffffffffffffffffffffffff\n      and\n      dup2\n      mstore\n      0x20\n      add\n      swap1\n      dup2\n      mstore\n      0x20\n      add\n      0x00\n      keccak256\n        /* \"contracts/Votacion.sol\":2222:2244  votantes[votante].peso */\n      0x02\n      add\n      sload\n        /* \"contracts/Votacion.sol\":2222:2249  votantes[votante].peso == 0 */\n      eq\n        /* \"contracts/Votacion.sol\":2214:2250  require(votantes[votante].peso == 0) */\n      tag_114\n      jumpi\n      0x00\n      dup1\n      revert\n    tag_114:\n        /* \"contracts/Votacion.sol\":2290:2291  1 */\n      0x01\n        /* \"contracts/Votacion.sol\":2265:2273  votantes */\n      dup1\n        /* \"contracts/Votacion.sol\":2265:2282  votantes[votante] */\n      0x00\n        /* \"contracts/Votacion.sol\":2274:2281  votante */\n      dup4\n        /* \"contracts/Votacion.sol\":2265:2282  votantes[votante] */\n      0xffffffffffffffffffffffffffffffffffffffff\n      and\n      0xffffffffffffffffffffffffffffffffffffffff\n      and\n      dup2\n      mstore\n      0x20\n      add\n      swap1\n      dup2\n      mstore\n      0x20\n      add\n      0x00\n      keccak256\n        /* \"contracts/Votacion.sol\":2265:2287  votantes[votante].peso */\n      0x02\n      add\n        /* \"contracts/Votacion.sol\":2265:2291  votantes[votante].peso = 1 */\n      dup2\n      swap1\n      sstore\n      pop\n        /* \"contracts/Votacion.sol\":1873:2303  {... */\n      pop\n        /* \"contracts/Votacion.sol\":1869:1872  i++ */\n      dup1\n      dup1\n      tag_115\n      swap1\n      tag_96\n      jump\t// in\n    tag_115:\n      swap2\n      pop\n      pop\n        /* \"contracts/Votacion.sol\":1833:2303  for(uint i = 0; i<_votantes.length ;i++){... */\n      jump(tag_103)\n    tag_104:\n      pop\n        /* \"contracts/Votacion.sol\":1748:2324  function agregarVotantes(address[] memory _votantes) external esCreador() {... */\n      pop\n      jump\t// out\n        /* \"#utility.yul\":7:82   */\n    tag_116:\n        /* \"#utility.yul\":40:46   */\n      0x00\n        /* \"#utility.yul\":73:75   */\n      0x40\n        /* \"#utility.yul\":67:76   */\n      mload\n        /* \"#utility.yul\":57:76   */\n      swap1\n      pop\n        /* \"#utility.yul\":7:82   */\n      swap1\n      jump\t// out\n        /* \"#utility.yul\":88:205   */\n    tag_117:\n        /* \"#utility.yul\":197:198   */\n      0x00\n        /* \"#utility.yul\":194:195   */\n      dup1\n        /* \"#utility.yul\":187:199   */\n      revert\n        /* \"#utility.yul\":211:328   */\n    tag_118:\n        /* \"#utility.yul\":320:321   */\n      0x00\n        /* \"#utility.yul\":317:318   */\n      dup1\n        /* \"#utility.yul\":310:322   */\n      revert\n        /* \"#utility.yul\":334:411   */\n    tag_119:\n        /* \"#utility.yul\":371:378   */\n      0x00\n        /* \"#utility.yul\":400:405   */\n      dup2\n        /* \"#utility.yul\":389:405   */\n      swap1\n      pop\n        /* \"#utility.yul\":334:411   */\n      swap2\n      swap1\n      pop\n      jump\t// out\n        /* \"#utility.yul\":417:539   */\n    tag_120:\n        /* \"#utility.yul\":490:514   */\n      tag_180\n        /* \"#utility.yul\":508:513   */\n      dup2\n        /* \"#utility.yul\":490:514   */\n      tag_119\n      jump\t// in\n    tag_180:\n        /* \"#utility.yul\":483:488   */\n      dup2\n        /* \"#utility.yul\":480:515   */\n      eq\n        /* \"#utility.yul\":470:533   */\n      tag_181\n      jumpi\n        /* \"#utility.yul\":529:530   */\n      0x00\n        /* \"#utility.yul\":526:527   */\n      dup1\n        /* \"#utility.yul\":519:531   */\n      revert\n        /* \"#utility.yul\":470:533   */\n    tag_181:\n        /* \"#utility.yul\":417:539   */\n      pop\n      jump\t// out\n        /* \"#utility.yul\":545:684   */\n    tag_121:\n        /* \"#utility.yul\":591:596   */\n      0x00\n        /* \"#utility.yul\":629:635   */\n      dup2\n        /* \"#utility.yul\":616:636   */\n      calldataload\n        /* \"#utility.yul\":607:636   */\n      swap1\n      pop\n        /* \"#utility.yul\":645:678   */\n      tag_183\n        /* \"#utility.yul\":672:677   */\n      dup2\n        /* \"#utility.yul\":645:678   */\n      tag_120\n      jump\t// in\n    tag_183:\n        /* \"#utility.yul\":545:684   */\n      swap3\n      swap2\n      pop\n      pop\n      jump\t// out\n        /* \"#utility.yul\":690:1019   */\n    tag_13:\n        /* \"#utility.yul\":749:755   */\n      0x00\n        /* \"#utility.yul\":798:800   */\n      0x20\n        /* \"#utility.yul\":786:795   */\n      dup3\n        /* \"#utility.yul\":777:784   */\n      dup5\n        /* \"#utility.yul\":773:796   */\n      sub\n        /* \"#utility.yul\":769:801   */\n      slt\n        /* \"#utility.yul\":766:885   */\n      iszero\n      tag_185\n      jumpi\n        /* \"#utility.yul\":804:883   */\n      tag_186\n      tag_117\n      jump\t// in\n    tag_186:\n        /* \"#utility.yul\":766:885   */\n    tag_185:\n        /* \"#utility.yul\":924:925   */\n      0x00\n        /* \"#utility.yul\":949:1002   */\n      tag_187\n        /* \"#utility.yul\":994:1001   */\n      dup5\n        /* \"#utility.yul\":985:991   */\n      dup3\n        /* \"#utility.yul\":974:983   */\n      dup6\n        /* \"#utility.yul\":970:992   */\n      add\n        /* \"#utility.yul\":949:1002   */\n      tag_121\n      jump\t// in\n    tag_187:\n        /* \"#utility.yul\":939:1002   */\n      swap2\n      pop\n        /* \"#utility.yul\":895:1012   */\n      pop\n        /* \"#utility.yul\":690:1019   */\n      swap3\n      swap2\n      pop\n      pop\n      jump\t// out\n        /* \"#utility.yul\":1025:1124   */\n    tag_122:\n        /* \"#utility.yul\":1077:1083   */\n      0x00\n        /* \"#utility.yul\":1111:1116   */\n      dup2\n        /* \"#utility.yul\":1105:1117   */\n      mload\n        /* \"#utility.yul\":1095:1117   */\n      swap1\n      pop\n        /* \"#utility.yul\":1025:1124   */\n      swap2\n      swap1\n      pop\n      jump\t// out\n        /* \"#utility.yul\":1130:1299   */\n    tag_123:\n        /* \"#utility.yul\":1214:1225   */\n      0x00\n        /* \"#utility.yul\":1248:1254   */\n      dup3\n        /* \"#utility.yul\":1243:1246   */\n      dup3\n        /* \"#utility.yul\":1236:1255   */\n      mstore\n        /* \"#utility.yul\":1288:1292   */\n      0x20\n        /* \"#utility.yul\":1283:1286   */\n      dup3\n        /* \"#utility.yul\":1279:1293   */\n      add\n        /* \"#utility.yul\":1264:1293   */\n      swap1\n      pop\n        /* \"#utility.yul\":1130:1299   */\n      swap3\n      swap2\n      pop\n      pop\n      jump\t// out\n        /* \"#utility.yul\":1305:1551   */\n    tag_124:\n        /* \"#utility.yul\":1386:1387   */\n      0x00\n        /* \"#utility.yul\":1396:1509   */\n    tag_191:\n        /* \"#utility.yul\":1410:1416   */\n      dup4\n        /* \"#utility.yul\":1407:1408   */\n      dup2\n        /* \"#utility.yul\":1404:1417   */\n      lt\n        /* \"#utility.yul\":1396:1509   */\n      iszero\n      tag_193\n      jumpi\n        /* \"#utility.yul\":1495:1496   */\n      dup1\n        /* \"#utility.yul\":1490:1493   */\n      dup3\n        /* \"#utility.yul\":1486:1497   */\n      add\n        /* \"#utility.yul\":1480:1498   */\n      mload\n        /* \"#utility.yul\":1476:1477   */\n      dup2\n        /* \"#utility.yul\":1471:1474   */\n      dup5\n        /* \"#utility.yul\":1467:1478   */\n      add\n        /* \"#utility.yul\":1460:1499   */\n      mstore\n        /* \"#utility.yul\":1432:1434   */\n      0x20\n        /* \"#utility.yul\":1429:1430   */\n      dup2\n        /* \"#utility.yul\":1425:1435   */\n      add\n        /* \"#utility.yul\":1420:1435   */\n      swap1\n      pop\n        /* \"#utility.yul\":1396:1509   */\n      jump(tag_191)\n    tag_193:\n        /* \"#utility.yul\":1543:1544   */\n      0x00\n        /* \"#utility.yul\":1534:1540   */\n      dup5\n        /* \"#utility.yul\":1529:1532   */\n      dup5\n        /* \"#utility.yul\":1525:1541   */\n      add\n        /* \"#utility.yul\":1518:1545   */\n      mstore\n        /* \"#utility.yul\":1367:1551   */\n      pop\n        /* \"#utility.yul\":1305:1551   */\n      pop\n      pop\n      pop\n      jump\t// out\n        /* \"#utility.yul\":1557:1659   */\n    tag_125:\n        /* \"#utility.yul\":1598:1604   */\n      0x00\n        /* \"#utility.yul\":1649:1651   */\n      0x1f\n        /* \"#utility.yul\":1645:1652   */\n      not\n        /* \"#utility.yul\":1640:1642   */\n      0x1f\n        /* \"#utility.yul\":1633:1638   */\n      dup4\n        /* \"#utility.yul\":1629:1643   */\n      add\n        /* \"#utility.yul\":1625:1653   */\n      and\n        /* \"#utility.yul\":1615:1653   */\n      swap1\n      pop\n        /* \"#utility.yul\":1557:1659   */\n      swap2\n      swap1\n      pop\n      jump\t// out\n        /* \"#utility.yul\":1665:2042   */\n    tag_126:\n        /* \"#utility.yul\":1753:1756   */\n      0x00\n        /* \"#utility.yul\":1781:1820   */\n      tag_196\n        /* \"#utility.yul\":1814:1819   */\n      dup3\n        /* \"#utility.yul\":1781:1820   */\n      tag_122\n      jump\t// in\n    tag_196:\n        /* \"#utility.yul\":1836:1907   */\n      tag_197\n        /* \"#utility.yul\":1900:1906   */\n      dup2\n        /* \"#utility.yul\":1895:1898   */\n      dup6\n        /* \"#utility.yul\":1836:1907   */\n      tag_123\n      jump\t// in\n    tag_197:\n        /* \"#utility.yul\":1829:1907   */\n      swap4\n      pop\n        /* \"#utility.yul\":1916:1981   */\n      tag_198\n        /* \"#utility.yul\":1974:1980   */\n      dup2\n        /* \"#utility.yul\":1969:1972   */\n      dup6\n        /* \"#utility.yul\":1962:1966   */\n      0x20\n        /* \"#utility.yul\":1955:1960   */\n      dup7\n        /* \"#utility.yul\":1951:1967   */\n      add\n        /* \"#utility.yul\":1916:1981   */\n      tag_124\n      jump\t// in\n    tag_198:\n        /* \"#utility.yul\":2006:2035   */\n      tag_199\n        /* \"#utility.yul\":2028:2034   */\n      dup2\n        /* \"#utility.yul\":2006:2035   */\n      tag_125\n      jump\t// in\n    tag_199:\n        /* \"#utility.yul\":2001:2004   */\n      dup5\n        /* \"#utility.yul\":1997:2036   */\n      add\n        /* \"#utility.yul\":1990:2036   */\n      swap2\n      pop\n        /* \"#utility.yul\":1757:2042   */\n      pop\n        /* \"#utility.yul\":1665:2042   */\n      swap3\n      swap2\n      pop\n      pop\n      jump\t// out\n        /* \"#utility.yul\":2048:2166   */\n    tag_127:\n        /* \"#utility.yul\":2135:2159   */\n      tag_201\n        /* \"#utility.yul\":2153:2158   */\n      dup2\n        /* \"#utility.yul\":2135:2159   */\n      tag_119\n      jump\t// in\n    tag_201:\n        /* \"#utility.yul\":2130:2133   */\n      dup3\n        /* \"#utility.yul\":2123:2160   */\n      mstore\n        /* \"#utility.yul\":2048:2166   */\n      pop\n      pop\n      jump\t// out\n        /* \"#utility.yul\":2172:2595   */\n    tag_16:\n        /* \"#utility.yul\":2313:2317   */\n      0x00\n        /* \"#utility.yul\":2351:2353   */\n      0x40\n        /* \"#utility.yul\":2340:2349   */\n      dup3\n        /* \"#utility.yul\":2336:2354   */\n      add\n        /* \"#utility.yul\":2328:2354   */\n      swap1\n      pop\n        /* \"#utility.yul\":2400:2409   */\n      dup2\n        /* \"#utility.yul\":2394:2398   */\n      dup2\n        /* \"#utility.yul\":2390:2410   */\n      sub\n        /* \"#utility.yul\":2386:2387   */\n      0x00\n        /* \"#utility.yul\":2375:2384   */\n      dup4\n        /* \"#utility.yul\":2371:2388   */\n      add\n        /* \"#utility.yul\":2364:2411   */\n      mstore\n        /* \"#utility.yul\":2428:2506   */\n      tag_203\n        /* \"#utility.yul\":2501:2505   */\n      dup2\n        /* \"#utility.yul\":2492:2498   */\n      dup6\n        /* \"#utility.yul\":2428:2506   */\n      tag_126\n      jump\t// in\n    tag_203:\n        /* \"#utility.yul\":2420:2506   */\n      swap1\n      pop\n        /* \"#utility.yul\":2516:2588   */\n      tag_204\n        /* \"#utility.yul\":2584:2586   */\n      0x20\n        /* \"#utility.yul\":2573:2582   */\n      dup4\n        /* \"#utility.yul\":2569:2587   */\n      add\n        /* \"#utility.yul\":2560:2566   */\n      dup5\n        /* \"#utility.yul\":2516:2588   */\n      tag_127\n      jump\t// in\n    tag_204:\n        /* \"#utility.yul\":2172:2595   */\n      swap4\n      swap3\n      pop\n      pop\n      pop\n      jump\t// out\n        /* \"#utility.yul\":2601:2727   */\n    tag_128:\n        /* \"#utility.yul\":2638:2645   */\n      0x00\n        /* \"#utility.yul\":2678:2720   */\n      0xffffffffffffffffffffffffffffffffffffffff\n        /* \"#utility.yul\":2671:2676   */\n      dup3\n        /* \"#utility.yul\":2667:2721   */\n      and\n        /* \"#utility.yul\":2656:2721   */\n      swap1\n      pop\n        /* \"#utility.yul\":2601:2727   */\n      swap2\n      swap1\n      pop\n      jump\t// out\n        /* \"#utility.yul\":2733:2829   */\n    tag_129:\n        /* \"#utility.yul\":2770:2777   */\n      0x00\n        /* \"#utility.yul\":2799:2823   */\n      tag_207\n        /* \"#utility.yul\":2817:2822   */\n      dup3\n        /* \"#utility.yul\":2799:2823   */\n      tag_128\n      jump\t// in\n    tag_207:\n        /* \"#utility.yul\":2788:2823   */\n      swap1\n      pop\n        /* \"#utility.yul\":2733:2829   */\n      swap2\n      swap1\n      pop\n      jump\t// out\n        /* \"#utility.yul\":2835:2953   */\n    tag_130:\n        /* \"#utility.yul\":2922:2946   */\n      tag_209\n        /* \"#utility.yul\":2940:2945   */\n      dup2\n        /* \"#utility.yul\":2922:2946   */\n      tag_129\n      jump\t// in\n    tag_209:\n        /* \"#utility.yul\":2917:2920   */\n      dup3\n        /* \"#utility.yul\":2910:2947   */\n      mstore\n        /* \"#utility.yul\":2835:2953   */\n      pop\n      pop\n      jump\t// out\n        /* \"#utility.yul\":2959:3181   */\n    tag_28:\n        /* \"#utility.yul\":3052:3056   */\n      0x00\n        /* \"#utility.yul\":3090:3092   */\n      0x20\n        /* \"#utility.yul\":3079:3088   */\n      dup3\n        /* \"#utility.yul\":3075:3093   */\n      add\n        /* \"#utility.yul\":3067:3093   */\n      swap1\n      pop\n        /* \"#utility.yul\":3103:3174   */\n      tag_211\n        /* \"#utility.yul\":3171:3172   */\n      0x00\n        /* \"#utility.yul\":3160:3169   */\n      dup4\n        /* \"#utility.yul\":3156:3173   */\n      add\n        /* \"#utility.yul\":3147:3153   */\n      dup5\n        /* \"#utility.yul\":3103:3174   */\n      tag_130\n      jump\t// in\n    tag_211:\n        /* \"#utility.yul\":2959:3181   */\n      swap3\n      swap2\n      pop\n      pop\n      jump\t// out\n        /* \"#utility.yul\":3187:3309   */\n    tag_131:\n        /* \"#utility.yul\":3260:3284   */\n      tag_213\n        /* \"#utility.yul\":3278:3283   */\n      dup2\n        /* \"#utility.yul\":3260:3284   */\n      tag_129\n      jump\t// in\n    tag_213:\n        /* \"#utility.yul\":3253:3258   */\n      dup2\n        /* \"#utility.yul\":3250:3285   */\n      eq\n        /* \"#utility.yul\":3240:3303   */\n      tag_214\n      jumpi\n        /* \"#utility.yul\":3299:3300   */\n      0x00\n        /* \"#utility.yul\":3296:3297   */\n      dup1\n        /* \"#utility.yul\":3289:3301   */\n      revert\n        /* \"#utility.yul\":3240:3303   */\n    tag_214:\n        /* \"#utility.yul\":3187:3309   */\n      pop\n      jump\t// out\n        /* \"#utility.yul\":3315:3454   */\n    tag_132:\n        /* \"#utility.yul\":3361:3366   */\n      0x00\n        /* \"#utility.yul\":3399:3405   */\n      dup2\n        /* \"#utility.yul\":3386:3406   */\n      calldataload\n        /* \"#utility.yul\":3377:3406   */\n      swap1\n      pop\n        /* \"#utility.yul\":3415:3448   */\n      tag_216\n        /* \"#utility.yul\":3442:3447   */\n      dup2\n        /* \"#utility.yul\":3415:3448   */\n      tag_131\n      jump\t// in\n    tag_216:\n        /* \"#utility.yul\":3315:3454   */\n      swap3\n      swap2\n      pop\n      pop\n      jump\t// out\n        /* \"#utility.yul\":3460:3789   */\n    tag_31:\n        /* \"#utility.yul\":3519:3525   */\n      0x00\n        /* \"#utility.yul\":3568:3570   */\n      0x20\n        /* \"#utility.yul\":3556:3565   */\n      dup3\n        /* \"#utility.yul\":3547:3554   */\n      dup5\n        /* \"#utility.yul\":3543:3566   */\n      sub\n        /* \"#utility.yul\":3539:3571   */\n      slt\n        /* \"#utility.yul\":3536:3655   */\n      iszero\n      tag_218\n      jumpi\n        /* \"#utility.yul\":3574:3653   */\n      tag_219\n      tag_117\n      jump\t// in\n    tag_219:\n        /* \"#utility.yul\":3536:3655   */\n    tag_218:\n        /* \"#utility.yul\":3694:3695   */\n      0x00\n        /* \"#utility.yul\":3719:3772   */\n      tag_220\n        /* \"#utility.yul\":3764:3771   */\n      dup5\n        /* \"#utility.yul\":3755:3761   */\n      dup3\n        /* \"#utility.yul\":3744:3753   */\n      dup6\n        /* \"#utility.yul\":3740:3762   */\n      add\n        /* \"#utility.yul\":3719:3772   */\n      tag_132\n      jump\t// in\n    tag_220:\n        /* \"#utility.yul\":3709:3772   */\n      swap2\n      pop\n        /* \"#utility.yul\":3665:3782   */\n      pop\n        /* \"#utility.yul\":3460:3789   */\n      swap3\n      swap2\n      pop\n      pop\n      jump\t// out\n        /* \"#utility.yul\":3795:3885   */\n    tag_133:\n        /* \"#utility.yul\":3829:3836   */\n      0x00\n        /* \"#utility.yul\":3872:3877   */\n      dup2\n        /* \"#utility.yul\":3865:3878   */\n      iszero\n        /* \"#utility.yul\":3858:3879   */\n      iszero\n        /* \"#utility.yul\":3847:3879   */\n      swap1\n      pop\n        /* \"#utility.yul\":3795:3885   */\n      swap2\n      swap1\n      pop\n      jump\t// out\n        /* \"#utility.yul\":3891:4000   */\n    tag_134:\n        /* \"#utility.yul\":3972:3993   */\n      tag_223\n        /* \"#utility.yul\":3987:3992   */\n      dup2\n        /* \"#utility.yul\":3972:3993   */\n      tag_133\n      jump\t// in\n    tag_223:\n        /* \"#utility.yul\":3967:3970   */\n      dup3\n        /* \"#utility.yul\":3960:3994   */\n      mstore\n        /* \"#utility.yul\":3891:4000   */\n      pop\n      pop\n      jump\t// out\n        /* \"#utility.yul\":4006:4436   */\n    tag_34:\n        /* \"#utility.yul\":4149:4153   */\n      0x00\n        /* \"#utility.yul\":4187:4189   */\n      0x60\n        /* \"#utility.yul\":4176:4185   */\n      dup3\n        /* \"#utility.yul\":4172:4190   */\n      add\n        /* \"#utility.yul\":4164:4190   */\n      swap1\n      pop\n        /* \"#utility.yul\":4200:4265   */\n      tag_225\n        /* \"#utility.yul\":4262:4263   */\n      0x00\n        /* \"#utility.yul\":4251:4260   */\n      dup4\n        /* \"#utility.yul\":4247:4264   */\n      add\n        /* \"#utility.yul\":4238:4244   */\n      dup7\n        /* \"#utility.yul\":4200:4265   */\n      tag_134\n      jump\t// in\n    tag_225:\n        /* \"#utility.yul\":4275:4347   */\n      tag_226\n        /* \"#utility.yul\":4343:4345   */\n      0x20\n        /* \"#utility.yul\":4332:4341   */\n      dup4\n        /* \"#utility.yul\":4328:4346   */\n      add\n        /* \"#utility.yul\":4319:4325   */\n      dup6\n        /* \"#utility.yul\":4275:4347   */\n      tag_127\n      jump\t// in\n    tag_226:\n        /* \"#utility.yul\":4357:4429   */\n      tag_227\n        /* \"#utility.yul\":4425:4427   */\n      0x40\n        /* \"#utility.yul\":4414:4423   */\n      dup4\n        /* \"#utility.yul\":4410:4428   */\n      add\n        /* \"#utility.yul\":4401:4407   */\n      dup5\n        /* \"#utility.yul\":4357:4429   */\n      tag_127\n      jump\t// in\n    tag_227:\n        /* \"#utility.yul\":4006:4436   */\n      swap5\n      swap4\n      pop\n      pop\n      pop\n      pop\n      jump\t// out\n        /* \"#utility.yul\":4442:4559   */\n    tag_135:\n        /* \"#utility.yul\":4551:4552   */\n      0x00\n        /* \"#utility.yul\":4548:4549   */\n      dup1\n        /* \"#utility.yul\":4541:4553   */\n      revert\n        /* \"#utility.yul\":4565:4745   */\n    tag_136:\n        /* \"#utility.yul\":4613:4690   */\n      0x4e487b7100000000000000000000000000000000000000000000000000000000\n        /* \"#utility.yul\":4610:4611   */\n      0x00\n        /* \"#utility.yul\":4603:4691   */\n      mstore\n        /* \"#utility.yul\":4710:4714   */\n      0x41\n        /* \"#utility.yul\":4707:4708   */\n      0x04\n        /* \"#utility.yul\":4700:4715   */\n      mstore\n        /* \"#utility.yul\":4734:4738   */\n      0x24\n        /* \"#utility.yul\":4731:4732   */\n      0x00\n        /* \"#utility.yul\":4724:4739   */\n      revert\n        /* \"#utility.yul\":4751:5032   */\n    tag_137:\n        /* \"#utility.yul\":4834:4861   */\n      tag_231\n        /* \"#utility.yul\":4856:4860   */\n      dup3\n        /* \"#utility.yul\":4834:4861   */\n      tag_125\n      jump\t// in\n    tag_231:\n        /* \"#utility.yul\":4826:4832   */\n      dup2\n        /* \"#utility.yul\":4822:4862   */\n      add\n        /* \"#utility.yul\":4964:4970   */\n      dup2\n        /* \"#utility.yul\":4952:4962   */\n      dup2\n        /* \"#utility.yul\":4949:4971   */\n      lt\n        /* \"#utility.yul\":4928:4946   */\n      0xffffffffffffffff\n        /* \"#utility.yul\":4916:4926   */\n      dup3\n        /* \"#utility.yul\":4913:4947   */\n      gt\n        /* \"#utility.yul\":4910:4972   */\n      or\n        /* \"#utility.yul\":4907:4995   */\n      iszero\n      tag_232\n      jumpi\n        /* \"#utility.yul\":4975:4993   */\n      tag_233\n      tag_136\n      jump\t// in\n    tag_233:\n        /* \"#utility.yul\":4907:4995   */\n    tag_232:\n        /* \"#utility.yul\":5015:5025   */\n      dup1\n        /* \"#utility.yul\":5011:5013   */\n      0x40\n        /* \"#utility.yul\":5004:5026   */\n      mstore\n        /* \"#utility.yul\":4794:5032   */\n      pop\n        /* \"#utility.yul\":4751:5032   */\n      pop\n      pop\n      jump\t// out\n        /* \"#utility.yul\":5038:5167   */\n    tag_138:\n        /* \"#utility.yul\":5072:5078   */\n      0x00\n        /* \"#utility.yul\":5099:5119   */\n      tag_235\n      tag_116\n      jump\t// in\n    tag_235:\n        /* \"#utility.yul\":5089:5119   */\n      swap1\n      pop\n        /* \"#utility.yul\":5128:5161   */\n      tag_236\n        /* \"#utility.yul\":5156:5160   */\n      dup3\n        /* \"#utility.yul\":5148:5154   */\n      dup3\n        /* \"#utility.yul\":5128:5161   */\n      tag_137\n      jump\t// in\n    tag_236:\n        /* \"#utility.yul\":5038:5167   */\n      swap2\n      swap1\n      pop\n      jump\t// out\n        /* \"#utility.yul\":5173:5484   */\n    tag_139:\n        /* \"#utility.yul\":5250:5254   */\n      0x00\n        /* \"#utility.yul\":5340:5358   */\n      0xffffffffffffffff\n        /* \"#utility.yul\":5332:5338   */\n      dup3\n        /* \"#utility.yul\":5329:5359   */\n      gt\n        /* \"#utility.yul\":5326:5382   */\n      iszero\n      tag_238\n      jumpi\n        /* \"#utility.yul\":5362:5380   */\n      tag_239\n      tag_136\n      jump\t// in\n    tag_239:\n        /* \"#utility.yul\":5326:5382   */\n    tag_238:\n        /* \"#utility.yul\":5412:5416   */\n      0x20\n        /* \"#utility.yul\":5404:5410   */\n      dup3\n        /* \"#utility.yul\":5400:5417   */\n      mul\n        /* \"#utility.yul\":5392:5417   */\n      swap1\n      pop\n        /* \"#utility.yul\":5472:5476   */\n      0x20\n        /* \"#utility.yul\":5466:5470   */\n      dup2\n        /* \"#utility.yul\":5462:5477   */\n      add\n        /* \"#utility.yul\":5454:5477   */\n      swap1\n      pop\n        /* \"#utility.yul\":5173:5484   */\n      swap2\n      swap1\n      pop\n      jump\t// out\n        /* \"#utility.yul\":5490:5607   */\n    tag_140:\n        /* \"#utility.yul\":5599:5600   */\n      0x00\n        /* \"#utility.yul\":5596:5597   */\n      dup1\n        /* \"#utility.yul\":5589:5601   */\n      revert\n        /* \"#utility.yul\":5630:6340   */\n    tag_141:\n        /* \"#utility.yul\":5726:5731   */\n      0x00\n        /* \"#utility.yul\":5751:5832   */\n      tag_242\n        /* \"#utility.yul\":5767:5831   */\n      tag_243\n        /* \"#utility.yul\":5824:5830   */\n      dup5\n        /* \"#utility.yul\":5767:5831   */\n      tag_139\n      jump\t// in\n    tag_243:\n        /* \"#utility.yul\":5751:5832   */\n      tag_138\n      jump\t// in\n    tag_242:\n        /* \"#utility.yul\":5742:5832   */\n      swap1\n      pop\n        /* \"#utility.yul\":5852:5857   */\n      dup1\n        /* \"#utility.yul\":5881:5887   */\n      dup4\n        /* \"#utility.yul\":5874:5879   */\n      dup3\n        /* \"#utility.yul\":5867:5888   */\n      mstore\n        /* \"#utility.yul\":5915:5919   */\n      0x20\n        /* \"#utility.yul\":5908:5913   */\n      dup3\n        /* \"#utility.yul\":5904:5920   */\n      add\n        /* \"#utility.yul\":5897:5920   */\n      swap1\n      pop\n        /* \"#utility.yul\":5968:5972   */\n      0x20\n        /* \"#utility.yul\":5960:5966   */\n      dup5\n        /* \"#utility.yul\":5956:5973   */\n      mul\n        /* \"#utility.yul\":5948:5954   */\n      dup4\n        /* \"#utility.yul\":5944:5974   */\n      add\n        /* \"#utility.yul\":5997:6000   */\n      dup6\n        /* \"#utility.yul\":5989:5995   */\n      dup2\n        /* \"#utility.yul\":5986:6001   */\n      gt\n        /* \"#utility.yul\":5983:6105   */\n      iszero\n      tag_244\n      jumpi\n        /* \"#utility.yul\":6016:6095   */\n      tag_245\n      tag_140\n      jump\t// in\n    tag_245:\n        /* \"#utility.yul\":5983:6105   */\n    tag_244:\n        /* \"#utility.yul\":6131:6137   */\n      dup4\n        /* \"#utility.yul\":6114:6334   */\n    tag_246:\n        /* \"#utility.yul\":6148:6154   */\n      dup2\n        /* \"#utility.yul\":6143:6146   */\n      dup2\n        /* \"#utility.yul\":6140:6155   */\n      lt\n        /* \"#utility.yul\":6114:6334   */\n      iszero\n      tag_248\n      jumpi\n        /* \"#utility.yul\":6223:6226   */\n      dup1\n        /* \"#utility.yul\":6252:6289   */\n      tag_249\n        /* \"#utility.yul\":6285:6288   */\n      dup9\n        /* \"#utility.yul\":6273:6283   */\n      dup3\n        /* \"#utility.yul\":6252:6289   */\n      tag_132\n      jump\t// in\n    tag_249:\n        /* \"#utility.yul\":6247:6250   */\n      dup5\n        /* \"#utility.yul\":6240:6290   */\n      mstore\n        /* \"#utility.yul\":6319:6323   */\n      0x20\n        /* \"#utility.yul\":6314:6317   */\n      dup5\n        /* \"#utility.yul\":6310:6324   */\n      add\n        /* \"#utility.yul\":6303:6324   */\n      swap4\n      pop\n        /* \"#utility.yul\":6190:6334   */\n      pop\n        /* \"#utility.yul\":6174:6178   */\n      0x20\n        /* \"#utility.yul\":6169:6172   */\n      dup2\n        /* \"#utility.yul\":6165:6179   */\n      add\n        /* \"#utility.yul\":6158:6179   */\n      swap1\n      pop\n        /* \"#utility.yul\":6114:6334   */\n      jump(tag_246)\n    tag_248:\n        /* \"#utility.yul\":6118:6139   */\n      pop\n        /* \"#utility.yul\":5732:6340   */\n      pop\n      pop\n        /* \"#utility.yul\":5630:6340   */\n      swap4\n      swap3\n      pop\n      pop\n      pop\n      jump\t// out\n        /* \"#utility.yul\":6363:6733   */\n    tag_142:\n        /* \"#utility.yul\":6434:6439   */\n      0x00\n        /* \"#utility.yul\":6483:6486   */\n      dup3\n        /* \"#utility.yul\":6476:6480   */\n      0x1f\n        /* \"#utility.yul\":6468:6474   */\n      dup4\n        /* \"#utility.yul\":6464:6481   */\n      add\n        /* \"#utility.yul\":6460:6487   */\n      slt\n        /* \"#utility.yul\":6450:6572   */\n      tag_251\n      jumpi\n        /* \"#utility.yul\":6491:6570   */\n      tag_252\n      tag_135\n      jump\t// in\n    tag_252:\n        /* \"#utility.yul\":6450:6572   */\n    tag_251:\n        /* \"#utility.yul\":6608:6614   */\n      dup2\n        /* \"#utility.yul\":6595:6615   */\n      calldataload\n        /* \"#utility.yul\":6633:6727   */\n      tag_253\n        /* \"#utility.yul\":6723:6726   */\n      dup5\n        /* \"#utility.yul\":6715:6721   */\n      dup3\n        /* \"#utility.yul\":6708:6712   */\n      0x20\n        /* \"#utility.yul\":6700:6706   */\n      dup7\n        /* \"#utility.yul\":6696:6713   */\n      add\n        /* \"#utility.yul\":6633:6727   */\n      tag_141\n      jump\t// in\n    tag_253:\n        /* \"#utility.yul\":6624:6727   */\n      swap2\n      pop\n        /* \"#utility.yul\":6440:6733   */\n      pop\n        /* \"#utility.yul\":6363:6733   */\n      swap3\n      swap2\n      pop\n      pop\n      jump\t// out\n        /* \"#utility.yul\":6739:7278   */\n    tag_37:\n        /* \"#utility.yul\":6823:6829   */\n      0x00\n        /* \"#utility.yul\":6872:6874   */\n      0x20\n        /* \"#utility.yul\":6860:6869   */\n      dup3\n        /* \"#utility.yul\":6851:6858   */\n      dup5\n        /* \"#utility.yul\":6847:6870   */\n      sub\n        /* \"#utility.yul\":6843:6875   */\n      slt\n        /* \"#utility.yul\":6840:6959   */\n      iszero\n      tag_255\n      jumpi\n        /* \"#utility.yul\":6878:6957   */\n      tag_256\n      tag_117\n      jump\t// in\n    tag_256:\n        /* \"#utility.yul\":6840:6959   */\n    tag_255:\n        /* \"#utility.yul\":7026:7027   */\n      0x00\n        /* \"#utility.yul\":7015:7024   */\n      dup3\n        /* \"#utility.yul\":7011:7028   */\n      add\n        /* \"#utility.yul\":6998:7029   */\n      calldataload\n        /* \"#utility.yul\":7056:7074   */\n      0xffffffffffffffff\n        /* \"#utility.yul\":7048:7054   */\n      dup2\n        /* \"#utility.yul\":7045:7075   */\n      gt\n        /* \"#utility.yul\":7042:7159   */\n      iszero\n      tag_257\n      jumpi\n        /* \"#utility.yul\":7078:7157   */\n      tag_258\n      tag_118\n      jump\t// in\n    tag_258:\n        /* \"#utility.yul\":7042:7159   */\n    tag_257:\n        /* \"#utility.yul\":7183:7261   */\n      tag_259\n        /* \"#utility.yul\":7253:7260   */\n      dup5\n        /* \"#utility.yul\":7244:7250   */\n      dup3\n        /* \"#utility.yul\":7233:7242   */\n      dup6\n        /* \"#utility.yul\":7229:7251   */\n      add\n        /* \"#utility.yul\":7183:7261   */\n      tag_142\n      jump\t// in\n    tag_259:\n        /* \"#utility.yul\":7173:7261   */\n      swap2\n      pop\n        /* \"#utility.yul\":6969:7271   */\n      pop\n        /* \"#utility.yul\":6739:7278   */\n      swap3\n      swap2\n      pop\n      pop\n      jump\t// out\n        /* \"#utility.yul\":7284:7464   */\n    tag_143:\n        /* \"#utility.yul\":7332:7409   */\n      0x4e487b7100000000000000000000000000000000000000000000000000000000\n        /* \"#utility.yul\":7329:7330   */\n      0x00\n        /* \"#utility.yul\":7322:7410   */\n      mstore\n        /* \"#utility.yul\":7429:7433   */\n      0x22\n        /* \"#utility.yul\":7426:7427   */\n      0x04\n        /* \"#utility.yul\":7419:7434   */\n      mstore\n        /* \"#utility.yul\":7453:7457   */\n      0x24\n        /* \"#utility.yul\":7450:7451   */\n      0x00\n        /* \"#utility.yul\":7443:7458   */\n      revert\n        /* \"#utility.yul\":7470:7790   */\n    tag_42:\n        /* \"#utility.yul\":7514:7520   */\n      0x00\n        /* \"#utility.yul\":7551:7552   */\n      0x02\n        /* \"#utility.yul\":7545:7549   */\n      dup3\n        /* \"#utility.yul\":7541:7553   */\n      div\n        /* \"#utility.yul\":7531:7553   */\n      swap1\n      pop\n        /* \"#utility.yul\":7598:7599   */\n      0x01\n        /* \"#utility.yul\":7592:7596   */\n      dup3\n        /* \"#utility.yul\":7588:7600   */\n      and\n        /* \"#utility.yul\":7619:7637   */\n      dup1\n        /* \"#utility.yul\":7609:7690   */\n      tag_262\n      jumpi\n        /* \"#utility.yul\":7675:7679   */\n      0x7f\n        /* \"#utility.yul\":7667:7673   */\n      dup3\n        /* \"#utility.yul\":7663:7680   */\n      and\n        /* \"#utility.yul\":7653:7680   */\n      swap2\n      pop\n        /* \"#utility.yul\":7609:7690   */\n    tag_262:\n        /* \"#utility.yul\":7737:7739   */\n      0x20\n        /* \"#utility.yul\":7729:7735   */\n      dup3\n        /* \"#utility.yul\":7726:7740   */\n      lt\n        /* \"#utility.yul\":7706:7724   */\n      dup2\n        /* \"#utility.yul\":7703:7741   */\n      sub\n        /* \"#utility.yul\":7700:7784   */\n      tag_263\n      jumpi\n        /* \"#utility.yul\":7756:7774   */\n      tag_264\n      tag_143\n      jump\t// in\n    tag_264:\n        /* \"#utility.yul\":7700:7784   */\n    tag_263:\n        /* \"#utility.yul\":7521:7790   */\n      pop\n        /* \"#utility.yul\":7470:7790   */\n      swap2\n      swap1\n      pop\n      jump\t// out\n        /* \"#utility.yul\":7796:7971   */\n    tag_144:\n        /* \"#utility.yul\":7936:7963   */\n      0x4e6f207469656e6573206465726563686f206120766f74617200000000000000\n        /* \"#utility.yul\":7932:7933   */\n      0x00\n        /* \"#utility.yul\":7924:7930   */\n      dup3\n        /* \"#utility.yul\":7920:7934   */\n      add\n        /* \"#utility.yul\":7913:7964   */\n      mstore\n        /* \"#utility.yul\":7796:7971   */\n      pop\n      jump\t// out\n        /* \"#utility.yul\":7977:8343   */\n    tag_145:\n        /* \"#utility.yul\":8119:8122   */\n      0x00\n        /* \"#utility.yul\":8140:8207   */\n      tag_267\n        /* \"#utility.yul\":8204:8206   */\n      0x19\n        /* \"#utility.yul\":8199:8202   */\n      dup4\n        /* \"#utility.yul\":8140:8207   */\n      tag_123\n      jump\t// in\n    tag_267:\n        /* \"#utility.yul\":8133:8207   */\n      swap2\n      pop\n        /* \"#utility.yul\":8216:8309   */\n      tag_268\n        /* \"#utility.yul\":8305:8308   */\n      dup3\n        /* \"#utility.yul\":8216:8309   */\n      tag_144\n      jump\t// in\n    tag_268:\n        /* \"#utility.yul\":8334:8336   */\n      0x20\n        /* \"#utility.yul\":8329:8332   */\n      dup3\n        /* \"#utility.yul\":8325:8337   */\n      add\n        /* \"#utility.yul\":8318:8337   */\n      swap1\n      pop\n        /* \"#utility.yul\":7977:8343   */\n      swap2\n      swap1\n      pop\n      jump\t// out\n        /* \"#utility.yul\":8349:8768   */\n    tag_50:\n        /* \"#utility.yul\":8515:8519   */\n      0x00\n        /* \"#utility.yul\":8553:8555   */\n      0x20\n        /* \"#utility.yul\":8542:8551   */\n      dup3\n        /* \"#utility.yul\":8538:8556   */\n      add\n        /* \"#utility.yul\":8530:8556   */\n      swap1\n      pop\n        /* \"#utility.yul\":8602:8611   */\n      dup2\n        /* \"#utility.yul\":8596:8600   */\n      dup2\n        /* \"#utility.yul\":8592:8612   */\n      sub\n        /* \"#utility.yul\":8588:8589   */\n      0x00\n        /* \"#utility.yul\":8577:8586   */\n      dup4\n        /* \"#utility.yul\":8573:8590   */\n      add\n        /* \"#utility.yul\":8566:8613   */\n      mstore\n        /* \"#utility.yul\":8630:8761   */\n      tag_270\n        /* \"#utility.yul\":8756:8760   */\n      dup2\n        /* \"#utility.yul\":8630:8761   */\n      tag_145\n      jump\t// in\n    tag_270:\n        /* \"#utility.yul\":8622:8761   */\n      swap1\n      pop\n        /* \"#utility.yul\":8349:8768   */\n      swap2\n      swap1\n      pop\n      jump\t// out\n        /* \"#utility.yul\":8774:8948   */\n    tag_146:\n        /* \"#utility.yul\":8914:8940   */\n      0x4c6120766f746163696f6e206861207465726d696e61646f0000000000000000\n        /* \"#utility.yul\":8910:8911   */\n      0x00\n        /* \"#utility.yul\":8902:8908   */\n      dup3\n        /* \"#utility.yul\":8898:8912   */\n      add\n        /* \"#utility.yul\":8891:8941   */\n      mstore\n        /* \"#utility.yul\":8774:8948   */\n      pop\n      jump\t// out\n        /* \"#utility.yul\":8954:9320   */\n    tag_147:\n        /* \"#utility.yul\":9096:9099   */\n      0x00\n        /* \"#utility.yul\":9117:9184   */\n      tag_273\n        /* \"#utility.yul\":9181:9183   */\n      0x18\n        /* \"#utility.yul\":9176:9179   */\n      dup4\n        /* \"#utility.yul\":9117:9184   */\n      tag_123\n      jump\t// in\n    tag_273:\n        /* \"#utility.yul\":9110:9184   */\n      swap2\n      pop\n        /* \"#utility.yul\":9193:9286   */\n      tag_274\n        /* \"#utility.yul\":9282:9285   */\n      dup3\n        /* \"#utility.yul\":9193:9286   */\n      tag_146\n      jump\t// in\n    tag_274:\n        /* \"#utility.yul\":9311:9313   */\n      0x20\n        /* \"#utility.yul\":9306:9309   */\n      dup3\n        /* \"#utility.yul\":9302:9314   */\n      add\n        /* \"#utility.yul\":9295:9314   */\n      swap1\n      pop\n        /* \"#utility.yul\":8954:9320   */\n      swap2\n      swap1\n      pop\n      jump\t// out\n        /* \"#utility.yul\":9326:9745   */\n    tag_53:\n        /* \"#utility.yul\":9492:9496   */\n      0x00\n        /* \"#utility.yul\":9530:9532   */\n      0x20\n        /* \"#utility.yul\":9519:9528   */\n      dup3\n        /* \"#utility.yul\":9515:9533   */\n      add\n        /* \"#utility.yul\":9507:9533   */\n      swap1\n      pop\n        /* \"#utility.yul\":9579:9588   */\n      dup2\n        /* \"#utility.yul\":9573:9577   */\n      dup2\n        /* \"#utility.yul\":9569:9589   */\n      sub\n        /* \"#utility.yul\":9565:9566   */\n      0x00\n        /* \"#utility.yul\":9554:9563   */\n      dup4\n        /* \"#utility.yul\":9550:9567   */\n      add\n        /* \"#utility.yul\":9543:9590   */\n      mstore\n        /* \"#utility.yul\":9607:9738   */\n      tag_276\n        /* \"#utility.yul\":9733:9737   */\n      dup2\n        /* \"#utility.yul\":9607:9738   */\n      tag_147\n      jump\t// in\n    tag_276:\n        /* \"#utility.yul\":9599:9738   */\n      swap1\n      pop\n        /* \"#utility.yul\":9326:9745   */\n      swap2\n      swap1\n      pop\n      jump\t// out\n        /* \"#utility.yul\":9751:9914   */\n    tag_148:\n        /* \"#utility.yul\":9891:9906   */\n      0x59612068617320766f7461646f00000000000000000000000000000000000000\n        /* \"#utility.yul\":9887:9888   */\n      0x00\n        /* \"#utility.yul\":9879:9885   */\n      dup3\n        /* \"#utility.yul\":9875:9889   */\n      add\n        /* \"#utility.yul\":9868:9907   */\n      mstore\n        /* \"#utility.yul\":9751:9914   */\n      pop\n      jump\t// out\n        /* \"#utility.yul\":9920:10286   */\n    tag_149:\n        /* \"#utility.yul\":10062:10065   */\n      0x00\n        /* \"#utility.yul\":10083:10150   */\n      tag_279\n        /* \"#utility.yul\":10147:10149   */\n      0x0d\n        /* \"#utility.yul\":10142:10145   */\n      dup4\n        /* \"#utility.yul\":10083:10150   */\n      tag_123\n      jump\t// in\n    tag_279:\n        /* \"#utility.yul\":10076:10150   */\n      swap2\n      pop\n        /* \"#utility.yul\":10159:10252   */\n      tag_280\n        /* \"#utility.yul\":10248:10251   */\n      dup3\n        /* \"#utility.yul\":10159:10252   */\n      tag_148\n      jump\t// in\n    tag_280:\n        /* \"#utility.yul\":10277:10279   */\n      0x20\n        /* \"#utility.yul\":10272:10275   */\n      dup3\n        /* \"#utility.yul\":10268:10280   */\n      add\n        /* \"#utility.yul\":10261:10280   */\n      swap1\n      pop\n        /* \"#utility.yul\":9920:10286   */\n      swap2\n      swap1\n      pop\n      jump\t// out\n        /* \"#utility.yul\":10292:10711   */\n    tag_56:\n        /* \"#utility.yul\":10458:10462   */\n      0x00\n        /* \"#utility.yul\":10496:10498   */\n      0x20\n        /* \"#utility.yul\":10485:10494   */\n      dup3\n        /* \"#utility.yul\":10481:10499   */\n      add\n        /* \"#utility.yul\":10473:10499   */\n      swap1\n      pop\n        /* \"#utility.yul\":10545:10554   */\n      dup2\n        /* \"#utility.yul\":10539:10543   */\n      dup2\n        /* \"#utility.yul\":10535:10555   */\n      sub\n        /* \"#utility.yul\":10531:10532   */\n      0x00\n        /* \"#utility.yul\":10520:10529   */\n      dup4\n        /* \"#utility.yul\":10516:10533   */\n      add\n        /* \"#utility.yul\":10509:10556   */\n      mstore\n        /* \"#utility.yul\":10573:10704   */\n      tag_282\n        /* \"#utility.yul\":10699:10703   */\n      dup2\n        /* \"#utility.yul\":10573:10704   */\n      tag_149\n      jump\t// in\n    tag_282:\n        /* \"#utility.yul\":10565:10704   */\n      swap1\n      pop\n        /* \"#utility.yul\":10292:10711   */\n      swap2\n      swap1\n      pop\n      jump\t// out\n        /* \"#utility.yul\":10717:10897   */\n    tag_59:\n        /* \"#utility.yul\":10765:10842   */\n      0x4e487b7100000000000000000000000000000000000000000000000000000000\n        /* \"#utility.yul\":10762:10763   */\n      0x00\n        /* \"#utility.yul\":10755:10843   */\n      mstore\n        /* \"#utility.yul\":10862:10866   */\n      0x32\n        /* \"#utility.yul\":10859:10860   */\n      0x04\n        /* \"#utility.yul\":10852:10867   */\n      mstore\n        /* \"#utility.yul\":10886:10890   */\n      0x24\n        /* \"#utility.yul\":10883:10884   */\n      0x00\n        /* \"#utility.yul\":10876:10891   */\n      revert\n        /* \"#utility.yul\":10903:11083   */\n    tag_150:\n        /* \"#utility.yul\":10951:11028   */\n      0x4e487b7100000000000000000000000000000000000000000000000000000000\n        /* \"#utility.yul\":10948:10949   */\n      0x00\n        /* \"#utility.yul\":10941:11029   */\n      mstore\n        /* \"#utility.yul\":11048:11052   */\n      0x11\n        /* \"#utility.yul\":11045:11046   */\n      0x04\n        /* \"#utility.yul\":11038:11053   */\n      mstore\n        /* \"#utility.yul\":11072:11076   */\n      0x24\n        /* \"#utility.yul\":11069:11070   */\n      0x00\n        /* \"#utility.yul\":11062:11077   */\n      revert\n        /* \"#utility.yul\":11089:11280   */\n    tag_62:\n        /* \"#utility.yul\":11129:11132   */\n      0x00\n        /* \"#utility.yul\":11148:11168   */\n      tag_286\n        /* \"#utility.yul\":11166:11167   */\n      dup3\n        /* \"#utility.yul\":11148:11168   */\n      tag_119\n      jump\t// in\n    tag_286:\n        /* \"#utility.yul\":11143:11168   */\n      swap2\n      pop\n        /* \"#utility.yul\":11182:11202   */\n      tag_287\n        /* \"#utility.yul\":11200:11201   */\n      dup4\n        /* \"#utility.yul\":11182:11202   */\n      tag_119\n      jump\t// in\n    tag_287:\n        /* \"#utility.yul\":11177:11202   */\n      swap3\n      pop\n        /* \"#utility.yul\":11225:11226   */\n      dup3\n        /* \"#utility.yul\":11222:11223   */\n      dup3\n        /* \"#utility.yul\":11218:11227   */\n      add\n        /* \"#utility.yul\":11211:11227   */\n      swap1\n      pop\n        /* \"#utility.yul\":11246:11249   */\n      dup1\n        /* \"#utility.yul\":11243:11244   */\n      dup3\n        /* \"#utility.yul\":11240:11250   */\n      gt\n        /* \"#utility.yul\":11237:11273   */\n      iszero\n      tag_288\n      jumpi\n        /* \"#utility.yul\":11253:11271   */\n      tag_289\n      tag_150\n      jump\t// in\n    tag_289:\n        /* \"#utility.yul\":11237:11273   */\n    tag_288:\n        /* \"#utility.yul\":11089:11280   */\n      swap3\n      swap2\n      pop\n      pop\n      jump\t// out\n        /* \"#utility.yul\":11286:11522   */\n    tag_151:\n        /* \"#utility.yul\":11426:11460   */\n      0x4e6f20736520707565646520766572206c6f7320726573756c7461646f732061\n        /* \"#utility.yul\":11422:11423   */\n      0x00\n        /* \"#utility.yul\":11414:11420   */\n      dup3\n        /* \"#utility.yul\":11410:11424   */\n      add\n        /* \"#utility.yul\":11403:11461   */\n      mstore\n        /* \"#utility.yul\":11495:11514   */\n      0x6e7465732064652066696e616c697a6172000000000000000000000000000000\n        /* \"#utility.yul\":11490:11492   */\n      0x20\n        /* \"#utility.yul\":11482:11488   */\n      dup3\n        /* \"#utility.yul\":11478:11493   */\n      add\n        /* \"#utility.yul\":11471:11515   */\n      mstore\n        /* \"#utility.yul\":11286:11522   */\n      pop\n      jump\t// out\n        /* \"#utility.yul\":11528:11894   */\n    tag_152:\n        /* \"#utility.yul\":11670:11673   */\n      0x00\n        /* \"#utility.yul\":11691:11758   */\n      tag_292\n        /* \"#utility.yul\":11755:11757   */\n      0x31\n        /* \"#utility.yul\":11750:11753   */\n      dup4\n        /* \"#utility.yul\":11691:11758   */\n      tag_123\n      jump\t// in\n    tag_292:\n        /* \"#utility.yul\":11684:11758   */\n      swap2\n      pop\n        /* \"#utility.yul\":11767:11860   */\n      tag_293\n        /* \"#utility.yul\":11856:11859   */\n      dup3\n        /* \"#utility.yul\":11767:11860   */\n      tag_151\n      jump\t// in\n    tag_293:\n        /* \"#utility.yul\":11885:11887   */\n      0x40\n        /* \"#utility.yul\":11880:11883   */\n      dup3\n        /* \"#utility.yul\":11876:11888   */\n      add\n        /* \"#utility.yul\":11869:11888   */\n      swap1\n      pop\n        /* \"#utility.yul\":11528:11894   */\n      swap2\n      swap1\n      pop\n      jump\t// out\n        /* \"#utility.yul\":11900:12319   */\n    tag_66:\n        /* \"#utility.yul\":12066:12070   */\n      0x00\n        /* \"#utility.yul\":12104:12106   */\n      0x20\n        /* \"#utility.yul\":12093:12102   */\n      dup3\n        /* \"#utility.yul\":12089:12107   */\n      add\n        /* \"#utility.yul\":12081:12107   */\n      swap1\n      pop\n        /* \"#utility.yul\":12153:12162   */\n      dup2\n        /* \"#utility.yul\":12147:12151   */\n      dup2\n        /* \"#utility.yul\":12143:12163   */\n      sub\n        /* \"#utility.yul\":12139:12140   */\n      0x00\n        /* \"#utility.yul\":12128:12137   */\n      dup4\n        /* \"#utility.yul\":12124:12141   */\n      add\n        /* \"#utility.yul\":12117:12164   */\n      mstore\n        /* \"#utility.yul\":12181:12312   */\n      tag_295\n        /* \"#utility.yul\":12307:12311   */\n      dup2\n        /* \"#utility.yul\":12181:12312   */\n      tag_152\n      jump\t// in\n    tag_295:\n        /* \"#utility.yul\":12173:12312   */\n      swap1\n      pop\n        /* \"#utility.yul\":11900:12319   */\n      swap2\n      swap1\n      pop\n      jump\t// out\n        /* \"#utility.yul\":12325:12570   */\n    tag_153:\n        /* \"#utility.yul\":12465:12499   */\n      0x536f6c6f20656c2063726561646f72207075656465207574696c697a61722065\n        /* \"#utility.yul\":12461:12462   */\n      0x00\n        /* \"#utility.yul\":12453:12459   */\n      dup3\n        /* \"#utility.yul\":12449:12463   */\n      add\n        /* \"#utility.yul\":12442:12500   */\n      mstore\n        /* \"#utility.yul\":12534:12562   */\n      0x7374612066756e63696f6e206465206c6120766f746163696f6e000000000000\n        /* \"#utility.yul\":12529:12531   */\n      0x20\n        /* \"#utility.yul\":12521:12527   */\n      dup3\n        /* \"#utility.yul\":12517:12532   */\n      add\n        /* \"#utility.yul\":12510:12563   */\n      mstore\n        /* \"#utility.yul\":12325:12570   */\n      pop\n      jump\t// out\n        /* \"#utility.yul\":12576:12942   */\n    tag_154:\n        /* \"#utility.yul\":12718:12721   */\n      0x00\n        /* \"#utility.yul\":12739:12806   */\n      tag_298\n        /* \"#utility.yul\":12803:12805   */\n      0x3a\n        /* \"#utility.yul\":12798:12801   */\n      dup4\n        /* \"#utility.yul\":12739:12806   */\n      tag_123\n      jump\t// in\n    tag_298:\n        /* \"#utility.yul\":12732:12806   */\n      swap2\n      pop\n        /* \"#utility.yul\":12815:12908   */\n      tag_299\n        /* \"#utility.yul\":12904:12907   */\n      dup3\n        /* \"#utility.yul\":12815:12908   */\n      tag_153\n      jump\t// in\n    tag_299:\n        /* \"#utility.yul\":12933:12935   */\n      0x40\n        /* \"#utility.yul\":12928:12931   */\n      dup3\n        /* \"#utility.yul\":12924:12936   */\n      add\n        /* \"#utility.yul\":12917:12936   */\n      swap1\n      pop\n        /* \"#utility.yul\":12576:12942   */\n      swap2\n      swap1\n      pop\n      jump\t// out\n        /* \"#utility.yul\":12948:13367   */\n    tag_75:\n        /* \"#utility.yul\":13114:13118   */\n      0x00\n        /* \"#utility.yul\":13152:13154   */\n      0x20\n        /* \"#utility.yul\":13141:13150   */\n      dup3\n        /* \"#utility.yul\":13137:13155   */\n      add\n        /* \"#utility.yul\":13129:13155   */\n      swap1\n      pop\n        /* \"#utility.yul\":13201:13210   */\n      dup2\n        /* \"#utility.yul\":13195:13199   */\n      dup2\n        /* \"#utility.yul\":13191:13211   */\n      sub\n        /* \"#utility.yul\":13187:13188   */\n      0x00\n        /* \"#utility.yul\":13176:13185   */\n      dup4\n        /* \"#utility.yul\":13172:13189   */\n      add\n        /* \"#utility.yul\":13165:13212   */\n      mstore\n        /* \"#utility.yul\":13229:13360   */\n      tag_301\n        /* \"#utility.yul\":13355:13359   */\n      dup2\n        /* \"#utility.yul\":13229:13360   */\n      tag_154\n      jump\t// in\n    tag_301:\n        /* \"#utility.yul\":13221:13360   */\n      swap1\n      pop\n        /* \"#utility.yul\":12948:13367   */\n      swap2\n      swap1\n      pop\n      jump\t// out\n        /* \"#utility.yul\":13373:13606   */\n    tag_96:\n        /* \"#utility.yul\":13412:13415   */\n      0x00\n        /* \"#utility.yul\":13435:13459   */\n      tag_303\n        /* \"#utility.yul\":13453:13458   */\n      dup3\n        /* \"#utility.yul\":13435:13459   */\n      tag_119\n      jump\t// in\n    tag_303:\n        /* \"#utility.yul\":13426:13459   */\n      swap2\n      pop\n        /* \"#utility.yul\":13481:13547   */\n      0xffffffffffffffffffffffffffffffffffffffffffffffffffffffffffffffff\n        /* \"#utility.yul\":13474:13479   */\n      dup3\n        /* \"#utility.yul\":13471:13548   */\n      sub\n        /* \"#utility.yul\":13468:13571   */\n      tag_304\n      jumpi\n        /* \"#utility.yul\":13551:13569   */\n      tag_305\n      tag_150\n      jump\t// in\n    tag_305:\n        /* \"#utility.yul\":13468:13571   */\n    tag_304:\n        /* \"#utility.yul\":13598:13599   */\n      0x01\n        /* \"#utility.yul\":13591:13596   */\n      dup3\n        /* \"#utility.yul\":13587:13600   */\n      add\n        /* \"#utility.yul\":13580:13600   */\n      swap1\n      pop\n        /* \"#utility.yul\":13373:13606   */\n      swap2\n      swap1\n      pop\n      jump\t// out\n        /* \"#utility.yul\":13612:13753   */\n    tag_155:\n        /* \"#utility.yul\":13661:13665   */\n      0x00\n        /* \"#utility.yul\":13684:13687   */\n      dup2\n        /* \"#utility.yul\":13676:13687   */\n      swap1\n      pop\n        /* \"#utility.yul\":13707:13710   */\n      dup2\n        /* \"#utility.yul\":13704:13705   */\n      0x00\n        /* \"#utility.yul\":13697:13711   */\n      mstore\n        /* \"#utility.yul\":13741:13745   */\n      0x20\n        /* \"#utility.yul\":13738:13739   */\n      0x00\n        /* \"#utility.yul\":13728:13746   */\n      keccak256\n        /* \"#utility.yul\":13720:13746   */\n      swap1\n      pop\n        /* \"#utility.yul\":13612:13753   */\n      swap2\n      swap1\n      pop\n      jump\t// out\n        /* \"#utility.yul\":13759:13852   */\n    tag_156:\n        /* \"#utility.yul\":13796:13802   */\n      0x00\n        /* \"#utility.yul\":13843:13845   */\n      0x20\n        /* \"#utility.yul\":13838:13840   */\n      0x1f\n        /* \"#utility.yul\":13831:13836   */\n      dup4\n        /* \"#utility.yul\":13827:13841   */\n      add\n        /* \"#utility.yul\":13823:13846   */\n      div\n        /* \"#utility.yul\":13813:13846   */\n      swap1\n      pop\n        /* \"#utility.yul\":13759:13852   */\n      swap2\n      swap1\n      pop\n      jump\t// out\n        /* \"#utility.yul\":13858:13965   */\n    tag_157:\n        /* \"#utility.yul\":13902:13910   */\n      0x00\n        /* \"#utility.yul\":13952:13957   */\n      dup3\n        /* \"#utility.yul\":13946:13950   */\n      dup3\n        /* \"#utility.yul\":13942:13958   */\n      shl\n        /* \"#utility.yul\":13921:13958   */\n      swap1\n      pop\n        /* \"#utility.yul\":13858:13965   */\n      swap3\n      swap2\n      pop\n      pop\n      jump\t// out\n        /* \"#utility.yul\":13971:14364   */\n    tag_158:\n        /* \"#utility.yul\":14040:14046   */\n      0x00\n        /* \"#utility.yul\":14090:14091   */\n      0x08\n        /* \"#utility.yul\":14078:14088   */\n      dup4\n        /* \"#utility.yul\":14074:14092   */\n      mul\n        /* \"#utility.yul\":14113:14210   */\n      tag_310\n        /* \"#utility.yul\":14143:14209   */\n      0xffffffffffffffffffffffffffffffffffffffffffffffffffffffffffffffff\n        /* \"#utility.yul\":14132:14141   */\n      dup3\n        /* \"#utility.yul\":14113:14210   */\n      tag_157\n      jump\t// in\n    tag_310:\n        /* \"#utility.yul\":14231:14270   */\n      tag_311\n        /* \"#utility.yul\":14261:14269   */\n      dup7\n        /* \"#utility.yul\":14250:14259   */\n      dup4\n        /* \"#utility.yul\":14231:14270   */\n      tag_157\n      jump\t// in\n    tag_311:\n        /* \"#utility.yul\":14219:14270   */\n      swap6\n      pop\n        /* \"#utility.yul\":14303:14307   */\n      dup1\n        /* \"#utility.yul\":14299:14308   */\n      not\n        /* \"#utility.yul\":14292:14297   */\n      dup5\n        /* \"#utility.yul\":14288:14309   */\n      and\n        /* \"#utility.yul\":14279:14309   */\n      swap4\n      pop\n        /* \"#utility.yul\":14352:14356   */\n      dup1\n        /* \"#utility.yul\":14342:14350   */\n      dup7\n        /* \"#utility.yul\":14338:14357   */\n      and\n        /* \"#utility.yul\":14331:14336   */\n      dup5\n        /* \"#utility.yul\":14328:14358   */\n      or\n        /* \"#utility.yul\":14318:14358   */\n      swap3\n      pop\n        /* \"#utility.yul\":14047:14364   */\n      pop\n      pop\n        /* \"#utility.yul\":13971:14364   */\n      swap4\n      swap3\n      pop\n      pop\n      pop\n      jump\t// out\n        /* \"#utility.yul\":14370:14430   */\n    tag_159:\n        /* \"#utility.yul\":14398:14401   */\n      0x00\n        /* \"#utility.yul\":14419:14424   */\n      dup2\n        /* \"#utility.yul\":14412:14424   */\n      swap1\n      pop\n        /* \"#utility.yul\":14370:14430   */\n      swap2\n      swap1\n      pop\n      jump\t// out\n        /* \"#utility.yul\":14436:14578   */\n    tag_160:\n        /* \"#utility.yul\":14486:14495   */\n      0x00\n        /* \"#utility.yul\":14519:14572   */\n      tag_314\n        /* \"#utility.yul\":14537:14571   */\n      tag_315\n        /* \"#utility.yul\":14546:14570   */\n      tag_316\n        /* \"#utility.yul\":14564:14569   */\n      dup5\n        /* \"#utility.yul\":14546:14570   */\n      tag_119\n      jump\t// in\n    tag_316:\n        /* \"#utility.yul\":14537:14571   */\n      tag_159\n      jump\t// in\n    tag_315:\n        /* \"#utility.yul\":14519:14572   */\n      tag_119\n      jump\t// in\n    tag_314:\n        /* \"#utility.yul\":14506:14572   */\n      swap1\n      pop\n        /* \"#utility.yul\":14436:14578   */\n      swap2\n      swap1\n      pop\n      jump\t// out\n        /* \"#utility.yul\":14584:14659   */\n    tag_161:\n        /* \"#utility.yul\":14627:14630   */\n      0x00\n        /* \"#utility.yul\":14648:14653   */\n      dup2\n        /* \"#utility.yul\":14641:14653   */\n      swap1\n      pop\n        /* \"#utility.yul\":14584:14659   */\n      swap2\n      swap1\n      pop\n      jump\t// out\n        /* \"#utility.yul\":14665:14934   */\n    tag_162:\n        /* \"#utility.yul\":14775:14814   */\n      tag_319\n        /* \"#utility.yul\":14806:14813   */\n      dup4\n        /* \"#utility.yul\":14775:14814   */\n      tag_160\n      jump\t// in\n    tag_319:\n        /* \"#utility.yul\":14836:14927   */\n      tag_320\n        /* \"#utility.yul\":14885:14926   */\n      tag_321\n        /* \"#utility.yul\":14909:14925   */\n      dup3\n        /* \"#utility.yul\":14885:14926   */\n      tag_161\n      jump\t// in\n    tag_321:\n        /* \"#utility.yul\":14877:14883   */\n      dup5\n        /* \"#utility.yul\":14870:14874   */\n      dup5\n        /* \"#utility.yul\":14864:14875   */\n      sload\n        /* \"#utility.yul\":14836:14927   */\n      tag_158\n      jump\t// in\n    tag_320:\n        /* \"#utility.yul\":14830:14834   */\n      dup3\n        /* \"#utility.yul\":14823:14928   */\n      sstore\n        /* \"#utility.yul\":14741:14934   */\n      pop\n        /* \"#utility.yul\":14665:14934   */\n      pop\n      pop\n      pop\n      jump\t// out\n        /* \"#utility.yul\":14940:15013   */\n    tag_163:\n        /* \"#utility.yul\":14985:14988   */\n      0x00\n        /* \"#utility.yul\":14940:15013   */\n      swap1\n      jump\t// out\n        /* \"#utility.yul\":15019:15208   */\n    tag_164:\n        /* \"#utility.yul\":15096:15128   */\n      tag_324\n      tag_163\n      jump\t// in\n    tag_324:\n        /* \"#utility.yul\":15137:15202   */\n      tag_325\n        /* \"#utility.yul\":15195:15201   */\n      dup2\n        /* \"#utility.yul\":15187:15193   */\n      dup5\n        /* \"#utility.yul\":15181:15185   */\n      dup5\n        /* \"#utility.yul\":15137:15202   */\n      tag_162\n      jump\t// in\n    tag_325:\n        /* \"#utility.yul\":15072:15208   */\n      pop\n        /* \"#utility.yul\":15019:15208   */\n      pop\n      pop\n      jump\t// out\n        /* \"#utility.yul\":15214:15400   */\n    tag_165:\n        /* \"#utility.yul\":15274:15394   */\n    tag_327:\n        /* \"#utility.yul\":15291:15294   */\n      dup2\n        /* \"#utility.yul\":15284:15289   */\n      dup2\n        /* \"#utility.yul\":15281:15295   */\n      lt\n        /* \"#utility.yul\":15274:15394   */\n      iszero\n      tag_329\n      jumpi\n        /* \"#utility.yul\":15345:15384   */\n      tag_330\n        /* \"#utility.yul\":15382:15383   */\n      0x00\n        /* \"#utility.yul\":15375:15380   */\n      dup3\n        /* \"#utility.yul\":15345:15384   */\n      tag_164\n      jump\t// in\n    tag_330:\n        /* \"#utility.yul\":15318:15319   */\n      0x01\n        /* \"#utility.yul\":15311:15316   */\n      dup2\n        /* \"#utility.yul\":15307:15320   */\n      add\n        /* \"#utility.yul\":15298:15320   */\n      swap1\n      pop\n        /* \"#utility.yul\":15274:15394   */\n      jump(tag_327)\n    tag_329:\n        /* \"#utility.yul\":15214:15400   */\n      pop\n      pop\n      jump\t// out\n        /* \"#utility.yul\":15406:15949   */\n    tag_166:\n        /* \"#utility.yul\":15507:15509   */\n      0x1f\n        /* \"#utility.yul\":15502:15505   */\n      dup3\n        /* \"#utility.yul\":15499:15510   */\n      gt\n        /* \"#utility.yul\":15496:15942   */\n      iszero\n      tag_332\n      jumpi\n        /* \"#utility.yul\":15541:15579   */\n      tag_333\n        /* \"#utility.yul\":15573:15578   */\n      dup2\n        /* \"#utility.yul\":15541:15579   */\n      tag_155\n      jump\t// in\n    tag_333:\n        /* \"#utility.yul\":15625:15654   */\n      tag_334\n        /* \"#utility.yul\":15643:15653   */\n      dup5\n        /* \"#utility.yul\":15625:15654   */\n      tag_156\n      jump\t// in\n    tag_334:\n        /* \"#utility.yul\":15615:15623   */\n      dup2\n        /* \"#utility.yul\":15611:15655   */\n      add\n        /* \"#utility.yul\":15808:15810   */\n      0x20\n        /* \"#utility.yul\":15796:15806   */\n      dup6\n        /* \"#utility.yul\":15793:15811   */\n      lt\n        /* \"#utility.yul\":15790:15839   */\n      iszero\n      tag_335\n      jumpi\n        /* \"#utility.yul\":15829:15837   */\n      dup2\n        /* \"#utility.yul\":15814:15837   */\n      swap1\n      pop\n        /* \"#utility.yul\":15790:15839   */\n    tag_335:\n        /* \"#utility.yul\":15852:15932   */\n      tag_336\n        /* \"#utility.yul\":15908:15930   */\n      tag_337\n        /* \"#utility.yul\":15926:15929   */\n      dup6\n        /* \"#utility.yul\":15908:15930   */\n      tag_156\n      jump\t// in\n    tag_337:\n        /* \"#utility.yul\":15898:15906   */\n      dup4\n        /* \"#utility.yul\":15894:15931   */\n      add\n        /* \"#utility.yul\":15881:15892   */\n      dup3\n        /* \"#utility.yul\":15852:15932   */\n      tag_165\n      jump\t// in\n    tag_336:\n        /* \"#utility.yul\":15511:15942   */\n      pop\n      pop\n        /* \"#utility.yul\":15496:15942   */\n    tag_332:\n        /* \"#utility.yul\":15406:15949   */\n      pop\n      pop\n      pop\n      jump\t// out\n        /* \"#utility.yul\":15955:16072   */\n    tag_167:\n        /* \"#utility.yul\":16009:16017   */\n      0x00\n        /* \"#utility.yul\":16059:16064   */\n      dup3\n        /* \"#utility.yul\":16053:16057   */\n      dup3\n        /* \"#utility.yul\":16049:16065   */\n      shr\n        /* \"#utility.yul\":16028:16065   */\n      swap1\n      pop\n        /* \"#utility.yul\":15955:16072   */\n      swap3\n      swap2\n      pop\n      pop\n      jump\t// out\n        /* \"#utility.yul\":16078:16247   */\n    tag_168:\n        /* \"#utility.yul\":16122:16128   */\n      0x00\n        /* \"#utility.yul\":16155:16206   */\n      tag_340\n        /* \"#utility.yul\":16203:16204   */\n      0x00\n        /* \"#utility.yul\":16199:16205   */\n      not\n        /* \"#utility.yul\":16191:16196   */\n      dup5\n        /* \"#utility.yul\":16188:16189   */\n      0x08\n        /* \"#utility.yul\":16184:16197   */\n      mul\n        /* \"#utility.yul\":16155:16206   */\n      tag_167\n      jump\t// in\n    tag_340:\n        /* \"#utility.yul\":16151:16207   */\n      not\n        /* \"#utility.yul\":16236:16240   */\n      dup1\n        /* \"#utility.yul\":16230:16234   */\n      dup4\n        /* \"#utility.yul\":16226:16241   */\n      and\n        /* \"#utility.yul\":16216:16241   */\n      swap2\n      pop\n        /* \"#utility.yul\":16129:16247   */\n      pop\n        /* \"#utility.yul\":16078:16247   */\n      swap3\n      swap2\n      pop\n      pop\n      jump\t// out\n        /* \"#utility.yul\":16252:16547   */\n    tag_169:\n        /* \"#utility.yul\":16328:16332   */\n      0x00\n        /* \"#utility.yul\":16474:16503   */\n      tag_342\n        /* \"#utility.yul\":16499:16502   */\n      dup4\n        /* \"#utility.yul\":16493:16497   */\n      dup4\n        /* \"#utility.yul\":16474:16503   */\n      tag_168\n      jump\t// in\n    tag_342:\n        /* \"#utility.yul\":16466:16503   */\n      swap2\n      pop\n        /* \"#utility.yul\":16536:16539   */\n      dup3\n        /* \"#utility.yul\":16533:16534   */\n      0x02\n        /* \"#utility.yul\":16529:16540   */\n      mul\n        /* \"#utility.yul\":16523:16527   */\n      dup3\n        /* \"#utility.yul\":16520:16541   */\n      or\n        /* \"#utility.yul\":16512:16541   */\n      swap1\n      pop\n        /* \"#utility.yul\":16252:16547   */\n      swap3\n      swap2\n      pop\n      pop\n      jump\t// out\n        /* \"#utility.yul\":16552:17947   */\n    tag_98:\n        /* \"#utility.yul\":16669:16706   */\n      tag_344\n        /* \"#utility.yul\":16702:16705   */\n      dup3\n        /* \"#utility.yul\":16669:16706   */\n      tag_122\n      jump\t// in\n    tag_344:\n        /* \"#utility.yul\":16771:16789   */\n      0xffffffffffffffff\n        /* \"#utility.yul\":16763:16769   */\n      dup2\n        /* \"#utility.yul\":16760:16790   */\n      gt\n        /* \"#utility.yul\":16757:16813   */\n      iszero\n      tag_345\n      jumpi\n        /* \"#utility.yul\":16793:16811   */\n      tag_346\n      tag_136\n      jump\t// in\n    tag_346:\n        /* \"#utility.yul\":16757:16813   */\n    tag_345:\n        /* \"#utility.yul\":16837:16875   */\n      tag_347\n        /* \"#utility.yul\":16869:16873   */\n      dup3\n        /* \"#utility.yul\":16863:16874   */\n      sload\n        /* \"#utility.yul\":16837:16875   */\n      tag_42\n      jump\t// in\n    tag_347:\n        /* \"#utility.yul\":16922:16989   */\n      tag_348\n        /* \"#utility.yul\":16982:16988   */\n      dup3\n        /* \"#utility.yul\":16974:16980   */\n      dup3\n        /* \"#utility.yul\":16968:16972   */\n      dup6\n        /* \"#utility.yul\":16922:16989   */\n      tag_166\n      jump\t// in\n    tag_348:\n        /* \"#utility.yul\":17016:17017   */\n      0x00\n        /* \"#utility.yul\":17040:17044   */\n      0x20\n        /* \"#utility.yul\":17027:17044   */\n      swap1\n      pop\n        /* \"#utility.yul\":17072:17074   */\n      0x1f\n        /* \"#utility.yul\":17064:17070   */\n      dup4\n        /* \"#utility.yul\":17061:17075   */\n      gt\n        /* \"#utility.yul\":17089:17090   */\n      0x01\n        /* \"#utility.yul\":17084:17702   */\n      dup2\n      eq\n      tag_350\n      jumpi\n        /* \"#utility.yul\":17746:17747   */\n      0x00\n        /* \"#utility.yul\":17763:17769   */\n      dup5\n        /* \"#utility.yul\":17760:17837   */\n      iszero\n      tag_351\n      jumpi\n        /* \"#utility.yul\":17812:17821   */\n      dup3\n        /* \"#utility.yul\":17807:17810   */\n      dup8\n        /* \"#utility.yul\":17803:17822   */\n      add\n        /* \"#utility.yul\":17797:17823   */\n      mload\n        /* \"#utility.yul\":17788:17823   */\n      swap1\n      pop\n        /* \"#utility.yul\":17760:17837   */\n    tag_351:\n        /* \"#utility.yul\":17863:17930   */\n      tag_352\n        /* \"#utility.yul\":17923:17929   */\n      dup6\n        /* \"#utility.yul\":17916:17921   */\n      dup3\n        /* \"#utility.yul\":17863:17930   */\n      tag_169\n      jump\t// in\n    tag_352:\n        /* \"#utility.yul\":17857:17861   */\n      dup7\n        /* \"#utility.yul\":17850:17931   */\n      sstore\n        /* \"#utility.yul\":17719:17941   */\n      pop\n        /* \"#utility.yul\":17054:17941   */\n      jump(tag_349)\n        /* \"#utility.yul\":17084:17702   */\n    tag_350:\n        /* \"#utility.yul\":17136:17140   */\n      0x1f\n        /* \"#utility.yul\":17132:17141   */\n      not\n        /* \"#utility.yul\":17124:17130   */\n      dup5\n        /* \"#utility.yul\":17120:17142   */\n      and\n        /* \"#utility.yul\":17170:17207   */\n      tag_353\n        /* \"#utility.yul\":17202:17206   */\n      dup7\n        /* \"#utility.yul\":17170:17207   */\n      tag_155\n      jump\t// in\n    tag_353:\n        /* \"#utility.yul\":17229:17230   */\n      0x00\n        /* \"#utility.yul\":17243:17451   */\n    tag_354:\n        /* \"#utility.yul\":17257:17264   */\n      dup3\n        /* \"#utility.yul\":17254:17255   */\n      dup2\n        /* \"#utility.yul\":17251:17265   */\n      lt\n        /* \"#utility.yul\":17243:17451   */\n      iszero\n      tag_356\n      jumpi\n        /* \"#utility.yul\":17336:17345   */\n      dup5\n        /* \"#utility.yul\":17331:17334   */\n      dup10\n        /* \"#utility.yul\":17327:17346   */\n      add\n        /* \"#utility.yul\":17321:17347   */\n      mload\n        /* \"#utility.yul\":17313:17319   */\n      dup3\n        /* \"#utility.yul\":17306:17348   */\n      sstore\n        /* \"#utility.yul\":17387:17388   */\n      0x01\n        /* \"#utility.yul\":17379:17385   */\n      dup3\n        /* \"#utility.yul\":17375:17389   */\n      add\n        /* \"#utility.yul\":17365:17389   */\n      swap2\n      pop\n        /* \"#utility.yul\":17434:17436   */\n      0x20\n        /* \"#utility.yul\":17423:17432   */\n      dup6\n        /* \"#utility.yul\":17419:17437   */\n      add\n        /* \"#utility.yul\":17406:17437   */\n      swap5\n      pop\n        /* \"#utility.yul\":17280:17284   */\n      0x20\n        /* \"#utility.yul\":17277:17278   */\n      dup2\n        /* \"#utility.yul\":17273:17285   */\n      add\n        /* \"#utility.yul\":17268:17285   */\n      swap1\n      pop\n        /* \"#utility.yul\":17243:17451   */\n      jump(tag_354)\n    tag_356:\n        /* \"#utility.yul\":17479:17485   */\n      dup7\n        /* \"#utility.yul\":17470:17477   */\n      dup4\n        /* \"#utility.yul\":17467:17486   */\n      lt\n        /* \"#utility.yul\":17464:17643   */\n      iszero\n      tag_357\n      jumpi\n        /* \"#utility.yul\":17537:17546   */\n      dup5\n        /* \"#utility.yul\":17532:17535   */\n      dup10\n        /* \"#utility.yul\":17528:17547   */\n      add\n        /* \"#utility.yul\":17522:17548   */\n      mload\n        /* \"#utility.yul\":17580:17628   */\n      tag_358\n        /* \"#utility.yul\":17622:17626   */\n      0x1f\n        /* \"#utility.yul\":17614:17620   */\n      dup10\n        /* \"#utility.yul\":17610:17627   */\n      and\n        /* \"#utility.yul\":17599:17608   */\n      dup3\n        /* \"#utility.yul\":17580:17628   */\n      tag_168\n      jump\t// in\n    tag_358:\n        /* \"#utility.yul\":17572:17578   */\n      dup4\n        /* \"#utility.yul\":17565:17629   */\n      sstore\n        /* \"#utility.yul\":17487:17643   */\n      pop\n        /* \"#utility.yul\":17464:17643   */\n    tag_357:\n        /* \"#utility.yul\":17689:17690   */\n      0x01\n        /* \"#utility.yul\":17685:17686   */\n      0x02\n        /* \"#utility.yul\":17677:17683   */\n      dup9\n        /* \"#utility.yul\":17673:17687   */\n      mul\n        /* \"#utility.yul\":17669:17691   */\n      add\n        /* \"#utility.yul\":17663:17667   */\n      dup9\n        /* \"#utility.yul\":17656:17692   */\n      sstore\n        /* \"#utility.yul\":17091:17702   */\n      pop\n      pop\n      pop\n        /* \"#utility.yul\":17054:17941   */\n    tag_349:\n      pop\n        /* \"#utility.yul\":16644:17947   */\n      pop\n      pop\n      pop\n        /* \"#utility.yul\":16552:17947   */\n      pop\n      pop\n      jump\t// out\n        /* \"#utility.yul\":17953:18178   */\n    tag_170:\n        /* \"#utility.yul\":18093:18127   */\n      0x536f6c6f20656c2063726561646f72207075656465206167726567617220766f\n        /* \"#utility.yul\":18089:18090   */\n      0x00\n        /* \"#utility.yul\":18081:18087   */\n      dup3\n        /* \"#utility.yul\":18077:18091   */\n      add\n        /* \"#utility.yul\":18070:18128   */\n      mstore\n        /* \"#utility.yul\":18162:18170   */\n      0x74616e7465730000000000000000000000000000000000000000000000000000\n        /* \"#utility.yul\":18157:18159   */\n      0x20\n        /* \"#utility.yul\":18149:18155   */\n      dup3\n        /* \"#utility.yul\":18145:18160   */\n      add\n        /* \"#utility.yul\":18138:18171   */\n      mstore\n        /* \"#utility.yul\":17953:18178   */\n      pop\n      jump\t// out\n        /* \"#utility.yul\":18184:18550   */\n    tag_171:\n        /* \"#utility.yul\":18326:18329   */\n      0x00\n        /* \"#utility.yul\":18347:18414   */\n      tag_361\n        /* \"#utility.yul\":18411:18413   */\n      0x26\n        /* \"#utility.yul\":18406:18409   */\n      dup4\n        /* \"#utility.yul\":18347:18414   */\n      tag_123\n      jump\t// in\n    tag_361:\n        /* \"#utility.yul\":18340:18414   */\n      swap2\n      pop\n        /* \"#utility.yul\":18423:18516   */\n      tag_362\n        /* \"#utility.yul\":18512:18515   */\n      dup3\n        /* \"#utility.yul\":18423:18516   */\n      tag_170\n      jump\t// in\n    tag_362:\n        /* \"#utility.yul\":18541:18543   */\n      0x40\n        /* \"#utility.yul\":18536:18539   */\n      dup3\n        /* \"#utility.yul\":18532:18544   */\n      add\n        /* \"#utility.yul\":18525:18544   */\n      swap1\n      pop\n        /* \"#utility.yul\":18184:18550   */\n      swap2\n      swap1\n      pop\n      jump\t// out\n        /* \"#utility.yul\":18556:18975   */\n    tag_110:\n        /* \"#utility.yul\":18722:18726   */\n      0x00\n        /* \"#utility.yul\":18760:18762   */\n      0x20\n        /* \"#utility.yul\":18749:18758   */\n      dup3\n        /* \"#utility.yul\":18745:18763   */\n      add\n        /* \"#utility.yul\":18737:18763   */\n      swap1\n      pop\n        /* \"#utility.yul\":18809:18818   */\n      dup2\n        /* \"#utility.yul\":18803:18807   */\n      dup2\n        /* \"#utility.yul\":18799:18819   */\n      sub\n        /* \"#utility.yul\":18795:18796   */\n      0x00\n        /* \"#utility.yul\":18784:18793   */\n      dup4\n        /* \"#utility.yul\":18780:18797   */\n      add\n        /* \"#utility.yul\":18773:18820   */\n      mstore\n        /* \"#utility.yul\":18837:18968   */\n      tag_364\n        /* \"#utility.yul\":18963:18967   */\n      dup2\n        /* \"#utility.yul\":18837:18968   */\n      tag_171\n      jump\t// in\n    tag_364:\n        /* \"#utility.yul\":18829:18968   */\n      swap1\n      pop\n        /* \"#utility.yul\":18556:18975   */\n      swap2\n      swap1\n      pop\n      jump\t// out\n        /* \"#utility.yul\":18981:19209   */\n    tag_172:\n        /* \"#utility.yul\":19121:19155   */\n      0x456c20766f74616e746520717565206465736561206167726567617220796120\n        /* \"#utility.yul\":19117:19118   */\n      0x00\n        /* \"#utility.yul\":19109:19115   */\n      dup3\n        /* \"#utility.yul\":19105:19119   */\n      add\n        /* \"#utility.yul\":19098:19156   */\n      mstore\n        /* \"#utility.yul\":19190:19201   */\n      0x686120766f7461646f0000000000000000000000000000000000000000000000\n        /* \"#utility.yul\":19185:19187   */\n      0x20\n        /* \"#utility.yul\":19177:19183   */\n      dup3\n        /* \"#utility.yul\":19173:19188   */\n      add\n        /* \"#utility.yul\":19166:19202   */\n      mstore\n        /* \"#utility.yul\":18981:19209   */\n      pop\n      jump\t// out\n        /* \"#utility.yul\":19215:19581   */\n    tag_173:\n        /* \"#utility.yul\":19357:19360   */\n      0x00\n        /* \"#utility.yul\":19378:19445   */\n      tag_367\n        /* \"#utility.yul\":19442:19444   */\n      0x29\n        /* \"#utility.yul\":19437:19440   */\n      dup4\n        /* \"#utility.yul\":19378:19445   */\n      tag_123\n      jump\t// in\n    tag_367:\n        /* \"#utility.yul\":19371:19445   */\n      swap2\n      pop\n        /* \"#utility.yul\":19454:19547   */\n      tag_368\n        /* \"#utility.yul\":19543:19546   */\n      dup3\n        /* \"#utility.yul\":19454:19547   */\n      tag_172\n      jump\t// in\n    tag_368:\n        /* \"#utility.yul\":19572:19574   */\n      0x40\n        /* \"#utility.yul\":19567:19570   */\n      dup3\n        /* \"#utility.yul\":19563:19575   */\n      add\n        /* \"#utility.yul\":19556:19575   */\n      swap1\n      pop\n        /* \"#utility.yul\":19215:19581   */\n      swap2\n      swap1\n      pop\n      jump\t// out\n        /* \"#utility.yul\":19587:20006   */\n    tag_113:\n        /* \"#utility.yul\":19753:19757   */\n      0x00\n        /* \"#utility.yul\":19791:19793   */\n      0x20\n        /* \"#utility.yul\":19780:19789   */\n      dup3\n        /* \"#utility.yul\":19776:19794   */\n      add\n        /* \"#utility.yul\":19768:19794   */\n      swap1\n      pop\n        /* \"#utility.yul\":19840:19849   */\n      dup2\n        /* \"#utility.yul\":19834:19838   */\n      dup2\n        /* \"#utility.yul\":19830:19850   */\n      sub\n        /* \"#utility.yul\":19826:19827   */\n      0x00\n        /* \"#utility.yul\":19815:19824   */\n      dup4\n        /* \"#utility.yul\":19811:19828   */\n      add\n        /* \"#utility.yul\":19804:19851   */\n      mstore\n        /* \"#utility.yul\":19868:19999   */\n      tag_370\n        /* \"#utility.yul\":19994:19998   */\n      dup2\n        /* \"#utility.yul\":19868:19999   */\n      tag_173\n      jump\t// in\n    tag_370:\n        /* \"#utility.yul\":19860:19999   */\n      swap1\n      pop\n        /* \"#utility.yul\":19587:20006   */\n      swap2\n      swap1\n      pop\n      jump\t// out\n\n    auxdata: 0xa2646970667358221220d8e60a3a780f7564c5149c99cd2345814b33e09440ac61c234b3b6ce85ab1c6e64736f6c63430008120033\n}\n",
				"bytecode": {
					"linkReferences": {},
					"object": "60806040523480156200001157600080fd5b5060405162001d3d38038062001d3d833981810160405281019062000037919062000436565b6000600360006101000a81548160ff021916908315150217905550336000806101000a81548173ffffffffffffffffffffffffffffffffffffffff021916908373ffffffffffffffffffffffffffffffffffffffff16021790555060018060008060009054906101000a900473ffffffffffffffffffffffffffffffffffffffff1673ffffffffffffffffffffffffffffffffffffffff1673ffffffffffffffffffffffffffffffffffffffff1681526020019081526020016000206002018190555060005b81518110156200019f57600260405180604001604052808484815181106200012a576200012962000487565b5b602002602001015181526020016000815250908060018154018082558091505060019003906000526020600020906002020160009091909190915060008201518160000190816200017c919062000701565b506020820151816001015550508080620001969062000817565b915050620000fd565b505062000864565b6000604051905090565b600080fd5b600080fd5b600080fd5b6000601f19601f8301169050919050565b7f4e487b7100000000000000000000000000000000000000000000000000000000600052604160045260246000fd5b6200020b82620001c0565b810181811067ffffffffffffffff821117156200022d576200022c620001d1565b5b80604052505050565b600062000242620001a7565b905062000250828262000200565b919050565b600067ffffffffffffffff821115620002735762000272620001d1565b5b602082029050602081019050919050565b600080fd5b600080fd5b600067ffffffffffffffff821115620002ac57620002ab620001d1565b5b620002b782620001c0565b9050602081019050919050565b60005b83811015620002e4578082015181840152602081019050620002c7565b60008484015250505050565b60006200030762000301846200028e565b62000236565b90508281526020810184848401111562000326576200032562000289565b5b62000333848285620002c4565b509392505050565b600082601f830112620003535762000352620001bb565b5b815162000365848260208601620002f0565b91505092915050565b6000620003856200037f8462000255565b62000236565b90508083825260208201905060208402830185811115620003ab57620003aa62000284565b5b835b81811015620003f957805167ffffffffffffffff811115620003d457620003d3620001bb565b5b808601620003e389826200033b565b85526020850194505050602081019050620003ad565b5050509392505050565b600082601f8301126200041b576200041a620001bb565b5b81516200042d8482602086016200036e565b91505092915050565b6000602082840312156200044f576200044e620001b1565b5b600082015167ffffffffffffffff81111562000470576200046f620001b6565b5b6200047e8482850162000403565b91505092915050565b7f4e487b7100000000000000000000000000000000000000000000000000000000600052603260045260246000fd5b600081519050919050565b7f4e487b7100000000000000000000000000000000000000000000000000000000600052602260045260246000fd5b600060028204905060018216806200050957607f821691505b6020821081036200051f576200051e620004c1565b5b50919050565b60008190508160005260206000209050919050565b60006020601f8301049050919050565b600082821b905092915050565b600060088302620005897fffffffffffffffffffffffffffffffffffffffffffffffffffffffffffffffff826200054a565b6200059586836200054a565b95508019841693508086168417925050509392505050565b6000819050919050565b6000819050919050565b6000620005e2620005dc620005d684620005ad565b620005b7565b620005ad565b9050919050565b6000819050919050565b620005fe83620005c1565b620006166200060d82620005e9565b84845462000557565b825550505050565b600090565b6200062d6200061e565b6200063a818484620005f3565b505050565b5b8181101562000662576200065660008262000623565b60018101905062000640565b5050565b601f821115620006b1576200067b8162000525565b62000686846200053a565b8101602085101562000696578190505b620006ae620006a5856200053a565b8301826200063f565b50505b505050565b600082821c905092915050565b6000620006d660001984600802620006b6565b1980831691505092915050565b6000620006f18383620006c3565b9150826002028217905092915050565b6200070c82620004b6565b67ffffffffffffffff811115620007285762000727620001d1565b5b620007348254620004f0565b6200074182828562000666565b600060209050601f83116001811462000779576000841562000764578287015190505b620007708582620006e3565b865550620007e0565b601f198416620007898662000525565b60005b82811015620007b3578489015182556001820191506020850194506020810190506200078c565b86831015620007d35784890151620007cf601f891682620006c3565b8355505b6001600288020188555050505b505050505050565b7f4e487b7100000000000000000000000000000000000000000000000000000000600052601160045260246000fd5b60006200082482620005ad565b91507fffffffffffffffffffffffffffffffffffffffffffffffffffffffffffffffff8203620008595762000858620007e8565b5b600182019050919050565b6114c980620008746000396000f3fe608060405234801561001057600080fd5b506004361061007d5760003560e01c8063437a88a31161005b578063437a88a3146100ee57806392ebdcd2146100f8578063a92284d014610116578063c270cb52146101485761007d565b806317262d8a1461008257806321606831146100b357806325277cc0146100cf575b600080fd5b61009c600480360381019061009791906109bb565b610164565b6040516100aa929190610a87565b60405180910390f35b6100cd60048036038101906100c891906109bb565b610220565b005b6100d76103b6565b6040516100e5929190610a87565b60405180910390f35b6100f661049f565b005b610100610691565b60405161010d9190610af8565b60405180910390f35b610130600480360381019061012b9190610b3f565b6106b5565b60405161013f93929190610b87565b60405180910390f35b610162600480360381019061015d9190610d06565b6106ec565b005b6002818154811061017457600080fd5b906000526020600020906002020160009150905080600001805461019790610d7e565b80601f01602080910402602001604051908101604052809291908181526020018280546101c390610d7e565b80156102105780601f106101e557610100808354040283529160200191610210565b820191906000526020600020905b8154815290600101906020018083116101f357829003601f168201915b5050505050908060010154905082565b6000600160003373ffffffffffffffffffffffffffffffffffffffff1673ffffffffffffffffffffffffffffffffffffffff168152602001908152602001600020905060008160020154036102aa576040517f08c379a00000000000000000000000000000000000000000000000000000000081526004016102a190610dfb565b60405180910390fd5b600360009054906101000a900460ff16156102fa576040517f08c379a00000000000000000000000000000000000000000000000000000000081526004016102f190610e67565b60405180910390fd5b8060000160009054906101000a900460ff161561034c576040517f08c379a000000000000000000000000000000000000000000000000000000000815260040161034390610ed3565b60405180910390fd5b60018160000160006101000a81548160ff02191690831515021790555081816001018190555080600201546002838154811061038b5761038a610ef3565b5b906000526020600020906002020160010160008282546103ab9190610f51565b925050819055505050565b60606000600360009054906101000a900460ff16610409576040517f08c379a000000000000000000000000000000000000000000000000000000000815260040161040090610ff7565b60405180910390fd5b6004805461041690610d7e565b80601f016020809104026020016040519081016040528092919081815260200182805461044290610d7e565b801561048f5780601f106104645761010080835404028352916020019161048f565b820191906000526020600020905b81548152906001019060200180831161047257829003601f168201915b5050505050915060055490509091565b60008054906101000a900473ffffffffffffffffffffffffffffffffffffffff1673ffffffffffffffffffffffffffffffffffffffff163373ffffffffffffffffffffffffffffffffffffffff161461052d576040517f08c379a000000000000000000000000000000000000000000000000000000000815260040161052490611089565b60405180910390fd5b6001600360006101000a81548160ff0219169083151502179055506000606060005b60028054905081101561067557826002828154811061057157610570610ef3565b5b9060005260206000209060020201600101541115610662576002818154811061059d5761059c610ef3565b5b9060005260206000209060020201600101549250600281815481106105c5576105c4610ef3565b5b906000526020600020906002020160000180546105e190610d7e565b80601f016020809104026020016040519081016040528092919081815260200182805461060d90610d7e565b801561065a5780601f1061062f5761010080835404028352916020019161065a565b820191906000526020600020905b81548152906001019060200180831161063d57829003601f168201915b505050505091505b808061066d906110a9565b91505061054f565b508060049081610685919061129d565b50816005819055505050565b60008054906101000a900473ffffffffffffffffffffffffffffffffffffffff1681565b60016020528060005260406000206000915090508060000160009054906101000a900460ff16908060010154908060020154905083565b60008054906101000a900473ffffffffffffffffffffffffffffffffffffffff1673ffffffffffffffffffffffffffffffffffffffff163373ffffffffffffffffffffffffffffffffffffffff161461077a576040517f08c379a000000000000000000000000000000000000000000000000000000000815260040161077190611089565b60405180910390fd5b60005b815181101561096d57600082828151811061079b5761079a610ef3565b5b6020026020010151905060008054906101000a900473ffffffffffffffffffffffffffffffffffffffff1673ffffffffffffffffffffffffffffffffffffffff163373ffffffffffffffffffffffffffffffffffffffff1614610833576040517f08c379a000000000000000000000000000000000000000000000000000000000815260040161082a906113e1565b60405180910390fd5b600160008273ffffffffffffffffffffffffffffffffffffffff1673ffffffffffffffffffffffffffffffffffffffff16815260200190815260200160002060000160009054906101000a900460ff16156108c3576040517f08c379a00000000000000000000000000000000000000000000000000000000081526004016108ba90611473565b60405180910390fd5b6000600160008373ffffffffffffffffffffffffffffffffffffffff1673ffffffffffffffffffffffffffffffffffffffff168152602001908152602001600020600201541461091257600080fd5b60018060008373ffffffffffffffffffffffffffffffffffffffff1673ffffffffffffffffffffffffffffffffffffffff16815260200190815260200160002060020181905550508080610965906110a9565b91505061077d565b5050565b6000604051905090565b600080fd5b600080fd5b6000819050919050565b61099881610985565b81146109a357600080fd5b50565b6000813590506109b58161098f565b92915050565b6000602082840312156109d1576109d061097b565b5b60006109df848285016109a6565b91505092915050565b600081519050919050565b600082825260208201905092915050565b60005b83811015610a22578082015181840152602081019050610a07565b60008484015250505050565b6000601f19601f8301169050919050565b6000610a4a826109e8565b610a5481856109f3565b9350610a64818560208601610a04565b610a6d81610a2e565b840191505092915050565b610a8181610985565b82525050565b60006040820190508181036000830152610aa18185610a3f565b9050610ab06020830184610a78565b9392505050565b600073ffffffffffffffffffffffffffffffffffffffff82169050919050565b6000610ae282610ab7565b9050919050565b610af281610ad7565b82525050565b6000602082019050610b0d6000830184610ae9565b92915050565b610b1c81610ad7565b8114610b2757600080fd5b50565b600081359050610b3981610b13565b92915050565b600060208284031215610b5557610b5461097b565b5b6000610b6384828501610b2a565b91505092915050565b60008115159050919050565b610b8181610b6c565b82525050565b6000606082019050610b9c6000830186610b78565b610ba96020830185610a78565b610bb66040830184610a78565b949350505050565b600080fd5b7f4e487b7100000000000000000000000000000000000000000000000000000000600052604160045260246000fd5b610bfb82610a2e565b810181811067ffffffffffffffff82111715610c1a57610c19610bc3565b5b80604052505050565b6000610c2d610971565b9050610c398282610bf2565b919050565b600067ffffffffffffffff821115610c5957610c58610bc3565b5b602082029050602081019050919050565b600080fd5b6000610c82610c7d84610c3e565b610c23565b90508083825260208201905060208402830185811115610ca557610ca4610c6a565b5b835b81811015610cce5780610cba8882610b2a565b845260208401935050602081019050610ca7565b5050509392505050565b600082601f830112610ced57610cec610bbe565b5b8135610cfd848260208601610c6f565b91505092915050565b600060208284031215610d1c57610d1b61097b565b5b600082013567ffffffffffffffff811115610d3a57610d39610980565b5b610d4684828501610cd8565b91505092915050565b7f4e487b7100000000000000000000000000000000000000000000000000000000600052602260045260246000fd5b60006002820490506001821680610d9657607f821691505b602082108103610da957610da8610d4f565b5b50919050565b7f4e6f207469656e6573206465726563686f206120766f74617200000000000000600082015250565b6000610de56019836109f3565b9150610df082610daf565b602082019050919050565b60006020820190508181036000830152610e1481610dd8565b9050919050565b7f4c6120766f746163696f6e206861207465726d696e61646f0000000000000000600082015250565b6000610e516018836109f3565b9150610e5c82610e1b565b602082019050919050565b60006020820190508181036000830152610e8081610e44565b9050919050565b7f59612068617320766f7461646f00000000000000000000000000000000000000600082015250565b6000610ebd600d836109f3565b9150610ec882610e87565b602082019050919050565b60006020820190508181036000830152610eec81610eb0565b9050919050565b7f4e487b7100000000000000000000000000000000000000000000000000000000600052603260045260246000fd5b7f4e487b7100000000000000000000000000000000000000000000000000000000600052601160045260246000fd5b6000610f5c82610985565b9150610f6783610985565b9250828201905080821115610f7f57610f7e610f22565b5b92915050565b7f4e6f20736520707565646520766572206c6f7320726573756c7461646f73206160008201527f6e7465732064652066696e616c697a6172000000000000000000000000000000602082015250565b6000610fe16031836109f3565b9150610fec82610f85565b604082019050919050565b6000602082019050818103600083015261101081610fd4565b9050919050565b7f536f6c6f20656c2063726561646f72207075656465207574696c697a6172206560008201527f7374612066756e63696f6e206465206c6120766f746163696f6e000000000000602082015250565b6000611073603a836109f3565b915061107e82611017565b604082019050919050565b600060208201905081810360008301526110a281611066565b9050919050565b60006110b482610985565b91507fffffffffffffffffffffffffffffffffffffffffffffffffffffffffffffffff82036110e6576110e5610f22565b5b600182019050919050565b60008190508160005260206000209050919050565b60006020601f8301049050919050565b600082821b905092915050565b6000600883026111537fffffffffffffffffffffffffffffffffffffffffffffffffffffffffffffffff82611116565b61115d8683611116565b95508019841693508086168417925050509392505050565b6000819050919050565b600061119a61119561119084610985565b611175565b610985565b9050919050565b6000819050919050565b6111b48361117f565b6111c86111c0826111a1565b848454611123565b825550505050565b600090565b6111dd6111d0565b6111e88184846111ab565b505050565b5b8181101561120c576112016000826111d5565b6001810190506111ee565b5050565b601f82111561125157611222816110f1565b61122b84611106565b8101602085101561123a578190505b61124e61124685611106565b8301826111ed565b50505b505050565b600082821c905092915050565b600061127460001984600802611256565b1980831691505092915050565b600061128d8383611263565b9150826002028217905092915050565b6112a6826109e8565b67ffffffffffffffff8111156112bf576112be610bc3565b5b6112c98254610d7e565b6112d4828285611210565b600060209050601f83116001811461130757600084156112f5578287015190505b6112ff8582611281565b865550611367565b601f198416611315866110f1565b60005b8281101561133d57848901518255600182019150602085019450602081019050611318565b8683101561135a5784890151611356601f891682611263565b8355505b6001600288020188555050505b505050505050565b7f536f6c6f20656c2063726561646f72207075656465206167726567617220766f60008201527f74616e7465730000000000000000000000000000000000000000000000000000602082015250565b60006113cb6026836109f3565b91506113d68261136f565b604082019050919050565b600060208201905081810360008301526113fa816113be565b9050919050565b7f456c20766f74616e74652071756520646573656120616772656761722079612060008201527f686120766f7461646f0000000000000000000000000000000000000000000000602082015250565b600061145d6029836109f3565b915061146882611401565b604082019050919050565b6000602082019050818103600083015261148c81611450565b905091905056fea2646970667358221220d8e60a3a780f7564c5149c99cd2345814b33e09440ac61c234b3b6ce85ab1c6e64736f6c63430008120033",
					"opcodes": "PUSH1 0x80 PUSH1 0x40 MSTORE CALLVALUE DUP1 ISZERO PUSH3 0x11 JUMPI PUSH1 0x0 DUP1 REVERT JUMPDEST POP PUSH1 0x40 MLOAD PUSH3 0x1D3D CODESIZE SUB DUP1 PUSH3 0x1D3D DUP4 CODECOPY DUP2 DUP2 ADD PUSH1 0x40 MSTORE DUP2 ADD SWAP1 PUSH3 0x37 SWAP2 SWAP1 PUSH3 0x436 JUMP JUMPDEST PUSH1 0x0 PUSH1 0x3 PUSH1 0x0 PUSH2 0x100 EXP DUP2 SLOAD DUP2 PUSH1 0xFF MUL NOT AND SWAP1 DUP4 ISZERO ISZERO MUL OR SWAP1 SSTORE POP CALLER PUSH1 0x0 DUP1 PUSH2 0x100 EXP DUP2 SLOAD DUP2 PUSH20 0xFFFFFFFFFFFFFFFFFFFFFFFFFFFFFFFFFFFFFFFF MUL NOT AND SWAP1 DUP4 PUSH20 0xFFFFFFFFFFFFFFFFFFFFFFFFFFFFFFFFFFFFFFFF AND MUL OR SWAP1 SSTORE POP PUSH1 0x1 DUP1 PUSH1 0x0 DUP1 PUSH1 0x0 SWAP1 SLOAD SWAP1 PUSH2 0x100 EXP SWAP1 DIV PUSH20 0xFFFFFFFFFFFFFFFFFFFFFFFFFFFFFFFFFFFFFFFF AND PUSH20 0xFFFFFFFFFFFFFFFFFFFFFFFFFFFFFFFFFFFFFFFF AND PUSH20 0xFFFFFFFFFFFFFFFFFFFFFFFFFFFFFFFFFFFFFFFF AND DUP2 MSTORE PUSH1 0x20 ADD SWAP1 DUP2 MSTORE PUSH1 0x20 ADD PUSH1 0x0 KECCAK256 PUSH1 0x2 ADD DUP2 SWAP1 SSTORE POP PUSH1 0x0 JUMPDEST DUP2 MLOAD DUP2 LT ISZERO PUSH3 0x19F JUMPI PUSH1 0x2 PUSH1 0x40 MLOAD DUP1 PUSH1 0x40 ADD PUSH1 0x40 MSTORE DUP1 DUP5 DUP5 DUP2 MLOAD DUP2 LT PUSH3 0x12A JUMPI PUSH3 0x129 PUSH3 0x487 JUMP JUMPDEST JUMPDEST PUSH1 0x20 MUL PUSH1 0x20 ADD ADD MLOAD DUP2 MSTORE PUSH1 0x20 ADD PUSH1 0x0 DUP2 MSTORE POP SWAP1 DUP1 PUSH1 0x1 DUP2 SLOAD ADD DUP1 DUP3 SSTORE DUP1 SWAP2 POP POP PUSH1 0x1 SWAP1 SUB SWAP1 PUSH1 0x0 MSTORE PUSH1 0x20 PUSH1 0x0 KECCAK256 SWAP1 PUSH1 0x2 MUL ADD PUSH1 0x0 SWAP1 SWAP2 SWAP1 SWAP2 SWAP1 SWAP2 POP PUSH1 0x0 DUP3 ADD MLOAD DUP2 PUSH1 0x0 ADD SWAP1 DUP2 PUSH3 0x17C SWAP2 SWAP1 PUSH3 0x701 JUMP JUMPDEST POP PUSH1 0x20 DUP3 ADD MLOAD DUP2 PUSH1 0x1 ADD SSTORE POP POP DUP1 DUP1 PUSH3 0x196 SWAP1 PUSH3 0x817 JUMP JUMPDEST SWAP2 POP POP PUSH3 0xFD JUMP JUMPDEST POP POP PUSH3 0x864 JUMP JUMPDEST PUSH1 0x0 PUSH1 0x40 MLOAD SWAP1 POP SWAP1 JUMP JUMPDEST PUSH1 0x0 DUP1 REVERT JUMPDEST PUSH1 0x0 DUP1 REVERT JUMPDEST PUSH1 0x0 DUP1 REVERT JUMPDEST PUSH1 0x0 PUSH1 0x1F NOT PUSH1 0x1F DUP4 ADD AND SWAP1 POP SWAP2 SWAP1 POP JUMP JUMPDEST PUSH32 0x4E487B7100000000000000000000000000000000000000000000000000000000 PUSH1 0x0 MSTORE PUSH1 0x41 PUSH1 0x4 MSTORE PUSH1 0x24 PUSH1 0x0 REVERT JUMPDEST PUSH3 0x20B DUP3 PUSH3 0x1C0 JUMP JUMPDEST DUP2 ADD DUP2 DUP2 LT PUSH8 0xFFFFFFFFFFFFFFFF DUP3 GT OR ISZERO PUSH3 0x22D JUMPI PUSH3 0x22C PUSH3 0x1D1 JUMP JUMPDEST JUMPDEST DUP1 PUSH1 0x40 MSTORE POP POP POP JUMP JUMPDEST PUSH1 0x0 PUSH3 0x242 PUSH3 0x1A7 JUMP JUMPDEST SWAP1 POP PUSH3 0x250 DUP3 DUP3 PUSH3 0x200 JUMP JUMPDEST SWAP2 SWAP1 POP JUMP JUMPDEST PUSH1 0x0 PUSH8 0xFFFFFFFFFFFFFFFF DUP3 GT ISZERO PUSH3 0x273 JUMPI PUSH3 0x272 PUSH3 0x1D1 JUMP JUMPDEST JUMPDEST PUSH1 0x20 DUP3 MUL SWAP1 POP PUSH1 0x20 DUP2 ADD SWAP1 POP SWAP2 SWAP1 POP JUMP JUMPDEST PUSH1 0x0 DUP1 REVERT JUMPDEST PUSH1 0x0 DUP1 REVERT JUMPDEST PUSH1 0x0 PUSH8 0xFFFFFFFFFFFFFFFF DUP3 GT ISZERO PUSH3 0x2AC JUMPI PUSH3 0x2AB PUSH3 0x1D1 JUMP JUMPDEST JUMPDEST PUSH3 0x2B7 DUP3 PUSH3 0x1C0 JUMP JUMPDEST SWAP1 POP PUSH1 0x20 DUP2 ADD SWAP1 POP SWAP2 SWAP1 POP JUMP JUMPDEST PUSH1 0x0 JUMPDEST DUP4 DUP2 LT ISZERO PUSH3 0x2E4 JUMPI DUP1 DUP3 ADD MLOAD DUP2 DUP5 ADD MSTORE PUSH1 0x20 DUP2 ADD SWAP1 POP PUSH3 0x2C7 JUMP JUMPDEST PUSH1 0x0 DUP5 DUP5 ADD MSTORE POP POP POP POP JUMP JUMPDEST PUSH1 0x0 PUSH3 0x307 PUSH3 0x301 DUP5 PUSH3 0x28E JUMP JUMPDEST PUSH3 0x236 JUMP JUMPDEST SWAP1 POP DUP3 DUP2 MSTORE PUSH1 0x20 DUP2 ADD DUP5 DUP5 DUP5 ADD GT ISZERO PUSH3 0x326 JUMPI PUSH3 0x325 PUSH3 0x289 JUMP JUMPDEST JUMPDEST PUSH3 0x333 DUP5 DUP3 DUP6 PUSH3 0x2C4 JUMP JUMPDEST POP SWAP4 SWAP3 POP POP POP JUMP JUMPDEST PUSH1 0x0 DUP3 PUSH1 0x1F DUP4 ADD SLT PUSH3 0x353 JUMPI PUSH3 0x352 PUSH3 0x1BB JUMP JUMPDEST JUMPDEST DUP2 MLOAD PUSH3 0x365 DUP5 DUP3 PUSH1 0x20 DUP7 ADD PUSH3 0x2F0 JUMP JUMPDEST SWAP2 POP POP SWAP3 SWAP2 POP POP JUMP JUMPDEST PUSH1 0x0 PUSH3 0x385 PUSH3 0x37F DUP5 PUSH3 0x255 JUMP JUMPDEST PUSH3 0x236 JUMP JUMPDEST SWAP1 POP DUP1 DUP4 DUP3 MSTORE PUSH1 0x20 DUP3 ADD SWAP1 POP PUSH1 0x20 DUP5 MUL DUP4 ADD DUP6 DUP2 GT ISZERO PUSH3 0x3AB JUMPI PUSH3 0x3AA PUSH3 0x284 JUMP JUMPDEST JUMPDEST DUP4 JUMPDEST DUP2 DUP2 LT ISZERO PUSH3 0x3F9 JUMPI DUP1 MLOAD PUSH8 0xFFFFFFFFFFFFFFFF DUP2 GT ISZERO PUSH3 0x3D4 JUMPI PUSH3 0x3D3 PUSH3 0x1BB JUMP JUMPDEST JUMPDEST DUP1 DUP7 ADD PUSH3 0x3E3 DUP10 DUP3 PUSH3 0x33B JUMP JUMPDEST DUP6 MSTORE PUSH1 0x20 DUP6 ADD SWAP5 POP POP POP PUSH1 0x20 DUP2 ADD SWAP1 POP PUSH3 0x3AD JUMP JUMPDEST POP POP POP SWAP4 SWAP3 POP POP POP JUMP JUMPDEST PUSH1 0x0 DUP3 PUSH1 0x1F DUP4 ADD SLT PUSH3 0x41B JUMPI PUSH3 0x41A PUSH3 0x1BB JUMP JUMPDEST JUMPDEST DUP2 MLOAD PUSH3 0x42D DUP5 DUP3 PUSH1 0x20 DUP7 ADD PUSH3 0x36E JUMP JUMPDEST SWAP2 POP POP SWAP3 SWAP2 POP POP JUMP JUMPDEST PUSH1 0x0 PUSH1 0x20 DUP3 DUP5 SUB SLT ISZERO PUSH3 0x44F JUMPI PUSH3 0x44E PUSH3 0x1B1 JUMP JUMPDEST JUMPDEST PUSH1 0x0 DUP3 ADD MLOAD PUSH8 0xFFFFFFFFFFFFFFFF DUP2 GT ISZERO PUSH3 0x470 JUMPI PUSH3 0x46F PUSH3 0x1B6 JUMP JUMPDEST JUMPDEST PUSH3 0x47E DUP5 DUP3 DUP6 ADD PUSH3 0x403 JUMP JUMPDEST SWAP2 POP POP SWAP3 SWAP2 POP POP JUMP JUMPDEST PUSH32 0x4E487B7100000000000000000000000000000000000000000000000000000000 PUSH1 0x0 MSTORE PUSH1 0x32 PUSH1 0x4 MSTORE PUSH1 0x24 PUSH1 0x0 REVERT JUMPDEST PUSH1 0x0 DUP2 MLOAD SWAP1 POP SWAP2 SWAP1 POP JUMP JUMPDEST PUSH32 0x4E487B7100000000000000000000000000000000000000000000000000000000 PUSH1 0x0 MSTORE PUSH1 0x22 PUSH1 0x4 MSTORE PUSH1 0x24 PUSH1 0x0 REVERT JUMPDEST PUSH1 0x0 PUSH1 0x2 DUP3 DIV SWAP1 POP PUSH1 0x1 DUP3 AND DUP1 PUSH3 0x509 JUMPI PUSH1 0x7F DUP3 AND SWAP2 POP JUMPDEST PUSH1 0x20 DUP3 LT DUP2 SUB PUSH3 0x51F JUMPI PUSH3 0x51E PUSH3 0x4C1 JUMP JUMPDEST JUMPDEST POP SWAP2 SWAP1 POP JUMP JUMPDEST PUSH1 0x0 DUP2 SWAP1 POP DUP2 PUSH1 0x0 MSTORE PUSH1 0x20 PUSH1 0x0 KECCAK256 SWAP1 POP SWAP2 SWAP1 POP JUMP JUMPDEST PUSH1 0x0 PUSH1 0x20 PUSH1 0x1F DUP4 ADD DIV SWAP1 POP SWAP2 SWAP1 POP JUMP JUMPDEST PUSH1 0x0 DUP3 DUP3 SHL SWAP1 POP SWAP3 SWAP2 POP POP JUMP JUMPDEST PUSH1 0x0 PUSH1 0x8 DUP4 MUL PUSH3 0x589 PUSH32 0xFFFFFFFFFFFFFFFFFFFFFFFFFFFFFFFFFFFFFFFFFFFFFFFFFFFFFFFFFFFFFFFF DUP3 PUSH3 0x54A JUMP JUMPDEST PUSH3 0x595 DUP7 DUP4 PUSH3 0x54A JUMP JUMPDEST SWAP6 POP DUP1 NOT DUP5 AND SWAP4 POP DUP1 DUP7 AND DUP5 OR SWAP3 POP POP POP SWAP4 SWAP3 POP POP POP JUMP JUMPDEST PUSH1 0x0 DUP2 SWAP1 POP SWAP2 SWAP1 POP JUMP JUMPDEST PUSH1 0x0 DUP2 SWAP1 POP SWAP2 SWAP1 POP JUMP JUMPDEST PUSH1 0x0 PUSH3 0x5E2 PUSH3 0x5DC PUSH3 0x5D6 DUP5 PUSH3 0x5AD JUMP JUMPDEST PUSH3 0x5B7 JUMP JUMPDEST PUSH3 0x5AD JUMP JUMPDEST SWAP1 POP SWAP2 SWAP1 POP JUMP JUMPDEST PUSH1 0x0 DUP2 SWAP1 POP SWAP2 SWAP1 POP JUMP JUMPDEST PUSH3 0x5FE DUP4 PUSH3 0x5C1 JUMP JUMPDEST PUSH3 0x616 PUSH3 0x60D DUP3 PUSH3 0x5E9 JUMP JUMPDEST DUP5 DUP5 SLOAD PUSH3 0x557 JUMP JUMPDEST DUP3 SSTORE POP POP POP POP JUMP JUMPDEST PUSH1 0x0 SWAP1 JUMP JUMPDEST PUSH3 0x62D PUSH3 0x61E JUMP JUMPDEST PUSH3 0x63A DUP2 DUP5 DUP5 PUSH3 0x5F3 JUMP JUMPDEST POP POP POP JUMP JUMPDEST JUMPDEST DUP2 DUP2 LT ISZERO PUSH3 0x662 JUMPI PUSH3 0x656 PUSH1 0x0 DUP3 PUSH3 0x623 JUMP JUMPDEST PUSH1 0x1 DUP2 ADD SWAP1 POP PUSH3 0x640 JUMP JUMPDEST POP POP JUMP JUMPDEST PUSH1 0x1F DUP3 GT ISZERO PUSH3 0x6B1 JUMPI PUSH3 0x67B DUP2 PUSH3 0x525 JUMP JUMPDEST PUSH3 0x686 DUP5 PUSH3 0x53A JUMP JUMPDEST DUP2 ADD PUSH1 0x20 DUP6 LT ISZERO PUSH3 0x696 JUMPI DUP2 SWAP1 POP JUMPDEST PUSH3 0x6AE PUSH3 0x6A5 DUP6 PUSH3 0x53A JUMP JUMPDEST DUP4 ADD DUP3 PUSH3 0x63F JUMP JUMPDEST POP POP JUMPDEST POP POP POP JUMP JUMPDEST PUSH1 0x0 DUP3 DUP3 SHR SWAP1 POP SWAP3 SWAP2 POP POP JUMP JUMPDEST PUSH1 0x0 PUSH3 0x6D6 PUSH1 0x0 NOT DUP5 PUSH1 0x8 MUL PUSH3 0x6B6 JUMP JUMPDEST NOT DUP1 DUP4 AND SWAP2 POP POP SWAP3 SWAP2 POP POP JUMP JUMPDEST PUSH1 0x0 PUSH3 0x6F1 DUP4 DUP4 PUSH3 0x6C3 JUMP JUMPDEST SWAP2 POP DUP3 PUSH1 0x2 MUL DUP3 OR SWAP1 POP SWAP3 SWAP2 POP POP JUMP JUMPDEST PUSH3 0x70C DUP3 PUSH3 0x4B6 JUMP JUMPDEST PUSH8 0xFFFFFFFFFFFFFFFF DUP2 GT ISZERO PUSH3 0x728 JUMPI PUSH3 0x727 PUSH3 0x1D1 JUMP JUMPDEST JUMPDEST PUSH3 0x734 DUP3 SLOAD PUSH3 0x4F0 JUMP JUMPDEST PUSH3 0x741 DUP3 DUP3 DUP6 PUSH3 0x666 JUMP JUMPDEST PUSH1 0x0 PUSH1 0x20 SWAP1 POP PUSH1 0x1F DUP4 GT PUSH1 0x1 DUP2 EQ PUSH3 0x779 JUMPI PUSH1 0x0 DUP5 ISZERO PUSH3 0x764 JUMPI DUP3 DUP8 ADD MLOAD SWAP1 POP JUMPDEST PUSH3 0x770 DUP6 DUP3 PUSH3 0x6E3 JUMP JUMPDEST DUP7 SSTORE POP PUSH3 0x7E0 JUMP JUMPDEST PUSH1 0x1F NOT DUP5 AND PUSH3 0x789 DUP7 PUSH3 0x525 JUMP JUMPDEST PUSH1 0x0 JUMPDEST DUP3 DUP2 LT ISZERO PUSH3 0x7B3 JUMPI DUP5 DUP10 ADD MLOAD DUP3 SSTORE PUSH1 0x1 DUP3 ADD SWAP2 POP PUSH1 0x20 DUP6 ADD SWAP5 POP PUSH1 0x20 DUP2 ADD SWAP1 POP PUSH3 0x78C JUMP JUMPDEST DUP7 DUP4 LT ISZERO PUSH3 0x7D3 JUMPI DUP5 DUP10 ADD MLOAD PUSH3 0x7CF PUSH1 0x1F DUP10 AND DUP3 PUSH3 0x6C3 JUMP JUMPDEST DUP4 SSTORE POP JUMPDEST PUSH1 0x1 PUSH1 0x2 DUP9 MUL ADD DUP9 SSTORE POP POP POP JUMPDEST POP POP POP POP POP POP JUMP JUMPDEST PUSH32 0x4E487B7100000000000000000000000000000000000000000000000000000000 PUSH1 0x0 MSTORE PUSH1 0x11 PUSH1 0x4 MSTORE PUSH1 0x24 PUSH1 0x0 REVERT JUMPDEST PUSH1 0x0 PUSH3 0x824 DUP3 PUSH3 0x5AD JUMP JUMPDEST SWAP2 POP PUSH32 0xFFFFFFFFFFFFFFFFFFFFFFFFFFFFFFFFFFFFFFFFFFFFFFFFFFFFFFFFFFFFFFFF DUP3 SUB PUSH3 0x859 JUMPI PUSH3 0x858 PUSH3 0x7E8 JUMP JUMPDEST JUMPDEST PUSH1 0x1 DUP3 ADD SWAP1 POP SWAP2 SWAP1 POP JUMP JUMPDEST PUSH2 0x14C9 DUP1 PUSH3 0x874 PUSH1 0x0 CODECOPY PUSH1 0x0 RETURN INVALID PUSH1 0x80 PUSH1 0x40 MSTORE CALLVALUE DUP1 ISZERO PUSH2 0x10 JUMPI PUSH1 0x0 DUP1 REVERT JUMPDEST POP PUSH1 0x4 CALLDATASIZE LT PUSH2 0x7D JUMPI PUSH1 0x0 CALLDATALOAD PUSH1 0xE0 SHR DUP1 PUSH4 0x437A88A3 GT PUSH2 0x5B JUMPI DUP1 PUSH4 0x437A88A3 EQ PUSH2 0xEE JUMPI DUP1 PUSH4 0x92EBDCD2 EQ PUSH2 0xF8 JUMPI DUP1 PUSH4 0xA92284D0 EQ PUSH2 0x116 JUMPI DUP1 PUSH4 0xC270CB52 EQ PUSH2 0x148 JUMPI PUSH2 0x7D JUMP JUMPDEST DUP1 PUSH4 0x17262D8A EQ PUSH2 0x82 JUMPI DUP1 PUSH4 0x21606831 EQ PUSH2 0xB3 JUMPI DUP1 PUSH4 0x25277CC0 EQ PUSH2 0xCF JUMPI JUMPDEST PUSH1 0x0 DUP1 REVERT JUMPDEST PUSH2 0x9C PUSH1 0x4 DUP1 CALLDATASIZE SUB DUP2 ADD SWAP1 PUSH2 0x97 SWAP2 SWAP1 PUSH2 0x9BB JUMP JUMPDEST PUSH2 0x164 JUMP JUMPDEST PUSH1 0x40 MLOAD PUSH2 0xAA SWAP3 SWAP2 SWAP1 PUSH2 0xA87 JUMP JUMPDEST PUSH1 0x40 MLOAD DUP1 SWAP2 SUB SWAP1 RETURN JUMPDEST PUSH2 0xCD PUSH1 0x4 DUP1 CALLDATASIZE SUB DUP2 ADD SWAP1 PUSH2 0xC8 SWAP2 SWAP1 PUSH2 0x9BB JUMP JUMPDEST PUSH2 0x220 JUMP JUMPDEST STOP JUMPDEST PUSH2 0xD7 PUSH2 0x3B6 JUMP JUMPDEST PUSH1 0x40 MLOAD PUSH2 0xE5 SWAP3 SWAP2 SWAP1 PUSH2 0xA87 JUMP JUMPDEST PUSH1 0x40 MLOAD DUP1 SWAP2 SUB SWAP1 RETURN JUMPDEST PUSH2 0xF6 PUSH2 0x49F JUMP JUMPDEST STOP JUMPDEST PUSH2 0x100 PUSH2 0x691 JUMP JUMPDEST PUSH1 0x40 MLOAD PUSH2 0x10D SWAP2 SWAP1 PUSH2 0xAF8 JUMP JUMPDEST PUSH1 0x40 MLOAD DUP1 SWAP2 SUB SWAP1 RETURN JUMPDEST PUSH2 0x130 PUSH1 0x4 DUP1 CALLDATASIZE SUB DUP2 ADD SWAP1 PUSH2 0x12B SWAP2 SWAP1 PUSH2 0xB3F JUMP JUMPDEST PUSH2 0x6B5 JUMP JUMPDEST PUSH1 0x40 MLOAD PUSH2 0x13F SWAP4 SWAP3 SWAP2 SWAP1 PUSH2 0xB87 JUMP JUMPDEST PUSH1 0x40 MLOAD DUP1 SWAP2 SUB SWAP1 RETURN JUMPDEST PUSH2 0x162 PUSH1 0x4 DUP1 CALLDATASIZE SUB DUP2 ADD SWAP1 PUSH2 0x15D SWAP2 SWAP1 PUSH2 0xD06 JUMP JUMPDEST PUSH2 0x6EC JUMP JUMPDEST STOP JUMPDEST PUSH1 0x2 DUP2 DUP2 SLOAD DUP2 LT PUSH2 0x174 JUMPI PUSH1 0x0 DUP1 REVERT JUMPDEST SWAP1 PUSH1 0x0 MSTORE PUSH1 0x20 PUSH1 0x0 KECCAK256 SWAP1 PUSH1 0x2 MUL ADD PUSH1 0x0 SWAP2 POP SWAP1 POP DUP1 PUSH1 0x0 ADD DUP1 SLOAD PUSH2 0x197 SWAP1 PUSH2 0xD7E JUMP JUMPDEST DUP1 PUSH1 0x1F ADD PUSH1 0x20 DUP1 SWAP2 DIV MUL PUSH1 0x20 ADD PUSH1 0x40 MLOAD SWAP1 DUP2 ADD PUSH1 0x40 MSTORE DUP1 SWAP3 SWAP2 SWAP1 DUP2 DUP2 MSTORE PUSH1 0x20 ADD DUP3 DUP1 SLOAD PUSH2 0x1C3 SWAP1 PUSH2 0xD7E JUMP JUMPDEST DUP1 ISZERO PUSH2 0x210 JUMPI DUP1 PUSH1 0x1F LT PUSH2 0x1E5 JUMPI PUSH2 0x100 DUP1 DUP4 SLOAD DIV MUL DUP4 MSTORE SWAP2 PUSH1 0x20 ADD SWAP2 PUSH2 0x210 JUMP JUMPDEST DUP3 ADD SWAP2 SWAP1 PUSH1 0x0 MSTORE PUSH1 0x20 PUSH1 0x0 KECCAK256 SWAP1 JUMPDEST DUP2 SLOAD DUP2 MSTORE SWAP1 PUSH1 0x1 ADD SWAP1 PUSH1 0x20 ADD DUP1 DUP4 GT PUSH2 0x1F3 JUMPI DUP3 SWAP1 SUB PUSH1 0x1F AND DUP3 ADD SWAP2 JUMPDEST POP POP POP POP POP SWAP1 DUP1 PUSH1 0x1 ADD SLOAD SWAP1 POP DUP3 JUMP JUMPDEST PUSH1 0x0 PUSH1 0x1 PUSH1 0x0 CALLER PUSH20 0xFFFFFFFFFFFFFFFFFFFFFFFFFFFFFFFFFFFFFFFF AND PUSH20 0xFFFFFFFFFFFFFFFFFFFFFFFFFFFFFFFFFFFFFFFF AND DUP2 MSTORE PUSH1 0x20 ADD SWAP1 DUP2 MSTORE PUSH1 0x20 ADD PUSH1 0x0 KECCAK256 SWAP1 POP PUSH1 0x0 DUP2 PUSH1 0x2 ADD SLOAD SUB PUSH2 0x2AA JUMPI PUSH1 0x40 MLOAD PUSH32 0x8C379A000000000000000000000000000000000000000000000000000000000 DUP2 MSTORE PUSH1 0x4 ADD PUSH2 0x2A1 SWAP1 PUSH2 0xDFB JUMP JUMPDEST PUSH1 0x40 MLOAD DUP1 SWAP2 SUB SWAP1 REVERT JUMPDEST PUSH1 0x3 PUSH1 0x0 SWAP1 SLOAD SWAP1 PUSH2 0x100 EXP SWAP1 DIV PUSH1 0xFF AND ISZERO PUSH2 0x2FA JUMPI PUSH1 0x40 MLOAD PUSH32 0x8C379A000000000000000000000000000000000000000000000000000000000 DUP2 MSTORE PUSH1 0x4 ADD PUSH2 0x2F1 SWAP1 PUSH2 0xE67 JUMP JUMPDEST PUSH1 0x40 MLOAD DUP1 SWAP2 SUB SWAP1 REVERT JUMPDEST DUP1 PUSH1 0x0 ADD PUSH1 0x0 SWAP1 SLOAD SWAP1 PUSH2 0x100 EXP SWAP1 DIV PUSH1 0xFF AND ISZERO PUSH2 0x34C JUMPI PUSH1 0x40 MLOAD PUSH32 0x8C379A000000000000000000000000000000000000000000000000000000000 DUP2 MSTORE PUSH1 0x4 ADD PUSH2 0x343 SWAP1 PUSH2 0xED3 JUMP JUMPDEST PUSH1 0x40 MLOAD DUP1 SWAP2 SUB SWAP1 REVERT JUMPDEST PUSH1 0x1 DUP2 PUSH1 0x0 ADD PUSH1 0x0 PUSH2 0x100 EXP DUP2 SLOAD DUP2 PUSH1 0xFF MUL NOT AND SWAP1 DUP4 ISZERO ISZERO MUL OR SWAP1 SSTORE POP DUP2 DUP2 PUSH1 0x1 ADD DUP2 SWAP1 SSTORE POP DUP1 PUSH1 0x2 ADD SLOAD PUSH1 0x2 DUP4 DUP2 SLOAD DUP2 LT PUSH2 0x38B JUMPI PUSH2 0x38A PUSH2 0xEF3 JUMP JUMPDEST JUMPDEST SWAP1 PUSH1 0x0 MSTORE PUSH1 0x20 PUSH1 0x0 KECCAK256 SWAP1 PUSH1 0x2 MUL ADD PUSH1 0x1 ADD PUSH1 0x0 DUP3 DUP3 SLOAD PUSH2 0x3AB SWAP2 SWAP1 PUSH2 0xF51 JUMP JUMPDEST SWAP3 POP POP DUP2 SWAP1 SSTORE POP POP POP JUMP JUMPDEST PUSH1 0x60 PUSH1 0x0 PUSH1 0x3 PUSH1 0x0 SWAP1 SLOAD SWAP1 PUSH2 0x100 EXP SWAP1 DIV PUSH1 0xFF AND PUSH2 0x409 JUMPI PUSH1 0x40 MLOAD PUSH32 0x8C379A000000000000000000000000000000000000000000000000000000000 DUP2 MSTORE PUSH1 0x4 ADD PUSH2 0x400 SWAP1 PUSH2 0xFF7 JUMP JUMPDEST PUSH1 0x40 MLOAD DUP1 SWAP2 SUB SWAP1 REVERT JUMPDEST PUSH1 0x4 DUP1 SLOAD PUSH2 0x416 SWAP1 PUSH2 0xD7E JUMP JUMPDEST DUP1 PUSH1 0x1F ADD PUSH1 0x20 DUP1 SWAP2 DIV MUL PUSH1 0x20 ADD PUSH1 0x40 MLOAD SWAP1 DUP2 ADD PUSH1 0x40 MSTORE DUP1 SWAP3 SWAP2 SWAP1 DUP2 DUP2 MSTORE PUSH1 0x20 ADD DUP3 DUP1 SLOAD PUSH2 0x442 SWAP1 PUSH2 0xD7E JUMP JUMPDEST DUP1 ISZERO PUSH2 0x48F JUMPI DUP1 PUSH1 0x1F LT PUSH2 0x464 JUMPI PUSH2 0x100 DUP1 DUP4 SLOAD DIV MUL DUP4 MSTORE SWAP2 PUSH1 0x20 ADD SWAP2 PUSH2 0x48F JUMP JUMPDEST DUP3 ADD SWAP2 SWAP1 PUSH1 0x0 MSTORE PUSH1 0x20 PUSH1 0x0 KECCAK256 SWAP1 JUMPDEST DUP2 SLOAD DUP2 MSTORE SWAP1 PUSH1 0x1 ADD SWAP1 PUSH1 0x20 ADD DUP1 DUP4 GT PUSH2 0x472 JUMPI DUP3 SWAP1 SUB PUSH1 0x1F AND DUP3 ADD SWAP2 JUMPDEST POP POP POP POP POP SWAP2 POP PUSH1 0x5 SLOAD SWAP1 POP SWAP1 SWAP2 JUMP JUMPDEST PUSH1 0x0 DUP1 SLOAD SWAP1 PUSH2 0x100 EXP SWAP1 DIV PUSH20 0xFFFFFFFFFFFFFFFFFFFFFFFFFFFFFFFFFFFFFFFF AND PUSH20 0xFFFFFFFFFFFFFFFFFFFFFFFFFFFFFFFFFFFFFFFF AND CALLER PUSH20 0xFFFFFFFFFFFFFFFFFFFFFFFFFFFFFFFFFFFFFFFF AND EQ PUSH2 0x52D JUMPI PUSH1 0x40 MLOAD PUSH32 0x8C379A000000000000000000000000000000000000000000000000000000000 DUP2 MSTORE PUSH1 0x4 ADD PUSH2 0x524 SWAP1 PUSH2 0x1089 JUMP JUMPDEST PUSH1 0x40 MLOAD DUP1 SWAP2 SUB SWAP1 REVERT JUMPDEST PUSH1 0x1 PUSH1 0x3 PUSH1 0x0 PUSH2 0x100 EXP DUP2 SLOAD DUP2 PUSH1 0xFF MUL NOT AND SWAP1 DUP4 ISZERO ISZERO MUL OR SWAP1 SSTORE POP PUSH1 0x0 PUSH1 0x60 PUSH1 0x0 JUMPDEST PUSH1 0x2 DUP1 SLOAD SWAP1 POP DUP2 LT ISZERO PUSH2 0x675 JUMPI DUP3 PUSH1 0x2 DUP3 DUP2 SLOAD DUP2 LT PUSH2 0x571 JUMPI PUSH2 0x570 PUSH2 0xEF3 JUMP JUMPDEST JUMPDEST SWAP1 PUSH1 0x0 MSTORE PUSH1 0x20 PUSH1 0x0 KECCAK256 SWAP1 PUSH1 0x2 MUL ADD PUSH1 0x1 ADD SLOAD GT ISZERO PUSH2 0x662 JUMPI PUSH1 0x2 DUP2 DUP2 SLOAD DUP2 LT PUSH2 0x59D JUMPI PUSH2 0x59C PUSH2 0xEF3 JUMP JUMPDEST JUMPDEST SWAP1 PUSH1 0x0 MSTORE PUSH1 0x20 PUSH1 0x0 KECCAK256 SWAP1 PUSH1 0x2 MUL ADD PUSH1 0x1 ADD SLOAD SWAP3 POP PUSH1 0x2 DUP2 DUP2 SLOAD DUP2 LT PUSH2 0x5C5 JUMPI PUSH2 0x5C4 PUSH2 0xEF3 JUMP JUMPDEST JUMPDEST SWAP1 PUSH1 0x0 MSTORE PUSH1 0x20 PUSH1 0x0 KECCAK256 SWAP1 PUSH1 0x2 MUL ADD PUSH1 0x0 ADD DUP1 SLOAD PUSH2 0x5E1 SWAP1 PUSH2 0xD7E JUMP JUMPDEST DUP1 PUSH1 0x1F ADD PUSH1 0x20 DUP1 SWAP2 DIV MUL PUSH1 0x20 ADD PUSH1 0x40 MLOAD SWAP1 DUP2 ADD PUSH1 0x40 MSTORE DUP1 SWAP3 SWAP2 SWAP1 DUP2 DUP2 MSTORE PUSH1 0x20 ADD DUP3 DUP1 SLOAD PUSH2 0x60D SWAP1 PUSH2 0xD7E JUMP JUMPDEST DUP1 ISZERO PUSH2 0x65A JUMPI DUP1 PUSH1 0x1F LT PUSH2 0x62F JUMPI PUSH2 0x100 DUP1 DUP4 SLOAD DIV MUL DUP4 MSTORE SWAP2 PUSH1 0x20 ADD SWAP2 PUSH2 0x65A JUMP JUMPDEST DUP3 ADD SWAP2 SWAP1 PUSH1 0x0 MSTORE PUSH1 0x20 PUSH1 0x0 KECCAK256 SWAP1 JUMPDEST DUP2 SLOAD DUP2 MSTORE SWAP1 PUSH1 0x1 ADD SWAP1 PUSH1 0x20 ADD DUP1 DUP4 GT PUSH2 0x63D JUMPI DUP3 SWAP1 SUB PUSH1 0x1F AND DUP3 ADD SWAP2 JUMPDEST POP POP POP POP POP SWAP2 POP JUMPDEST DUP1 DUP1 PUSH2 0x66D SWAP1 PUSH2 0x10A9 JUMP JUMPDEST SWAP2 POP POP PUSH2 0x54F JUMP JUMPDEST POP DUP1 PUSH1 0x4 SWAP1 DUP2 PUSH2 0x685 SWAP2 SWAP1 PUSH2 0x129D JUMP JUMPDEST POP DUP2 PUSH1 0x5 DUP2 SWAP1 SSTORE POP POP POP JUMP JUMPDEST PUSH1 0x0 DUP1 SLOAD SWAP1 PUSH2 0x100 EXP SWAP1 DIV PUSH20 0xFFFFFFFFFFFFFFFFFFFFFFFFFFFFFFFFFFFFFFFF AND DUP2 JUMP JUMPDEST PUSH1 0x1 PUSH1 0x20 MSTORE DUP1 PUSH1 0x0 MSTORE PUSH1 0x40 PUSH1 0x0 KECCAK256 PUSH1 0x0 SWAP2 POP SWAP1 POP DUP1 PUSH1 0x0 ADD PUSH1 0x0 SWAP1 SLOAD SWAP1 PUSH2 0x100 EXP SWAP1 DIV PUSH1 0xFF AND SWAP1 DUP1 PUSH1 0x1 ADD SLOAD SWAP1 DUP1 PUSH1 0x2 ADD SLOAD SWAP1 POP DUP4 JUMP JUMPDEST PUSH1 0x0 DUP1 SLOAD SWAP1 PUSH2 0x100 EXP SWAP1 DIV PUSH20 0xFFFFFFFFFFFFFFFFFFFFFFFFFFFFFFFFFFFFFFFF AND PUSH20 0xFFFFFFFFFFFFFFFFFFFFFFFFFFFFFFFFFFFFFFFF AND CALLER PUSH20 0xFFFFFFFFFFFFFFFFFFFFFFFFFFFFFFFFFFFFFFFF AND EQ PUSH2 0x77A JUMPI PUSH1 0x40 MLOAD PUSH32 0x8C379A000000000000000000000000000000000000000000000000000000000 DUP2 MSTORE PUSH1 0x4 ADD PUSH2 0x771 SWAP1 PUSH2 0x1089 JUMP JUMPDEST PUSH1 0x40 MLOAD DUP1 SWAP2 SUB SWAP1 REVERT JUMPDEST PUSH1 0x0 JUMPDEST DUP2 MLOAD DUP2 LT ISZERO PUSH2 0x96D JUMPI PUSH1 0x0 DUP3 DUP3 DUP2 MLOAD DUP2 LT PUSH2 0x79B JUMPI PUSH2 0x79A PUSH2 0xEF3 JUMP JUMPDEST JUMPDEST PUSH1 0x20 MUL PUSH1 0x20 ADD ADD MLOAD SWAP1 POP PUSH1 0x0 DUP1 SLOAD SWAP1 PUSH2 0x100 EXP SWAP1 DIV PUSH20 0xFFFFFFFFFFFFFFFFFFFFFFFFFFFFFFFFFFFFFFFF AND PUSH20 0xFFFFFFFFFFFFFFFFFFFFFFFFFFFFFFFFFFFFFFFF AND CALLER PUSH20 0xFFFFFFFFFFFFFFFFFFFFFFFFFFFFFFFFFFFFFFFF AND EQ PUSH2 0x833 JUMPI PUSH1 0x40 MLOAD PUSH32 0x8C379A000000000000000000000000000000000000000000000000000000000 DUP2 MSTORE PUSH1 0x4 ADD PUSH2 0x82A SWAP1 PUSH2 0x13E1 JUMP JUMPDEST PUSH1 0x40 MLOAD DUP1 SWAP2 SUB SWAP1 REVERT JUMPDEST PUSH1 0x1 PUSH1 0x0 DUP3 PUSH20 0xFFFFFFFFFFFFFFFFFFFFFFFFFFFFFFFFFFFFFFFF AND PUSH20 0xFFFFFFFFFFFFFFFFFFFFFFFFFFFFFFFFFFFFFFFF AND DUP2 MSTORE PUSH1 0x20 ADD SWAP1 DUP2 MSTORE PUSH1 0x20 ADD PUSH1 0x0 KECCAK256 PUSH1 0x0 ADD PUSH1 0x0 SWAP1 SLOAD SWAP1 PUSH2 0x100 EXP SWAP1 DIV PUSH1 0xFF AND ISZERO PUSH2 0x8C3 JUMPI PUSH1 0x40 MLOAD PUSH32 0x8C379A000000000000000000000000000000000000000000000000000000000 DUP2 MSTORE PUSH1 0x4 ADD PUSH2 0x8BA SWAP1 PUSH2 0x1473 JUMP JUMPDEST PUSH1 0x40 MLOAD DUP1 SWAP2 SUB SWAP1 REVERT JUMPDEST PUSH1 0x0 PUSH1 0x1 PUSH1 0x0 DUP4 PUSH20 0xFFFFFFFFFFFFFFFFFFFFFFFFFFFFFFFFFFFFFFFF AND PUSH20 0xFFFFFFFFFFFFFFFFFFFFFFFFFFFFFFFFFFFFFFFF AND DUP2 MSTORE PUSH1 0x20 ADD SWAP1 DUP2 MSTORE PUSH1 0x20 ADD PUSH1 0x0 KECCAK256 PUSH1 0x2 ADD SLOAD EQ PUSH2 0x912 JUMPI PUSH1 0x0 DUP1 REVERT JUMPDEST PUSH1 0x1 DUP1 PUSH1 0x0 DUP4 PUSH20 0xFFFFFFFFFFFFFFFFFFFFFFFFFFFFFFFFFFFFFFFF AND PUSH20 0xFFFFFFFFFFFFFFFFFFFFFFFFFFFFFFFFFFFFFFFF AND DUP2 MSTORE PUSH1 0x20 ADD SWAP1 DUP2 MSTORE PUSH1 0x20 ADD PUSH1 0x0 KECCAK256 PUSH1 0x2 ADD DUP2 SWAP1 SSTORE POP POP DUP1 DUP1 PUSH2 0x965 SWAP1 PUSH2 0x10A9 JUMP JUMPDEST SWAP2 POP POP PUSH2 0x77D JUMP JUMPDEST POP POP JUMP JUMPDEST PUSH1 0x0 PUSH1 0x40 MLOAD SWAP1 POP SWAP1 JUMP JUMPDEST PUSH1 0x0 DUP1 REVERT JUMPDEST PUSH1 0x0 DUP1 REVERT JUMPDEST PUSH1 0x0 DUP2 SWAP1 POP SWAP2 SWAP1 POP JUMP JUMPDEST PUSH2 0x998 DUP2 PUSH2 0x985 JUMP JUMPDEST DUP2 EQ PUSH2 0x9A3 JUMPI PUSH1 0x0 DUP1 REVERT JUMPDEST POP JUMP JUMPDEST PUSH1 0x0 DUP2 CALLDATALOAD SWAP1 POP PUSH2 0x9B5 DUP2 PUSH2 0x98F JUMP JUMPDEST SWAP3 SWAP2 POP POP JUMP JUMPDEST PUSH1 0x0 PUSH1 0x20 DUP3 DUP5 SUB SLT ISZERO PUSH2 0x9D1 JUMPI PUSH2 0x9D0 PUSH2 0x97B JUMP JUMPDEST JUMPDEST PUSH1 0x0 PUSH2 0x9DF DUP5 DUP3 DUP6 ADD PUSH2 0x9A6 JUMP JUMPDEST SWAP2 POP POP SWAP3 SWAP2 POP POP JUMP JUMPDEST PUSH1 0x0 DUP2 MLOAD SWAP1 POP SWAP2 SWAP1 POP JUMP JUMPDEST PUSH1 0x0 DUP3 DUP3 MSTORE PUSH1 0x20 DUP3 ADD SWAP1 POP SWAP3 SWAP2 POP POP JUMP JUMPDEST PUSH1 0x0 JUMPDEST DUP4 DUP2 LT ISZERO PUSH2 0xA22 JUMPI DUP1 DUP3 ADD MLOAD DUP2 DUP5 ADD MSTORE PUSH1 0x20 DUP2 ADD SWAP1 POP PUSH2 0xA07 JUMP JUMPDEST PUSH1 0x0 DUP5 DUP5 ADD MSTORE POP POP POP POP JUMP JUMPDEST PUSH1 0x0 PUSH1 0x1F NOT PUSH1 0x1F DUP4 ADD AND SWAP1 POP SWAP2 SWAP1 POP JUMP JUMPDEST PUSH1 0x0 PUSH2 0xA4A DUP3 PUSH2 0x9E8 JUMP JUMPDEST PUSH2 0xA54 DUP2 DUP6 PUSH2 0x9F3 JUMP JUMPDEST SWAP4 POP PUSH2 0xA64 DUP2 DUP6 PUSH1 0x20 DUP7 ADD PUSH2 0xA04 JUMP JUMPDEST PUSH2 0xA6D DUP2 PUSH2 0xA2E JUMP JUMPDEST DUP5 ADD SWAP2 POP POP SWAP3 SWAP2 POP POP JUMP JUMPDEST PUSH2 0xA81 DUP2 PUSH2 0x985 JUMP JUMPDEST DUP3 MSTORE POP POP JUMP JUMPDEST PUSH1 0x0 PUSH1 0x40 DUP3 ADD SWAP1 POP DUP2 DUP2 SUB PUSH1 0x0 DUP4 ADD MSTORE PUSH2 0xAA1 DUP2 DUP6 PUSH2 0xA3F JUMP JUMPDEST SWAP1 POP PUSH2 0xAB0 PUSH1 0x20 DUP4 ADD DUP5 PUSH2 0xA78 JUMP JUMPDEST SWAP4 SWAP3 POP POP POP JUMP JUMPDEST PUSH1 0x0 PUSH20 0xFFFFFFFFFFFFFFFFFFFFFFFFFFFFFFFFFFFFFFFF DUP3 AND SWAP1 POP SWAP2 SWAP1 POP JUMP JUMPDEST PUSH1 0x0 PUSH2 0xAE2 DUP3 PUSH2 0xAB7 JUMP JUMPDEST SWAP1 POP SWAP2 SWAP1 POP JUMP JUMPDEST PUSH2 0xAF2 DUP2 PUSH2 0xAD7 JUMP JUMPDEST DUP3 MSTORE POP POP JUMP JUMPDEST PUSH1 0x0 PUSH1 0x20 DUP3 ADD SWAP1 POP PUSH2 0xB0D PUSH1 0x0 DUP4 ADD DUP5 PUSH2 0xAE9 JUMP JUMPDEST SWAP3 SWAP2 POP POP JUMP JUMPDEST PUSH2 0xB1C DUP2 PUSH2 0xAD7 JUMP JUMPDEST DUP2 EQ PUSH2 0xB27 JUMPI PUSH1 0x0 DUP1 REVERT JUMPDEST POP JUMP JUMPDEST PUSH1 0x0 DUP2 CALLDATALOAD SWAP1 POP PUSH2 0xB39 DUP2 PUSH2 0xB13 JUMP JUMPDEST SWAP3 SWAP2 POP POP JUMP JUMPDEST PUSH1 0x0 PUSH1 0x20 DUP3 DUP5 SUB SLT ISZERO PUSH2 0xB55 JUMPI PUSH2 0xB54 PUSH2 0x97B JUMP JUMPDEST JUMPDEST PUSH1 0x0 PUSH2 0xB63 DUP5 DUP3 DUP6 ADD PUSH2 0xB2A JUMP JUMPDEST SWAP2 POP POP SWAP3 SWAP2 POP POP JUMP JUMPDEST PUSH1 0x0 DUP2 ISZERO ISZERO SWAP1 POP SWAP2 SWAP1 POP JUMP JUMPDEST PUSH2 0xB81 DUP2 PUSH2 0xB6C JUMP JUMPDEST DUP3 MSTORE POP POP JUMP JUMPDEST PUSH1 0x0 PUSH1 0x60 DUP3 ADD SWAP1 POP PUSH2 0xB9C PUSH1 0x0 DUP4 ADD DUP7 PUSH2 0xB78 JUMP JUMPDEST PUSH2 0xBA9 PUSH1 0x20 DUP4 ADD DUP6 PUSH2 0xA78 JUMP JUMPDEST PUSH2 0xBB6 PUSH1 0x40 DUP4 ADD DUP5 PUSH2 0xA78 JUMP JUMPDEST SWAP5 SWAP4 POP POP POP POP JUMP JUMPDEST PUSH1 0x0 DUP1 REVERT JUMPDEST PUSH32 0x4E487B7100000000000000000000000000000000000000000000000000000000 PUSH1 0x0 MSTORE PUSH1 0x41 PUSH1 0x4 MSTORE PUSH1 0x24 PUSH1 0x0 REVERT JUMPDEST PUSH2 0xBFB DUP3 PUSH2 0xA2E JUMP JUMPDEST DUP2 ADD DUP2 DUP2 LT PUSH8 0xFFFFFFFFFFFFFFFF DUP3 GT OR ISZERO PUSH2 0xC1A JUMPI PUSH2 0xC19 PUSH2 0xBC3 JUMP JUMPDEST JUMPDEST DUP1 PUSH1 0x40 MSTORE POP POP POP JUMP JUMPDEST PUSH1 0x0 PUSH2 0xC2D PUSH2 0x971 JUMP JUMPDEST SWAP1 POP PUSH2 0xC39 DUP3 DUP3 PUSH2 0xBF2 JUMP JUMPDEST SWAP2 SWAP1 POP JUMP JUMPDEST PUSH1 0x0 PUSH8 0xFFFFFFFFFFFFFFFF DUP3 GT ISZERO PUSH2 0xC59 JUMPI PUSH2 0xC58 PUSH2 0xBC3 JUMP JUMPDEST JUMPDEST PUSH1 0x20 DUP3 MUL SWAP1 POP PUSH1 0x20 DUP2 ADD SWAP1 POP SWAP2 SWAP1 POP JUMP JUMPDEST PUSH1 0x0 DUP1 REVERT JUMPDEST PUSH1 0x0 PUSH2 0xC82 PUSH2 0xC7D DUP5 PUSH2 0xC3E JUMP JUMPDEST PUSH2 0xC23 JUMP JUMPDEST SWAP1 POP DUP1 DUP4 DUP3 MSTORE PUSH1 0x20 DUP3 ADD SWAP1 POP PUSH1 0x20 DUP5 MUL DUP4 ADD DUP6 DUP2 GT ISZERO PUSH2 0xCA5 JUMPI PUSH2 0xCA4 PUSH2 0xC6A JUMP JUMPDEST JUMPDEST DUP4 JUMPDEST DUP2 DUP2 LT ISZERO PUSH2 0xCCE JUMPI DUP1 PUSH2 0xCBA DUP9 DUP3 PUSH2 0xB2A JUMP JUMPDEST DUP5 MSTORE PUSH1 0x20 DUP5 ADD SWAP4 POP POP PUSH1 0x20 DUP2 ADD SWAP1 POP PUSH2 0xCA7 JUMP JUMPDEST POP POP POP SWAP4 SWAP3 POP POP POP JUMP JUMPDEST PUSH1 0x0 DUP3 PUSH1 0x1F DUP4 ADD SLT PUSH2 0xCED JUMPI PUSH2 0xCEC PUSH2 0xBBE JUMP JUMPDEST JUMPDEST DUP2 CALLDATALOAD PUSH2 0xCFD DUP5 DUP3 PUSH1 0x20 DUP7 ADD PUSH2 0xC6F JUMP JUMPDEST SWAP2 POP POP SWAP3 SWAP2 POP POP JUMP JUMPDEST PUSH1 0x0 PUSH1 0x20 DUP3 DUP5 SUB SLT ISZERO PUSH2 0xD1C JUMPI PUSH2 0xD1B PUSH2 0x97B JUMP JUMPDEST JUMPDEST PUSH1 0x0 DUP3 ADD CALLDATALOAD PUSH8 0xFFFFFFFFFFFFFFFF DUP2 GT ISZERO PUSH2 0xD3A JUMPI PUSH2 0xD39 PUSH2 0x980 JUMP JUMPDEST JUMPDEST PUSH2 0xD46 DUP5 DUP3 DUP6 ADD PUSH2 0xCD8 JUMP JUMPDEST SWAP2 POP POP SWAP3 SWAP2 POP POP JUMP JUMPDEST PUSH32 0x4E487B7100000000000000000000000000000000000000000000000000000000 PUSH1 0x0 MSTORE PUSH1 0x22 PUSH1 0x4 MSTORE PUSH1 0x24 PUSH1 0x0 REVERT JUMPDEST PUSH1 0x0 PUSH1 0x2 DUP3 DIV SWAP1 POP PUSH1 0x1 DUP3 AND DUP1 PUSH2 0xD96 JUMPI PUSH1 0x7F DUP3 AND SWAP2 POP JUMPDEST PUSH1 0x20 DUP3 LT DUP2 SUB PUSH2 0xDA9 JUMPI PUSH2 0xDA8 PUSH2 0xD4F JUMP JUMPDEST JUMPDEST POP SWAP2 SWAP1 POP JUMP JUMPDEST PUSH32 0x4E6F207469656E6573206465726563686F206120766F74617200000000000000 PUSH1 0x0 DUP3 ADD MSTORE POP JUMP JUMPDEST PUSH1 0x0 PUSH2 0xDE5 PUSH1 0x19 DUP4 PUSH2 0x9F3 JUMP JUMPDEST SWAP2 POP PUSH2 0xDF0 DUP3 PUSH2 0xDAF JUMP JUMPDEST PUSH1 0x20 DUP3 ADD SWAP1 POP SWAP2 SWAP1 POP JUMP JUMPDEST PUSH1 0x0 PUSH1 0x20 DUP3 ADD SWAP1 POP DUP2 DUP2 SUB PUSH1 0x0 DUP4 ADD MSTORE PUSH2 0xE14 DUP2 PUSH2 0xDD8 JUMP JUMPDEST SWAP1 POP SWAP2 SWAP1 POP JUMP JUMPDEST PUSH32 0x4C6120766F746163696F6E206861207465726D696E61646F0000000000000000 PUSH1 0x0 DUP3 ADD MSTORE POP JUMP JUMPDEST PUSH1 0x0 PUSH2 0xE51 PUSH1 0x18 DUP4 PUSH2 0x9F3 JUMP JUMPDEST SWAP2 POP PUSH2 0xE5C DUP3 PUSH2 0xE1B JUMP JUMPDEST PUSH1 0x20 DUP3 ADD SWAP1 POP SWAP2 SWAP1 POP JUMP JUMPDEST PUSH1 0x0 PUSH1 0x20 DUP3 ADD SWAP1 POP DUP2 DUP2 SUB PUSH1 0x0 DUP4 ADD MSTORE PUSH2 0xE80 DUP2 PUSH2 0xE44 JUMP JUMPDEST SWAP1 POP SWAP2 SWAP1 POP JUMP JUMPDEST PUSH32 0x59612068617320766F7461646F00000000000000000000000000000000000000 PUSH1 0x0 DUP3 ADD MSTORE POP JUMP JUMPDEST PUSH1 0x0 PUSH2 0xEBD PUSH1 0xD DUP4 PUSH2 0x9F3 JUMP JUMPDEST SWAP2 POP PUSH2 0xEC8 DUP3 PUSH2 0xE87 JUMP JUMPDEST PUSH1 0x20 DUP3 ADD SWAP1 POP SWAP2 SWAP1 POP JUMP JUMPDEST PUSH1 0x0 PUSH1 0x20 DUP3 ADD SWAP1 POP DUP2 DUP2 SUB PUSH1 0x0 DUP4 ADD MSTORE PUSH2 0xEEC DUP2 PUSH2 0xEB0 JUMP JUMPDEST SWAP1 POP SWAP2 SWAP1 POP JUMP JUMPDEST PUSH32 0x4E487B7100000000000000000000000000000000000000000000000000000000 PUSH1 0x0 MSTORE PUSH1 0x32 PUSH1 0x4 MSTORE PUSH1 0x24 PUSH1 0x0 REVERT JUMPDEST PUSH32 0x4E487B7100000000000000000000000000000000000000000000000000000000 PUSH1 0x0 MSTORE PUSH1 0x11 PUSH1 0x4 MSTORE PUSH1 0x24 PUSH1 0x0 REVERT JUMPDEST PUSH1 0x0 PUSH2 0xF5C DUP3 PUSH2 0x985 JUMP JUMPDEST SWAP2 POP PUSH2 0xF67 DUP4 PUSH2 0x985 JUMP JUMPDEST SWAP3 POP DUP3 DUP3 ADD SWAP1 POP DUP1 DUP3 GT ISZERO PUSH2 0xF7F JUMPI PUSH2 0xF7E PUSH2 0xF22 JUMP JUMPDEST JUMPDEST SWAP3 SWAP2 POP POP JUMP JUMPDEST PUSH32 0x4E6F20736520707565646520766572206C6F7320726573756C7461646F732061 PUSH1 0x0 DUP3 ADD MSTORE PUSH32 0x6E7465732064652066696E616C697A6172000000000000000000000000000000 PUSH1 0x20 DUP3 ADD MSTORE POP JUMP JUMPDEST PUSH1 0x0 PUSH2 0xFE1 PUSH1 0x31 DUP4 PUSH2 0x9F3 JUMP JUMPDEST SWAP2 POP PUSH2 0xFEC DUP3 PUSH2 0xF85 JUMP JUMPDEST PUSH1 0x40 DUP3 ADD SWAP1 POP SWAP2 SWAP1 POP JUMP JUMPDEST PUSH1 0x0 PUSH1 0x20 DUP3 ADD SWAP1 POP DUP2 DUP2 SUB PUSH1 0x0 DUP4 ADD MSTORE PUSH2 0x1010 DUP2 PUSH2 0xFD4 JUMP JUMPDEST SWAP1 POP SWAP2 SWAP1 POP JUMP JUMPDEST PUSH32 0x536F6C6F20656C2063726561646F72207075656465207574696C697A61722065 PUSH1 0x0 DUP3 ADD MSTORE PUSH32 0x7374612066756E63696F6E206465206C6120766F746163696F6E000000000000 PUSH1 0x20 DUP3 ADD MSTORE POP JUMP JUMPDEST PUSH1 0x0 PUSH2 0x1073 PUSH1 0x3A DUP4 PUSH2 0x9F3 JUMP JUMPDEST SWAP2 POP PUSH2 0x107E DUP3 PUSH2 0x1017 JUMP JUMPDEST PUSH1 0x40 DUP3 ADD SWAP1 POP SWAP2 SWAP1 POP JUMP JUMPDEST PUSH1 0x0 PUSH1 0x20 DUP3 ADD SWAP1 POP DUP2 DUP2 SUB PUSH1 0x0 DUP4 ADD MSTORE PUSH2 0x10A2 DUP2 PUSH2 0x1066 JUMP JUMPDEST SWAP1 POP SWAP2 SWAP1 POP JUMP JUMPDEST PUSH1 0x0 PUSH2 0x10B4 DUP3 PUSH2 0x985 JUMP JUMPDEST SWAP2 POP PUSH32 0xFFFFFFFFFFFFFFFFFFFFFFFFFFFFFFFFFFFFFFFFFFFFFFFFFFFFFFFFFFFFFFFF DUP3 SUB PUSH2 0x10E6 JUMPI PUSH2 0x10E5 PUSH2 0xF22 JUMP JUMPDEST JUMPDEST PUSH1 0x1 DUP3 ADD SWAP1 POP SWAP2 SWAP1 POP JUMP JUMPDEST PUSH1 0x0 DUP2 SWAP1 POP DUP2 PUSH1 0x0 MSTORE PUSH1 0x20 PUSH1 0x0 KECCAK256 SWAP1 POP SWAP2 SWAP1 POP JUMP JUMPDEST PUSH1 0x0 PUSH1 0x20 PUSH1 0x1F DUP4 ADD DIV SWAP1 POP SWAP2 SWAP1 POP JUMP JUMPDEST PUSH1 0x0 DUP3 DUP3 SHL SWAP1 POP SWAP3 SWAP2 POP POP JUMP JUMPDEST PUSH1 0x0 PUSH1 0x8 DUP4 MUL PUSH2 0x1153 PUSH32 0xFFFFFFFFFFFFFFFFFFFFFFFFFFFFFFFFFFFFFFFFFFFFFFFFFFFFFFFFFFFFFFFF DUP3 PUSH2 0x1116 JUMP JUMPDEST PUSH2 0x115D DUP7 DUP4 PUSH2 0x1116 JUMP JUMPDEST SWAP6 POP DUP1 NOT DUP5 AND SWAP4 POP DUP1 DUP7 AND DUP5 OR SWAP3 POP POP POP SWAP4 SWAP3 POP POP POP JUMP JUMPDEST PUSH1 0x0 DUP2 SWAP1 POP SWAP2 SWAP1 POP JUMP JUMPDEST PUSH1 0x0 PUSH2 0x119A PUSH2 0x1195 PUSH2 0x1190 DUP5 PUSH2 0x985 JUMP JUMPDEST PUSH2 0x1175 JUMP JUMPDEST PUSH2 0x985 JUMP JUMPDEST SWAP1 POP SWAP2 SWAP1 POP JUMP JUMPDEST PUSH1 0x0 DUP2 SWAP1 POP SWAP2 SWAP1 POP JUMP JUMPDEST PUSH2 0x11B4 DUP4 PUSH2 0x117F JUMP JUMPDEST PUSH2 0x11C8 PUSH2 0x11C0 DUP3 PUSH2 0x11A1 JUMP JUMPDEST DUP5 DUP5 SLOAD PUSH2 0x1123 JUMP JUMPDEST DUP3 SSTORE POP POP POP POP JUMP JUMPDEST PUSH1 0x0 SWAP1 JUMP JUMPDEST PUSH2 0x11DD PUSH2 0x11D0 JUMP JUMPDEST PUSH2 0x11E8 DUP2 DUP5 DUP5 PUSH2 0x11AB JUMP JUMPDEST POP POP POP JUMP JUMPDEST JUMPDEST DUP2 DUP2 LT ISZERO PUSH2 0x120C JUMPI PUSH2 0x1201 PUSH1 0x0 DUP3 PUSH2 0x11D5 JUMP JUMPDEST PUSH1 0x1 DUP2 ADD SWAP1 POP PUSH2 0x11EE JUMP JUMPDEST POP POP JUMP JUMPDEST PUSH1 0x1F DUP3 GT ISZERO PUSH2 0x1251 JUMPI PUSH2 0x1222 DUP2 PUSH2 0x10F1 JUMP JUMPDEST PUSH2 0x122B DUP5 PUSH2 0x1106 JUMP JUMPDEST DUP2 ADD PUSH1 0x20 DUP6 LT ISZERO PUSH2 0x123A JUMPI DUP2 SWAP1 POP JUMPDEST PUSH2 0x124E PUSH2 0x1246 DUP6 PUSH2 0x1106 JUMP JUMPDEST DUP4 ADD DUP3 PUSH2 0x11ED JUMP JUMPDEST POP POP JUMPDEST POP POP POP JUMP JUMPDEST PUSH1 0x0 DUP3 DUP3 SHR SWAP1 POP SWAP3 SWAP2 POP POP JUMP JUMPDEST PUSH1 0x0 PUSH2 0x1274 PUSH1 0x0 NOT DUP5 PUSH1 0x8 MUL PUSH2 0x1256 JUMP JUMPDEST NOT DUP1 DUP4 AND SWAP2 POP POP SWAP3 SWAP2 POP POP JUMP JUMPDEST PUSH1 0x0 PUSH2 0x128D DUP4 DUP4 PUSH2 0x1263 JUMP JUMPDEST SWAP2 POP DUP3 PUSH1 0x2 MUL DUP3 OR SWAP1 POP SWAP3 SWAP2 POP POP JUMP JUMPDEST PUSH2 0x12A6 DUP3 PUSH2 0x9E8 JUMP JUMPDEST PUSH8 0xFFFFFFFFFFFFFFFF DUP2 GT ISZERO PUSH2 0x12BF JUMPI PUSH2 0x12BE PUSH2 0xBC3 JUMP JUMPDEST JUMPDEST PUSH2 0x12C9 DUP3 SLOAD PUSH2 0xD7E JUMP JUMPDEST PUSH2 0x12D4 DUP3 DUP3 DUP6 PUSH2 0x1210 JUMP JUMPDEST PUSH1 0x0 PUSH1 0x20 SWAP1 POP PUSH1 0x1F DUP4 GT PUSH1 0x1 DUP2 EQ PUSH2 0x1307 JUMPI PUSH1 0x0 DUP5 ISZERO PUSH2 0x12F5 JUMPI DUP3 DUP8 ADD MLOAD SWAP1 POP JUMPDEST PUSH2 0x12FF DUP6 DUP3 PUSH2 0x1281 JUMP JUMPDEST DUP7 SSTORE POP PUSH2 0x1367 JUMP JUMPDEST PUSH1 0x1F NOT DUP5 AND PUSH2 0x1315 DUP7 PUSH2 0x10F1 JUMP JUMPDEST PUSH1 0x0 JUMPDEST DUP3 DUP2 LT ISZERO PUSH2 0x133D JUMPI DUP5 DUP10 ADD MLOAD DUP3 SSTORE PUSH1 0x1 DUP3 ADD SWAP2 POP PUSH1 0x20 DUP6 ADD SWAP5 POP PUSH1 0x20 DUP2 ADD SWAP1 POP PUSH2 0x1318 JUMP JUMPDEST DUP7 DUP4 LT ISZERO PUSH2 0x135A JUMPI DUP5 DUP10 ADD MLOAD PUSH2 0x1356 PUSH1 0x1F DUP10 AND DUP3 PUSH2 0x1263 JUMP JUMPDEST DUP4 SSTORE POP JUMPDEST PUSH1 0x1 PUSH1 0x2 DUP9 MUL ADD DUP9 SSTORE POP POP POP JUMPDEST POP POP POP POP POP POP JUMP JUMPDEST PUSH32 0x536F6C6F20656C2063726561646F72207075656465206167726567617220766F PUSH1 0x0 DUP3 ADD MSTORE PUSH32 0x74616E7465730000000000000000000000000000000000000000000000000000 PUSH1 0x20 DUP3 ADD MSTORE POP JUMP JUMPDEST PUSH1 0x0 PUSH2 0x13CB PUSH1 0x26 DUP4 PUSH2 0x9F3 JUMP JUMPDEST SWAP2 POP PUSH2 0x13D6 DUP3 PUSH2 0x136F JUMP JUMPDEST PUSH1 0x40 DUP3 ADD SWAP1 POP SWAP2 SWAP1 POP JUMP JUMPDEST PUSH1 0x0 PUSH1 0x20 DUP3 ADD SWAP1 POP DUP2 DUP2 SUB PUSH1 0x0 DUP4 ADD MSTORE PUSH2 0x13FA DUP2 PUSH2 0x13BE JUMP JUMPDEST SWAP1 POP SWAP2 SWAP1 POP JUMP JUMPDEST PUSH32 0x456C20766F74616E746520717565206465736561206167726567617220796120 PUSH1 0x0 DUP3 ADD MSTORE PUSH32 0x686120766F7461646F0000000000000000000000000000000000000000000000 PUSH1 0x20 DUP3 ADD MSTORE POP JUMP JUMPDEST PUSH1 0x0 PUSH2 0x145D PUSH1 0x29 DUP4 PUSH2 0x9F3 JUMP JUMPDEST SWAP2 POP PUSH2 0x1468 DUP3 PUSH2 0x1401 JUMP JUMPDEST PUSH1 0x40 DUP3 ADD SWAP1 POP SWAP2 SWAP1 POP JUMP JUMPDEST PUSH1 0x0 PUSH1 0x20 DUP3 ADD SWAP1 POP DUP2 DUP2 SUB PUSH1 0x0 DUP4 ADD MSTORE PUSH2 0x148C DUP2 PUSH2 0x1450 JUMP JUMPDEST SWAP1 POP SWAP2 SWAP1 POP JUMP INVALID LOG2 PUSH5 0x6970667358 0x22 SLT KECCAK256 0xD8 0xE6 EXP GASPRICE PUSH25 0xF7564C5149C99CD2345814B33E09440AC61C234B3B6CE85AB SHR PUSH15 0x64736F6C6343000812003300000000 "
				},
				"gasEstimates": {
					"creation": {
						"codeDepositCost": "1064200",
						"executionCost": "infinite",
						"totalCost": "infinite"
					},
					"external": {
						"agregarVotantes(address[])": "infinite",
						"creador()": "2533",
						"opciones(uint256)": "infinite",
						"terminaVotacion()": "infinite",
						"verResultado()": "infinite",
						"votantes(address)": "infinite",
						"votar(uint256)": "infinite"
					}
				},
				"methodIdentifiers": {
					"agregarVotantes(address[])": "c270cb52",
					"creador()": "92ebdcd2",
					"opciones(uint256)": "17262d8a",
					"terminaVotacion()": "437a88a3",
					"verResultado()": "25277cc0",
					"votantes(address)": "a92284d0",
					"votar(uint256)": "21606831"
				}
			},
			"storageLayout": {
				"storage": [
					{
						"astId": 15,
						"contract": "contracts/Votacion.sol:Votacion",
						"label": "creador",
						"offset": 0,
						"slot": "0",
						"type": "t_address"
					},
					{
						"astId": 20,
						"contract": "contracts/Votacion.sol:Votacion",
						"label": "votantes",
						"offset": 0,
						"slot": "1",
						"type": "t_mapping(t_address,t_struct(Votante)8_storage)"
					},
					{
						"astId": 24,
						"contract": "contracts/Votacion.sol:Votacion",
						"label": "opciones",
						"offset": 0,
						"slot": "2",
						"type": "t_array(t_struct(Opcion)13_storage)dyn_storage"
					},
					{
						"astId": 26,
						"contract": "contracts/Votacion.sol:Votacion",
						"label": "haTerminado",
						"offset": 0,
						"slot": "3",
						"type": "t_bool"
					},
					{
						"astId": 28,
						"contract": "contracts/Votacion.sol:Votacion",
						"label": "ganador",
						"offset": 0,
						"slot": "4",
						"type": "t_string_storage"
					},
					{
						"astId": 30,
						"contract": "contracts/Votacion.sol:Votacion",
						"label": "votosGanador",
						"offset": 0,
						"slot": "5",
						"type": "t_uint256"
					}
				],
				"types": {
					"t_address": {
						"encoding": "inplace",
						"label": "address",
						"numberOfBytes": "20"
					},
					"t_array(t_struct(Opcion)13_storage)dyn_storage": {
						"base": "t_struct(Opcion)13_storage",
						"encoding": "dynamic_array",
						"label": "struct Votacion.Opcion[]",
						"numberOfBytes": "32"
					},
					"t_bool": {
						"encoding": "inplace",
						"label": "bool",
						"numberOfBytes": "1"
					},
					"t_mapping(t_address,t_struct(Votante)8_storage)": {
						"encoding": "mapping",
						"key": "t_address",
						"label": "mapping(address => struct Votacion.Votante)",
						"numberOfBytes": "32",
						"value": "t_struct(Votante)8_storage"
					},
					"t_string_storage": {
						"encoding": "bytes",
						"label": "string",
						"numberOfBytes": "32"
					},
					"t_struct(Opcion)13_storage": {
						"encoding": "inplace",
						"label": "struct Votacion.Opcion",
						"members": [
							{
								"astId": 10,
								"contract": "contracts/Votacion.sol:Votacion",
								"label": "nombre",
								"offset": 0,
								"slot": "0",
								"type": "t_string_storage"
							},
							{
								"astId": 12,
								"contract": "contracts/Votacion.sol:Votacion",
								"label": "numeroVotos",
								"offset": 0,
								"slot": "1",
								"type": "t_uint256"
							}
						],
						"numberOfBytes": "64"
					},
					"t_struct(Votante)8_storage": {
						"encoding": "inplace",
						"label": "struct Votacion.Votante",
						"members": [
							{
								"astId": 3,
								"contract": "contracts/Votacion.sol:Votacion",
								"label": "haVotado",
								"offset": 0,
								"slot": "0",
								"type": "t_bool"
							},
							{
								"astId": 5,
								"contract": "contracts/Votacion.sol:Votacion",
								"label": "voto",
								"offset": 0,
								"slot": "1",
								"type": "t_uint256"
							},
							{
								"astId": 7,
								"contract": "contracts/Votacion.sol:Votacion",
								"label": "peso",
								"offset": 0,
								"slot": "2",
								"type": "t_uint256"
							}
						],
						"numberOfBytes": "96"
					},
					"t_uint256": {
						"encoding": "inplace",
						"label": "uint256",
						"numberOfBytes": "32"
					}
				}
			},
			"userdoc": {
				"kind": "user",
				"methods": {},
				"version": 1
			}
		}
	}
}